Component: ARM Compiler 6.14 Tool: armlink [5db06800]

==============================================================================

Section Cross References

    startup_stm32f103xb.o(RESET) refers to startup_stm32f103xb.o(STACK) for __initial_sp
    startup_stm32f103xb.o(RESET) refers to startup_stm32f103xb.o(.text) for Reset_Handler
    startup_stm32f103xb.o(RESET) refers to stm32f1xx_it.o(.text.NMI_Handler) for NMI_Handler
    startup_stm32f103xb.o(RESET) refers to stm32f1xx_it.o(.text.HardFault_Handler) for HardFault_Handler
    startup_stm32f103xb.o(RESET) refers to stm32f1xx_it.o(.text.MemManage_Handler) for MemManage_Handler
    startup_stm32f103xb.o(RESET) refers to stm32f1xx_it.o(.text.BusFault_Handler) for BusFault_Handler
    startup_stm32f103xb.o(RESET) refers to stm32f1xx_it.o(.text.UsageFault_Handler) for UsageFault_Handler
    startup_stm32f103xb.o(RESET) refers to stm32f1xx_it.o(.text.SVC_Handler) for SVC_Handler
    startup_stm32f103xb.o(RESET) refers to stm32f1xx_it.o(.text.DebugMon_Handler) for DebugMon_Handler
    startup_stm32f103xb.o(RESET) refers to stm32f1xx_it.o(.text.PendSV_Handler) for PendSV_Handler
    startup_stm32f103xb.o(RESET) refers to stm32f1xx_it.o(.text.SysTick_Handler) for SysTick_Handler
    startup_stm32f103xb.o(RESET) refers to stm32f1xx_it.o(.text.DMA1_Channel3_IRQHandler) for DMA1_Channel3_IRQHandler
    startup_stm32f103xb.o(RESET) refers to stm32f1xx_it.o(.text.TIM2_IRQHandler) for TIM2_IRQHandler
    startup_stm32f103xb.o(RESET) refers to stm32f1xx_it.o(.text.USART1_IRQHandler) for USART1_IRQHandler
    startup_stm32f103xb.o(RESET) refers to stm32f1xx_it.o(.text.USART2_IRQHandler) for USART2_IRQHandler
    startup_stm32f103xb.o(RESET) refers to stm32f1xx_it.o(.text.USART3_IRQHandler) for USART3_IRQHandler
    startup_stm32f103xb.o(RESET) refers to stm32f1xx_it.o(.text.EXTI15_10_IRQHandler) for EXTI15_10_IRQHandler
    startup_stm32f103xb.o(.text) refers to system_stm32f1xx.o(.text.SystemInit) for SystemInit
==============================================================================

Removing Unused input sections from the image.

    Removing ws2812b.o(.text), (0 bytes).
    Removing ws2812b.o(.ARM.exidx.text.WS2812B_Init), (8 bytes).
    Removing ws2812b.o(.ARM.exidx.text.WS2812B_SetDiodeColor), (8 bytes).
    Removing ws2812b.o(.ARM.exidx.text.WS2812B_SetDiodeColorStruct), (8 bytes).
    Removing ws2812b.o(.ARM.exidx.text.WS2812B_SetDiodeRGB), (8 bytes).
    Removing ws2812b.o(.ARM.exidx.text.WS2812B_GetColor), (8 bytes).
    Removing ws2812b.o(.ARM.exidx.text.WS2812B_GetPixels), (8 bytes).
    Removing ws2812b.o(.text.WS2812B_SetDiodeHSV), (228 bytes).
    Removing ws2812b.o(.ARM.exidx.text.WS2812B_SetDiodeHSV), (8 bytes).
    Removing ws2812b.o(.ARM.exidx.text.WS2812B_Refresh), (8 bytes).
    Removing ws2812b.o(.ARM.exidx.text.HAL_SPI_TxHalfCpltCallback), (8 bytes).
    Removing ws2812b.o(.ARM.exidx.text.HAL_SPI_TxCpltCallback), (8 bytes).
    Removing ws2812b.o(.ARM.exidx.text.sine8), (8 bytes).
    Removing ws2812b.o(.text.gamma8), (12 bytes).
    Removing ws2812b.o(.ARM.exidx.text.gamma8), (8 bytes).
    Removing ws2812b.o(.rodata._gammaTable), (256 bytes).
    Removing ws2812b_fx.o(.text), (0 bytes).
    Removing ws2812b_fx.o(.ARM.exidx.text.mode_static), (8 bytes).
==============================================================================

Image Symbol Table

    Local Symbols

    Symbol Name                              Value     Ov Type        Size  Object(Section)

    ../clib/microlib/ctype/ctype.c           0x00000000   Number         0  ctype_o.o ABSOLUTE
    ../clib/microlib/ctype/ctype.c           0x00000000   Number         0  isalnum_o.o ABSOLUTE
    ../clib/microlib/ctype/ctype.c           0x00000000   Number         0  isalpha_o.o ABSOLUTE
    ../clib/microlib/ctype/ctype.c           0x00000000   Number         0  isblank_o.o ABSOLUTE
    ../clib/microlib/ctype/ctype.c           0x00000000   Number         0  iscntrl_o.o ABSOLUTE
    ../clib/microlib/ctype/ctype.c           0x00000000   Number         0  isdigit_o.o ABSOLUTE
    ../clib/microlib/ctype/ctype.c           0x00000000   Number         0  isgraph_o.o ABSOLUTE
    ../clib/microlib/ctype/ctype.c           0x00000000   Number         0  islower_o.o ABSOLUTE
    ../clib/microlib/ctype/ctype.c           0x00000000   Number         0  isprint_o.o ABSOLUTE
    ../clib/microlib/ctype/ctype.c           0x00000000   Number         0  ispunct_o.o ABSOLUTE
    ../clib/microlib/ctype/ctype.c           0x00000000   Number         0  isspace_o.o ABSOLUTE
    ../clib/microlib/ctype/ctype.c           0x00000000   Number         0  isupper_o.o ABSOLUTE
    ../clib/microlib/ctype/ctype.c           0x00000000   Number         0  isxdigit_o.o ABSOLUTE
    ../clib/microlib/division.c              0x00000000   Number         0  uidiv.o ABSOLUTE
    ../clib/microlib/division.c              0x00000000   Number         0  uldiv.o ABSOLUTE
    ../clib/microlib/errno.c                 0x00000000   Number         0  errno.o ABSOLUTE
    ../clib/microlib/init/entry.s            0x00000000   Number         0  entry.o ABSOLUTE
    ../clib/microlib/init/entry.s            0x00000000   Number         0  entry2.o ABSOLUTE
    ../clib/microlib/init/entry.s            0x00000000   Number         0  entry5.o ABSOLUTE
    ../clib/microlib/init/entry.s            0x00000000   Number         0  entry7a.o ABSOLUTE
    ../clib/microlib/init/entry.s            0x00000000   Number         0  entry7b.o ABSOLUTE
    ../clib/microlib/init/entry.s            0x00000000   Number         0  entry8a.o ABSOLUTE
    ../clib/microlib/init/entry.s            0x00000000   Number         0  entry8b.o ABSOLUTE
    ../clib/microlib/init/entry.s            0x00000000   Number         0  entry9a.o ABSOLUTE
    ../clib/microlib/init/entry.s            0x00000000   Number         0  entry9b.o ABSOLUTE
    ../clib/microlib/init/entry.s            0x00000000   Number         0  entry10a.o ABSOLUTE
    ../clib/microlib/init/entry.s            0x00000000   Number         0  entry10b.o ABSOLUTE
    ../clib/microlib/init/entry.s            0x00000000   Number         0  entry11a.o ABSOLUTE
    ../clib/microlib/init/entry.s            0x00000000   Number         0  entry11b.o ABSOLUTE
    ../clib/microlib/longlong.c              0x00000000   Number         0  llushr.o ABSOLUTE
    ../clib/microlib/longlong.c              0x00000000   Number         0  llshl.o ABSOLUTE
    ../clib/microlib/longlong.c              0x00000000   Number         0  llsshr.o ABSOLUTE
    ../clib/microlib/malloc/calloc.c         0x00000000   Number         0  calloc.o ABSOLUTE
    ../clib/microlib/malloc/malloc.c         0x00000000   Number         0  malloc.o ABSOLUTE
    ../clib/microlib/malloc/malloc.c         0x00000000   Number         0  mallocr.o ABSOLUTE
    ../clib/microlib/malloc/malloc.c         0x00000000   Number         0  malloca.o ABSOLUTE
    ../clib/microlib/malloc/malloc.c         0x00000000   Number         0  mallocra.o ABSOLUTE
    ../clib/microlib/malloc/mvars.c          0x00000000   Number         0  mvars.o ABSOLUTE
    ../clib/microlib/printf/printf.c         0x00000000   Number         0  printfb.o ABSOLUTE
    ../clib/microlib/printf/printf.c         0x00000000   Number         0  printf0.o ABSOLUTE
    ../clib/microlib/printf/printf.c         0x00000000   Number         0  printf1.o ABSOLUTE
    ../clib/microlib/printf/printf.c         0x00000000   Number         0  printf2.o ABSOLUTE
    ../clib/microlib/printf/printf.c         0x00000000   Number         0  printf3.o ABSOLUTE
    ../clib/microlib/printf/printf.c         0x00000000   Number         0  printf4.o ABSOLUTE
    ../clib/microlib/printf/printf.c         0x00000000   Number         0  printf5.o ABSOLUTE
    ../clib/microlib/printf/printf.c         0x00000000   Number         0  printf6.o ABSOLUTE
    ../clib/microlib/printf/printf.c         0x00000000   Number         0  printf7.o ABSOLUTE
    ../clib/microlib/printf/printf.c         0x00000000   Number         0  printf8.o ABSOLUTE
    ../clib/microlib/printf/printf.c         0x00000000   Number         0  printfa.o ABSOLUTE
    ../clib/microlib/printf/stubs.s          0x00000000   Number         0  printfstubs.o ABSOLUTE
    ../clib/microlib/stdlib/rand.c           0x00000000   Number         0  rand.o ABSOLUTE
    ../clib/microlib/string/memcpy.c         0x00000000   Number         0  memcpya.o ABSOLUTE
    ../clib/microlib/string/memcpy.c         0x00000000   Number         0  memcpyb.o ABSOLUTE
    ../clib/microlib/string/memset.c         0x00000000   Number         0  memseta.o ABSOLUTE
    ../clib/microlib/stubs.s                 0x00000000   Number         0  iusefp.o ABSOLUTE
    ../clib/scanf.c                          0x00000000   Number         0  atoi.o ABSOLUTE
    ../clib/scanf.c                          0x00000000   Number         0  strtol.o ABSOLUTE
    ../clib/scanf.c                          0x00000000   Number         0  _strtoul.o ABSOLUTE
    ../clib/scanf.c                          0x00000000   Number         0  _chval.o ABSOLUTE
    ../fplib/microlib/fpadd.c                0x00000000   Number         0  dadd.o ABSOLUTE
    ../fplib/microlib/fpdiv.c                0x00000000   Number         0  ddiv.o ABSOLUTE
    ../fplib/microlib/fpepilogue.c           0x00000000   Number         0  depilogue.o ABSOLUTE
    ../fplib/microlib/fpfix.c                0x00000000   Number         0  dfixul.o ABSOLUTE
    ../fplib/microlib/fpmul.c                0x00000000   Number         0  dmul.o ABSOLUTE
    cdrcmple.s                               0x00000000   Number         0  cdrcmple.o ABSOLUTE
    dc.s                                     0x00000000   Number         0  dc.o ABSOLUTE
    delay.c                                  0x00000000   Number         0  delay.o ABSOLUTE
    dma.c                                    0x00000000   Number         0  dma.o ABSOLUTE
    gpio.c                                   0x00000000   Number         0  gpio.o ABSOLUTE
    handlers.s                               0x00000000   Number         0  handlers.o ABSOLUTE
    init.s                                   0x00000000   Number         0  init.o ABSOLUTE
    main.c                                   0x00000000   Number         0  main.o ABSOLUTE
    spi.c                                    0x00000000   Number         0  spi.o ABSOLUTE
    startup_stm32f103xb.s                    0x00000000   Number         0  startup_stm32f103xb.o ABSOLUTE
    stm32f1xx_hal.c                          0x00000000   Number         0  stm32f1xx_hal.o ABSOLUTE
    stm32f1xx_hal_cortex.c                   0x00000000   Number         0  stm32f1xx_hal_cortex.o ABSOLUTE
    stm32f1xx_hal_dma.c                      0x00000000   Number         0  stm32f1xx_hal_dma.o ABSOLUTE
    stm32f1xx_hal_exti.c                     0x00000000   Number         0  stm32f1xx_hal_exti.o ABSOLUTE
    stm32f1xx_hal_flash.c                    0x00000000   Number         0  stm32f1xx_hal_flash.o ABSOLUTE
    stm32f1xx_hal_flash_ex.c                 0x00000000   Number         0  stm32f1xx_hal_flash_ex.o ABSOLUTE
    stm32f1xx_hal_gpio.c                     0x00000000   Number         0  stm32f1xx_hal_gpio.o ABSOLUTE
    stm32f1xx_hal_gpio_ex.c                  0x00000000   Number         0  stm32f1xx_hal_gpio_ex.o ABSOLUTE
    stm32f1xx_hal_msp.c                      0x00000000   Number         0  stm32f1xx_hal_msp.o ABSOLUTE
    stm32f1xx_hal_pwr.c                      0x00000000   Number         0  stm32f1xx_hal_pwr.o ABSOLUTE
    stm32f1xx_hal_rcc.c                      0x00000000   Number         0  stm32f1xx_hal_rcc.o ABSOLUTE
    stm32f1xx_hal_rcc_ex.c                   0x00000000   Number         0  stm32f1xx_hal_rcc_ex.o ABSOLUTE
    stm32f1xx_hal_spi.c                      0x00000000   Number         0  stm32f1xx_hal_spi.o ABSOLUTE
    stm32f1xx_hal_tim.c                      0x00000000   Number         0  stm32f1xx_hal_tim.o ABSOLUTE
    stm32f1xx_hal_tim_ex.c                   0x00000000   Number         0  stm32f1xx_hal_tim_ex.o ABSOLUTE
    stm32f1xx_hal_uart.c                     0x00000000   Number         0  stm32f1xx_hal_uart.o ABSOLUTE
    stm32f1xx_it.c                           0x00000000   Number         0  stm32f1xx_it.o ABSOLUTE
    sys.c                                    0x00000000   Number         0  sys.o ABSOLUTE
    system_stm32f1xx.c                       0x00000000   Number         0  system_stm32f1xx.o ABSOLUTE
    tim.c                                    0x00000000   Number         0  tim.o ABSOLUTE
    usart.c                                  0x00000000   Number         0  usart.o ABSOLUTE
    ws2812b.c                                0x00000000   Number         0  ws2812b.o ABSOLUTE
    ws2812b_fx.c                             0x00000000   Number         0  ws2812b_fx.o ABSOLUTE
    RESET                                    0x08000000   Section      236  startup_stm32f103xb.o(RESET)
    .ARM.Collect$$$$00000000                 0x080000ec   Section        0  entry.o(.ARM.Collect$$$$00000000)
    .ARM.Collect$$$$00000001                 0x080000ec   Section        4  entry2.o(.ARM.Collect$$$$00000001)
    .ARM.Collect$$$$00000004                 0x080000f0   Section        4  entry5.o(.ARM.Collect$$$$00000004)
    .ARM.Collect$$$$00000008                 0x080000f4   Section        0  entry7b.o(.ARM.Collect$$$$00000008)
    .ARM.Collect$$$$0000000A                 0x080000f4   Section        0  entry8b.o(.ARM.Collect$$$$0000000A)
    .ARM.Collect$$$$0000000B                 0x080000f4   Section        8  entry9a.o(.ARM.Collect$$$$0000000B)
    __lit__00000000                          0x080000fc   Data           4  entry2.o(.ARM.Collect$$$$00002712)
    .ARM.Collect$$$$0000000D                 0x080000fc   Section        0  entry10a.o(.ARM.Collect$$$$0000000D)
    .ARM.Collect$$$$0000000F                 0x080000fc   Section        0  entry11a.o(.ARM.Collect$$$$0000000F)
    .ARM.Collect$$$$00002712                 0x080000fc   Section        4  entry2.o(.ARM.Collect$$$$00002712)
    .text                                    0x08000100   Section       36  startup_stm32f103xb.o(.text)
    .text                                    0x08000124   Section        0  rand.o(.text)
    .text                                    0x08000148   Section        0  memseta.o(.text)
    .text                                    0x0800016c   Section        0  calloc.o(.text)
    .text                                    0x08000188   Section        0  atoi.o(.text)
    .text                                    0x080001a2   Section        0  uidiv.o(.text)
    .text                                    0x080001ce   Section        0  strtol.o(.text)
    .text                                    0x08000240   Section       36  init.o(.text)
    .text                                    0x08000264   Section        0  ctype_o.o(.text)
    .text                                    0x0800026c   Section        0  _strtoul.o(.text)
    .text                                    0x0800030a   Section        0  _chval.o(.text)
    [Anonymous Symbol]                       0x08000326   Section        0  stm32f1xx_it.o(.text.BusFault_Handler)
    [Anonymous Symbol]                       0x08000328   Section        0  stm32f1xx_it.o(.text.DMA1_Channel3_IRQHandler)
    __arm_cp.9_0                             0x08000330   Number         4  stm32f1xx_it.o(.text.DMA1_Channel3_IRQHandler)
    DMA_SetConfig                            0x08000335   Thumb Code    38  stm32f1xx_hal_dma.o(.text.DMA_SetConfig)
    [Anonymous Symbol]                       0x08000334   Section        0  stm32f1xx_hal_dma.o(.text.DMA_SetConfig)
    [Anonymous Symbol]                       0x0800035a   Section        0  stm32f1xx_it.o(.text.DebugMon_Handler)
    [Anonymous Symbol]                       0x0800035c   Section        0  gpio.o(.text.ENCODER_READ)
    __arm_cp.1_0                             0x08000464   Number         4  gpio.o(.text.ENCODER_READ)
    __arm_cp.1_1                             0x08000468   Number         4  gpio.o(.text.ENCODER_READ)
    [Anonymous Symbol]                       0x0800046c   Section        0  stm32f1xx_it.o(.text.EXTI15_10_IRQHandler)
    [Anonymous Symbol]                       0x08000474   Section        0  main.o(.text.Error_Handler)
    [Anonymous Symbol]                       0x08000476   Section        0  stm32f1xx_hal_dma.o(.text.HAL_DMA_Abort)
    [Anonymous Symbol]                       0x080004b4   Section        0  stm32f1xx_hal_dma.o(.text.HAL_DMA_Abort_IT)
    [Anonymous Symbol]                       0x08000534   Section        0  stm32f1xx_hal_dma.o(.text.HAL_DMA_GetState)
    [Anonymous Symbol]                       0x0800053c   Section        0  stm32f1xx_hal_dma.o(.text.HAL_DMA_IRQHandler)
    __arm_cp.8_0                             0x08000658   Number         4  stm32f1xx_hal_dma.o(.text.HAL_DMA_IRQHandler)
    __arm_cp.8_1                             0x0800065c   Number         4  stm32f1xx_hal_dma.o(.text.HAL_DMA_IRQHandler)
    __arm_cp.8_2                             0x08000660   Number         4  stm32f1xx_hal_dma.o(.text.HAL_DMA_IRQHandler)
    __arm_cp.8_3                             0x08000664   Number         4  stm32f1xx_hal_dma.o(.text.HAL_DMA_IRQHandler)
    __arm_cp.8_4                             0x08000668   Number         4  stm32f1xx_hal_dma.o(.text.HAL_DMA_IRQHandler)
    __arm_cp.8_5                             0x0800066c   Number         4  stm32f1xx_hal_dma.o(.text.HAL_DMA_IRQHandler)
    [Anonymous Symbol]                       0x08000670   Section        0  stm32f1xx_hal_dma.o(.text.HAL_DMA_Init)
    __arm_cp.0_0                             0x080006cc   Number         4  stm32f1xx_hal_dma.o(.text.HAL_DMA_Init)
    __arm_cp.0_1                             0x080006d0   Number         4  stm32f1xx_hal_dma.o(.text.HAL_DMA_Init)
    [Anonymous Symbol]                       0x080006d4   Section        0  stm32f1xx_hal_dma.o(.text.HAL_DMA_Start_IT)
    [Anonymous Symbol]                       0x0800073c   Section        0  stm32f1xx_hal.o(.text.HAL_Delay)
    [Anonymous Symbol]                       0x0800075c   Section        0  stm32f1xx_hal_gpio.o(.text.HAL_GPIO_EXTI_Callback)
    [Anonymous Symbol]                       0x08000760   Section        0  stm32f1xx_hal_gpio.o(.text.HAL_GPIO_EXTI_IRQHandler)
    __arm_cp.6_0                             0x08000770   Number         4  stm32f1xx_hal_gpio.o(.text.HAL_GPIO_EXTI_IRQHandler)
    [Anonymous Symbol]                       0x08000774   Section        0  stm32f1xx_hal_gpio.o(.text.HAL_GPIO_Init)
    __arm_cp.0_0                             0x080008e0   Number         4  stm32f1xx_hal_gpio.o(.text.HAL_GPIO_Init)
    __arm_cp.0_1                             0x080008e4   Number         4  stm32f1xx_hal_gpio.o(.text.HAL_GPIO_Init)
    __arm_cp.0_2                             0x080008e8   Number         4  stm32f1xx_hal_gpio.o(.text.HAL_GPIO_Init)
    __arm_cp.0_4                             0x080008ec   Number         4  stm32f1xx_hal_gpio.o(.text.HAL_GPIO_Init)
    __arm_cp.0_5                             0x080008f0   Number         4  stm32f1xx_hal_gpio.o(.text.HAL_GPIO_Init)
    __arm_cp.0_6                             0x080008f4   Number         4  stm32f1xx_hal_gpio.o(.text.HAL_GPIO_Init)
    __arm_cp.0_7                             0x080008f8   Number         4  stm32f1xx_hal_gpio.o(.text.HAL_GPIO_Init)
    __arm_cp.0_8                             0x080008fc   Number         4  stm32f1xx_hal_gpio.o(.text.HAL_GPIO_Init)
    __arm_cp.0_9                             0x08000900   Number         4  stm32f1xx_hal_gpio.o(.text.HAL_GPIO_Init)
    __arm_cp.0_10                            0x08000904   Number         4  stm32f1xx_hal_gpio.o(.text.HAL_GPIO_Init)
    __arm_cp.0_11                            0x08000908   Number         4  stm32f1xx_hal_gpio.o(.text.HAL_GPIO_Init)
    __arm_cp.0_12                            0x0800090c   Number         4  stm32f1xx_hal_gpio.o(.text.HAL_GPIO_Init)
    [Anonymous Symbol]                       0x08000910   Section        0  stm32f1xx_hal_gpio.o(.text.HAL_GPIO_ReadPin)
    [Anonymous Symbol]                       0x0800091a   Section        0  stm32f1xx_hal_gpio.o(.text.HAL_GPIO_WritePin)
    [Anonymous Symbol]                       0x08000924   Section        0  stm32f1xx_hal.o(.text.HAL_GetTick)
    [Anonymous Symbol]                       0x0800092c   Section        0  stm32f1xx_hal.o(.text.HAL_IncTick)
    __arm_cp.5_1                             0x0800093c   Number         4  stm32f1xx_hal.o(.text.HAL_IncTick)
    [Anonymous Symbol]                       0x08000940   Section        0  stm32f1xx_hal.o(.text.HAL_Init)
    [Anonymous Symbol]                       0x08000960   Section        0  stm32f1xx_hal.o(.text.HAL_InitTick)
    __arm_cp.1_0                             0x08000998   Number         4  stm32f1xx_hal.o(.text.HAL_InitTick)
    [Anonymous Symbol]                       0x0800099c   Section        0  stm32f1xx_hal_msp.o(.text.HAL_MspInit)
    __arm_cp.0_0                             0x080009d4   Number         4  stm32f1xx_hal_msp.o(.text.HAL_MspInit)
    __arm_cp.0_1                             0x080009d8   Number         4  stm32f1xx_hal_msp.o(.text.HAL_MspInit)
    [Anonymous Symbol]                       0x080009dc   Section        0  stm32f1xx_hal_cortex.o(.text.HAL_NVIC_EnableIRQ)
    __arm_cp.3_0                             0x080009f4   Number         4  stm32f1xx_hal_cortex.o(.text.HAL_NVIC_EnableIRQ)
    [Anonymous Symbol]                       0x080009f8   Section        0  stm32f1xx_hal_cortex.o(.text.HAL_NVIC_SetPriority)
    [Anonymous Symbol]                       0x08000a30   Section        0  stm32f1xx_hal_cortex.o(.text.HAL_NVIC_SetPriorityGrouping)
    __arm_cp.0_0                             0x08000a48   Number         4  stm32f1xx_hal_cortex.o(.text.HAL_NVIC_SetPriorityGrouping)
    __arm_cp.0_1                             0x08000a4c   Number         4  stm32f1xx_hal_cortex.o(.text.HAL_NVIC_SetPriorityGrouping)
    [Anonymous Symbol]                       0x08000a50   Section        0  stm32f1xx_hal_rcc.o(.text.HAL_RCC_ClockConfig)
    __arm_cp.2_0                             0x08000b7c   Number         4  stm32f1xx_hal_rcc.o(.text.HAL_RCC_ClockConfig)
    __arm_cp.2_2                             0x08000b80   Number         4  stm32f1xx_hal_rcc.o(.text.HAL_RCC_ClockConfig)
    __arm_cp.2_4                             0x08000b84   Number         4  stm32f1xx_hal_rcc.o(.text.HAL_RCC_ClockConfig)
    [Anonymous Symbol]                       0x08000b88   Section        0  stm32f1xx_hal_rcc.o(.text.HAL_RCC_GetPCLK1Freq)
    [Anonymous Symbol]                       0x08000b9c   Section        0  stm32f1xx_hal_rcc.o(.text.HAL_RCC_GetPCLK2Freq)
    __arm_cp.9_0                             0x08000bb0   Number         4  stm32f1xx_hal_rcc.o(.text.HAL_RCC_GetPCLK2Freq)
    __arm_cp.9_2                             0x08000bb4   Number         4  stm32f1xx_hal_rcc.o(.text.HAL_RCC_GetPCLK2Freq)
    [Anonymous Symbol]                       0x08000bb8   Section        0  stm32f1xx_hal_rcc.o(.text.HAL_RCC_GetSysClockFreq)
    __arm_cp.3_0                             0x08000bec   Number         4  stm32f1xx_hal_rcc.o(.text.HAL_RCC_GetSysClockFreq)
    __arm_cp.3_1                             0x08000bf0   Number         4  stm32f1xx_hal_rcc.o(.text.HAL_RCC_GetSysClockFreq)
    __arm_cp.3_4                             0x08000c08   Number         4  stm32f1xx_hal_rcc.o(.text.HAL_RCC_GetSysClockFreq)
    [Anonymous Symbol]                       0x08000c0c   Section        0  stm32f1xx_hal_rcc.o(.text.HAL_RCC_OscConfig)
    __arm_cp.1_0                             0x08000f30   Number         4  stm32f1xx_hal_rcc.o(.text.HAL_RCC_OscConfig)
    __arm_cp.1_1                             0x08000f34   Number         4  stm32f1xx_hal_rcc.o(.text.HAL_RCC_OscConfig)
    __arm_cp.1_2                             0x08000f38   Number         4  stm32f1xx_hal_rcc.o(.text.HAL_RCC_OscConfig)
    __arm_cp.1_3                             0x08000f3c   Number         4  stm32f1xx_hal_rcc.o(.text.HAL_RCC_OscConfig)
    [Anonymous Symbol]                       0x08000f40   Section        0  stm32f1xx_hal_spi.o(.text.HAL_SPI_DMAStop)
    [Anonymous Symbol]                       0x08000f84   Section        0  stm32f1xx_hal_spi.o(.text.HAL_SPI_ErrorCallback)
    [Anonymous Symbol]                       0x08000f86   Section        0  stm32f1xx_hal_spi.o(.text.HAL_SPI_Init)
    [Anonymous Symbol]                       0x08000ffc   Section        0  spi.o(.text.HAL_SPI_MspInit)
    __arm_cp.1_0                             0x08001084   Number         4  spi.o(.text.HAL_SPI_MspInit)
    __arm_cp.1_1                             0x08001088   Number         4  spi.o(.text.HAL_SPI_MspInit)
    __arm_cp.1_2                             0x0800108c   Number         4  spi.o(.text.HAL_SPI_MspInit)
    __arm_cp.1_3                             0x08001090   Number         4  spi.o(.text.HAL_SPI_MspInit)
    [Anonymous Symbol]                       0x08001094   Section        0  stm32f1xx_hal_spi.o(.text.HAL_SPI_Transmit_DMA)
    __arm_cp.20_0                            0x0800113c   Number         4  stm32f1xx_hal_spi.o(.text.HAL_SPI_Transmit_DMA)
    __arm_cp.20_1                            0x08001140   Number         4  stm32f1xx_hal_spi.o(.text.HAL_SPI_Transmit_DMA)
    __arm_cp.20_2                            0x08001144   Number         4  stm32f1xx_hal_spi.o(.text.HAL_SPI_Transmit_DMA)
    [Anonymous Symbol]                       0x08001148   Section        0  ws2812b.o(.text.HAL_SPI_TxCpltCallback)
    [Anonymous Symbol]                       0x080011f4   Section        0  ws2812b.o(.text.HAL_SPI_TxHalfCpltCallback)
    __arm_cp.8_0                             0x080012b4   Number         4  ws2812b.o(.text.HAL_SPI_TxHalfCpltCallback)
    __arm_cp.8_1                             0x080012b8   Number         4  ws2812b.o(.text.HAL_SPI_TxHalfCpltCallback)
    [Anonymous Symbol]                       0x080012bc   Section        0  main.o(.text.HAL_SYSTICK_Callback)
    [Anonymous Symbol]                       0x080012c0   Section        0  stm32f1xx_hal_cortex.o(.text.HAL_SYSTICK_Config)
    __arm_cp.7_0                             0x080012e0   Number         4  stm32f1xx_hal_cortex.o(.text.HAL_SYSTICK_Config)
    __arm_cp.7_1                             0x080012e4   Number         4  stm32f1xx_hal_cortex.o(.text.HAL_SYSTICK_Config)
    [Anonymous Symbol]                       0x080012e8   Section        0  stm32f1xx_hal_tim_ex.o(.text.HAL_TIMEx_BreakCallback)
    [Anonymous Symbol]                       0x080012ea   Section        0  stm32f1xx_hal_tim_ex.o(.text.HAL_TIMEx_CommutCallback)
    [Anonymous Symbol]                       0x080012ec   Section        0  stm32f1xx_hal_tim_ex.o(.text.HAL_TIMEx_MasterConfigSynchronization)
    [Anonymous Symbol]                       0x08001326   Section        0  stm32f1xx_hal_tim.o(.text.HAL_TIM_Base_Init)
    [Anonymous Symbol]                       0x0800135c   Section        0  tim.o(.text.HAL_TIM_Base_MspInit)
    __arm_cp.1_0                             0x08001390   Number         4  tim.o(.text.HAL_TIM_Base_MspInit)
    [Anonymous Symbol]                       0x08001394   Section        0  stm32f1xx_hal_tim.o(.text.HAL_TIM_ConfigClockSource)
    [Anonymous Symbol]                       0x08001488   Section        0  stm32f1xx_hal_tim.o(.text.HAL_TIM_IC_CaptureCallback)
    [Anonymous Symbol]                       0x0800148a   Section        0  stm32f1xx_hal_tim.o(.text.HAL_TIM_IRQHandler)
    [Anonymous Symbol]                       0x080015f6   Section        0  stm32f1xx_hal_tim.o(.text.HAL_TIM_OC_DelayElapsedCallback)
    [Anonymous Symbol]                       0x080015f8   Section        0  stm32f1xx_hal_tim.o(.text.HAL_TIM_PWM_PulseFinishedCallback)
    [Anonymous Symbol]                       0x080015fa   Section        0  stm32f1xx_hal_tim.o(.text.HAL_TIM_PeriodElapsedCallback)
    [Anonymous Symbol]                       0x080015fc   Section        0  stm32f1xx_hal_tim.o(.text.HAL_TIM_TriggerCallback)
    [Anonymous Symbol]                       0x080015fe   Section        0  stm32f1xx_hal_uart.o(.text.HAL_UART_ErrorCallback)
    [Anonymous Symbol]                       0x08001600   Section        0  stm32f1xx_hal_uart.o(.text.HAL_UART_IRQHandler)
    __arm_cp.37_0                            0x08001748   Number         4  stm32f1xx_hal_uart.o(.text.HAL_UART_IRQHandler)
    [Anonymous Symbol]                       0x0800174c   Section        0  stm32f1xx_hal_uart.o(.text.HAL_UART_Init)
    [Anonymous Symbol]                       0x080017a8   Section        0  usart.o(.text.HAL_UART_MspInit)
    __arm_cp.5_1                             0x080018ec   Number         4  usart.o(.text.HAL_UART_MspInit)
    __arm_cp.5_4                             0x080018f0   Number         4  usart.o(.text.HAL_UART_MspInit)
    [Anonymous Symbol]                       0x080018f4   Section        0  stm32f1xx_hal_uart.o(.text.HAL_UART_Receive_IT)
    [Anonymous Symbol]                       0x08001944   Section        0  usart.o(.text.HAL_UART_RxCpltCallback)
    __arm_cp.7_1                             0x0800198c   Number         4  usart.o(.text.HAL_UART_RxCpltCallback)
    __arm_cp.7_2                             0x08001990   Number         4  usart.o(.text.HAL_UART_RxCpltCallback)
    [Anonymous Symbol]                       0x08001994   Section        0  stm32f1xx_hal_uart.o(.text.HAL_UART_TxCpltCallback)
    [Anonymous Symbol]                       0x08001996   Section        0  stm32f1xx_it.o(.text.HardFault_Handler)
    [Anonymous Symbol]                       0x08001998   Section        0  dma.o(.text.MX_DMA_Init)
    __arm_cp.0_0                             0x080019c4   Number         4  dma.o(.text.MX_DMA_Init)
    [Anonymous Symbol]                       0x080019c8   Section        0  gpio.o(.text.MX_GPIO_Init)
    __arm_cp.0_0                             0x08001a60   Number         4  gpio.o(.text.MX_GPIO_Init)
    __arm_cp.0_1                             0x08001a64   Number         4  gpio.o(.text.MX_GPIO_Init)
    __arm_cp.0_2                             0x08001a68   Number         4  gpio.o(.text.MX_GPIO_Init)
    __arm_cp.0_3                             0x08001a6c   Number         4  gpio.o(.text.MX_GPIO_Init)
    [Anonymous Symbol]                       0x08001a70   Section        0  spi.o(.text.MX_SPI1_Init)
    __arm_cp.0_0                             0x08001aac   Number         4  spi.o(.text.MX_SPI1_Init)
    __arm_cp.0_1                             0x08001ab0   Number         4  spi.o(.text.MX_SPI1_Init)
    [Anonymous Symbol]                       0x08001ab4   Section        0  tim.o(.text.MX_TIM2_Init)
    [Anonymous Symbol]                       0x08001b18   Section        0  usart.o(.text.MX_USART1_UART_Init)
    __arm_cp.2_0                             0x08001b48   Number         4  usart.o(.text.MX_USART1_UART_Init)
    __arm_cp.2_1                             0x08001b4c   Number         4  usart.o(.text.MX_USART1_UART_Init)
    [Anonymous Symbol]                       0x08001b50   Section        0  usart.o(.text.MX_USART2_UART_Init)
    __arm_cp.3_0                             0x08001b80   Number         4  usart.o(.text.MX_USART2_UART_Init)
    __arm_cp.3_1                             0x08001b84   Number         4  usart.o(.text.MX_USART2_UART_Init)
    [Anonymous Symbol]                       0x08001b88   Section        0  usart.o(.text.MX_USART3_UART_Init)
    __arm_cp.4_0                             0x08001bb8   Number         4  usart.o(.text.MX_USART3_UART_Init)
    __arm_cp.4_1                             0x08001bbc   Number         4  usart.o(.text.MX_USART3_UART_Init)
    [Anonymous Symbol]                       0x08001bc0   Section        0  stm32f1xx_it.o(.text.MemManage_Handler)
    [Anonymous Symbol]                       0x08001bc2   Section        0  stm32f1xx_it.o(.text.NMI_Handler)
    [Anonymous Symbol]                       0x08001bc4   Section        0  stm32f1xx_it.o(.text.PendSV_Handler)
    SPI_DMAError                             0x08001bc7   Thumb Code    30  stm32f1xx_hal_spi.o(.text.SPI_DMAError)
    [Anonymous Symbol]                       0x08001bc6   Section        0  stm32f1xx_hal_spi.o(.text.SPI_DMAError)
    SPI_DMAHalfTransmitCplt                  0x08001be5   Thumb Code     6  stm32f1xx_hal_spi.o(.text.SPI_DMAHalfTransmitCplt)
    [Anonymous Symbol]                       0x08001be4   Section        0  stm32f1xx_hal_spi.o(.text.SPI_DMAHalfTransmitCplt)
    SPI_DMATransmitCplt                      0x08001beb   Thumb Code   110  stm32f1xx_hal_spi.o(.text.SPI_DMATransmitCplt)
    [Anonymous Symbol]                       0x08001bea   Section        0  stm32f1xx_hal_spi.o(.text.SPI_DMATransmitCplt)
    SPI_EndRxTxTransaction                   0x08001c59   Thumb Code    32  stm32f1xx_hal_spi.o(.text.SPI_EndRxTxTransaction)
    [Anonymous Symbol]                       0x08001c58   Section        0  stm32f1xx_hal_spi.o(.text.SPI_EndRxTxTransaction)
    SPI_WaitFlagStateUntilTimeout            0x08001c79   Thumb Code   128  stm32f1xx_hal_spi.o(.text.SPI_WaitFlagStateUntilTimeout)
    [Anonymous Symbol]                       0x08001c78   Section        0  stm32f1xx_hal_spi.o(.text.SPI_WaitFlagStateUntilTimeout)
    [Anonymous Symbol]                       0x08001cf8   Section        0  stm32f1xx_it.o(.text.SVC_Handler)
    [Anonymous Symbol]                       0x08001cfa   Section        0  stm32f1xx_it.o(.text.SysTick_Handler)
    [Anonymous Symbol]                       0x08001d08   Section        0  main.o(.text.SystemClock_Config)
    [Anonymous Symbol]                       0x08001d54   Section        0  system_stm32f1xx.o(.text.SystemInit)
    __arm_cp.0_0                             0x08001d90   Number         4  system_stm32f1xx.o(.text.SystemInit)
    __arm_cp.0_1                             0x08001d94   Number         4  system_stm32f1xx.o(.text.SystemInit)
    __arm_cp.0_2                             0x08001d98   Number         4  system_stm32f1xx.o(.text.SystemInit)
    __arm_cp.0_3                             0x08001d9c   Number         4  system_stm32f1xx.o(.text.SystemInit)
    [Anonymous Symbol]                       0x08001da0   Section        0  stm32f1xx_it.o(.text.TIM2_IRQHandler)
    __arm_cp.10_0                            0x08001da8   Number         4  stm32f1xx_it.o(.text.TIM2_IRQHandler)
    [Anonymous Symbol]                       0x08001dac   Section        0  stm32f1xx_hal_tim.o(.text.TIM_Base_SetConfig)
    __arm_cp.2_0                             0x08001e10   Number         4  stm32f1xx_hal_tim.o(.text.TIM_Base_SetConfig)
    __arm_cp.2_1                             0x08001e14   Number         4  stm32f1xx_hal_tim.o(.text.TIM_Base_SetConfig)
    __arm_cp.2_2                             0x08001e18   Number         4  stm32f1xx_hal_tim.o(.text.TIM_Base_SetConfig)
    TIM_TI1_ConfigInputStage                 0x08001e1d   Thumb Code    34  stm32f1xx_hal_tim.o(.text.TIM_TI1_ConfigInputStage)
    [Anonymous Symbol]                       0x08001e1c   Section        0  stm32f1xx_hal_tim.o(.text.TIM_TI1_ConfigInputStage)
    TIM_TI2_ConfigInputStage                 0x08001e3f   Thumb Code    34  stm32f1xx_hal_tim.o(.text.TIM_TI2_ConfigInputStage)
    [Anonymous Symbol]                       0x08001e3e   Section        0  stm32f1xx_hal_tim.o(.text.TIM_TI2_ConfigInputStage)
    [Anonymous Symbol]                       0x08001e60   Section        0  main.o(.text.TODO)
    __arm_cp.2_0                             0x08001fe0   Number         4  main.o(.text.TODO)
    __arm_cp.2_1                             0x08001fe4   Number         4  main.o(.text.TODO)
    __arm_cp.2_2                             0x08001fe8   Number         4  main.o(.text.TODO)
    __arm_cp.2_3                             0x08001fec   Number         4  main.o(.text.TODO)
    __arm_cp.2_4                             0x08001ff0   Number         4  main.o(.text.TODO)
    UART_DMAAbortOnError                     0x08002011   Thumb Code    12  stm32f1xx_hal_uart.o(.text.UART_DMAAbortOnError)
    [Anonymous Symbol]                       0x08002010   Section        0  stm32f1xx_hal_uart.o(.text.UART_DMAAbortOnError)
    UART_EndRxTransfer                       0x0800201d   Thumb Code    26  stm32f1xx_hal_uart.o(.text.UART_EndRxTransfer)
    [Anonymous Symbol]                       0x0800201c   Section        0  stm32f1xx_hal_uart.o(.text.UART_EndRxTransfer)
    UART_Receive_IT                          0x08002037   Thumb Code   118  stm32f1xx_hal_uart.o(.text.UART_Receive_IT)
    [Anonymous Symbol]                       0x08002036   Section        0  stm32f1xx_hal_uart.o(.text.UART_Receive_IT)
    UART_SetConfig                           0x080020ad   Thumb Code   128  stm32f1xx_hal_uart.o(.text.UART_SetConfig)
    [Anonymous Symbol]                       0x080020ac   Section        0  stm32f1xx_hal_uart.o(.text.UART_SetConfig)
    __arm_cp.2_0                             0x08002128   Number         4  stm32f1xx_hal_uart.o(.text.UART_SetConfig)
    [Anonymous Symbol]                       0x0800212c   Section        0  stm32f1xx_it.o(.text.USART1_IRQHandler)
    __arm_cp.11_0                            0x08002180   Number         4  stm32f1xx_it.o(.text.USART1_IRQHandler)
    __arm_cp.11_1                            0x08002184   Number         4  stm32f1xx_it.o(.text.USART1_IRQHandler)
    __arm_cp.11_2                            0x08002188   Number         4  stm32f1xx_it.o(.text.USART1_IRQHandler)
    __arm_cp.11_3                            0x0800218c   Number         4  stm32f1xx_it.o(.text.USART1_IRQHandler)
    __arm_cp.11_4                            0x08002190   Number         4  stm32f1xx_it.o(.text.USART1_IRQHandler)
    [Anonymous Symbol]                       0x08002194   Section        0  stm32f1xx_it.o(.text.USART2_IRQHandler)
    __arm_cp.12_0                            0x0800219c   Number         4  stm32f1xx_it.o(.text.USART2_IRQHandler)
    [Anonymous Symbol]                       0x080021a0   Section        0  stm32f1xx_it.o(.text.USART3_IRQHandler)
    __arm_cp.13_0                            0x080021f4   Number         4  stm32f1xx_it.o(.text.USART3_IRQHandler)
    __arm_cp.13_1                            0x080021f8   Number         4  stm32f1xx_it.o(.text.USART3_IRQHandler)
    __arm_cp.13_2                            0x080021fc   Number         4  stm32f1xx_it.o(.text.USART3_IRQHandler)
    __arm_cp.13_3                            0x08002200   Number         4  stm32f1xx_it.o(.text.USART3_IRQHandler)
    __arm_cp.13_4                            0x08002204   Number         4  stm32f1xx_it.o(.text.USART3_IRQHandler)
    [Anonymous Symbol]                       0x08002208   Section        0  stm32f1xx_it.o(.text.UsageFault_Handler)
    [Anonymous Symbol]                       0x0800220c   Section        0  ws2812b_fx.o(.text.WS2812BFX_Callback)
    [Anonymous Symbol]                       0x08002258   Section        0  ws2812b_fx.o(.text.WS2812BFX_HSVtoRGB)
    [Anonymous Symbol]                       0x08002304   Section        0  ws2812b_fx.o(.text.WS2812BFX_Init)
    __arm_cp.58_1                            0x080024ac   Number         4  ws2812b_fx.o(.text.WS2812BFX_Init)
    [Anonymous Symbol]                       0x080024b0   Section        0  ws2812b_fx.o(.text.WS2812BFX_NextMode)
    [Anonymous Symbol]                       0x08002500   Section        0  ws2812b_fx.o(.text.WS2812BFX_PrevMode)
    __arm_cp.67_0                            0x08002550   Number         4  ws2812b_fx.o(.text.WS2812BFX_PrevMode)
    [Anonymous Symbol]                       0x08002554   Section        0  ws2812b_fx.o(.text.WS2812BFX_RGBtoHSV)
    [Anonymous Symbol]                       0x080025ec   Section        0  ws2812b_fx.o(.text.WS2812BFX_SetAll)
    [Anonymous Symbol]                       0x08002640   Section        0  ws2812b_fx.o(.text.WS2812BFX_SetAllRGB)
    [Anonymous Symbol]                       0x08002694   Section        0  ws2812b_fx.o(.text.WS2812BFX_SetColorHSV)
    [Anonymous Symbol]                       0x080026d4   Section        0  ws2812b_fx.o(.text.WS2812BFX_SetColorRGB)
    [Anonymous Symbol]                       0x080026f4   Section        0  ws2812b_fx.o(.text.WS2812BFX_SetMode)
    __arm_cp.64_1                            0x08002750   Number         4  ws2812b_fx.o(.text.WS2812BFX_SetMode)
    [Anonymous Symbol]                       0x08002754   Section        0  ws2812b_fx.o(.text.WS2812BFX_SetSpeed)
    [Anonymous Symbol]                       0x08002778   Section        0  ws2812b_fx.o(.text.WS2812BFX_Start)
    [Anonymous Symbol]                       0x080027a8   Section        0  ws2812b_fx.o(.text.WS2812BFX_SysTickCallback)
    __arm_cp.62_0                            0x080027c4   Number         4  ws2812b_fx.o(.text.WS2812BFX_SysTickCallback)
    [Anonymous Symbol]                       0x080027c8   Section        0  ws2812b.o(.text.WS2812B_GetColor)
    [Anonymous Symbol]                       0x080027e0   Section        0  ws2812b.o(.text.WS2812B_GetPixels)
    [Anonymous Symbol]                       0x080027e4   Section        0  ws2812b.o(.text.WS2812B_Init)
    [Anonymous Symbol]                       0x080027ec   Section        0  ws2812b.o(.text.WS2812B_Refresh)
    __arm_cp.7_0                             0x0800281c   Number         4  ws2812b.o(.text.WS2812B_Refresh)
    [Anonymous Symbol]                       0x08002820   Section        0  ws2812b.o(.text.WS2812B_SetDiodeColor)
    [Anonymous Symbol]                       0x0800283c   Section        0  ws2812b.o(.text.WS2812B_SetDiodeColorStruct)
    [Anonymous Symbol]                       0x08002854   Section        0  ws2812b.o(.text.WS2812B_SetDiodeRGB)
    __arm_cp.3_0                             0x0800286c   Number         4  ws2812b.o(.text.WS2812B_SetDiodeRGB)
    __NVIC_SetPriority                       0x08002871   Thumb Code    36  stm32f1xx_hal_cortex.o(.text.__NVIC_SetPriority)
    [Anonymous Symbol]                       0x08002870   Section        0  stm32f1xx_hal_cortex.o(.text.__NVIC_SetPriority)
    __arm_cp.2_0                             0x0800288c   Number         4  stm32f1xx_hal_cortex.o(.text.__NVIC_SetPriority)
    __arm_cp.2_1                             0x08002890   Number         4  stm32f1xx_hal_cortex.o(.text.__NVIC_SetPriority)
    [Anonymous Symbol]                       0x08002894   Section        0  ws2812b_fx.o(.text.blink)
    [Anonymous Symbol]                       0x080028e8   Section        0  ws2812b_fx.o(.text.chase)
    __arm_cp.104_0                           0x080029e0   Number         4  ws2812b_fx.o(.text.chase)
    [Anonymous Symbol]                       0x080029e4   Section        0  ws2812b_fx.o(.text.color_blend)
    __arm_cp.97_0                            0x08002a44   Number         4  ws2812b_fx.o(.text.color_blend)
    [Anonymous Symbol]                       0x08002a48   Section        0  ws2812b_fx.o(.text.color_wheel)
    [Anonymous Symbol]                       0x08002a98   Section        0  ws2812b_fx.o(.text.color_wipe)
    __arm_cp.100_0                           0x08002b04   Number         4  ws2812b_fx.o(.text.color_wipe)
    [Anonymous Symbol]                       0x08002b08   Section        0  ws2812b_fx.o(.text.fade_out)
    [Anonymous Symbol]                       0x08002bbc   Section        0  ws2812b_fx.o(.text.fire_flicker)
    __arm_cp.107_0                           0x08002c50   Number         4  ws2812b_fx.o(.text.fire_flicker)
    [Anonymous Symbol]                       0x08002c54   Section        0  ws2812b_fx.o(.text.fireworks)
    __arm_cp.106_0                           0x08002d68   Number         4  ws2812b_fx.o(.text.fireworks)
    [Anonymous Symbol]                       0x08002d6c   Section        0  usart.o(.text.fputc)
    __arm_cp.1_0                             0x08002d7c   Number         4  usart.o(.text.fputc)
    [Anonymous Symbol]                       0x08002d80   Section        0  ws2812b_fx.o(.text.get_random_wheel_index)
    [Anonymous Symbol]                       0x08002dac   Section        0  main.o(.text.main)
    __arm_cp.0_0                             0x08002fdc   Number         4  main.o(.text.main)
    __arm_cp.0_1                             0x08002fe0   Number         4  main.o(.text.main)
    __arm_cp.0_2                             0x08002fe4   Number         4  main.o(.text.main)
    __arm_cp.0_3                             0x08002fe8   Number         4  main.o(.text.main)
    __arm_cp.0_4                             0x08002fec   Number         4  main.o(.text.main)
    __arm_cp.0_5                             0x08002ff0   Number         4  main.o(.text.main)
    __arm_cp.0_6                             0x08002ff4   Number         4  main.o(.text.main)
    __arm_cp.0_8                             0x08002ffc   Number         4  main.o(.text.main)
    __arm_cp.0_9                             0x08003000   Number         4  main.o(.text.main)
    [Anonymous Symbol]                       0x08003004   Section        0  ws2812b_fx.o(.text.mode_bicolor_chase)
    [Anonymous Symbol]                       0x0800301c   Section        0  ws2812b_fx.o(.text.mode_black_to_color)
    [Anonymous Symbol]                       0x08003024   Section        0  ws2812b_fx.o(.text.mode_blink)
    __arm_cp.3_0                             0x0800303c   Number         4  ws2812b_fx.o(.text.mode_blink)
    [Anonymous Symbol]                       0x08003040   Section        0  ws2812b_fx.o(.text.mode_blink_rainbow)
    [Anonymous Symbol]                       0x08003064   Section        0  ws2812b_fx.o(.text.mode_breath)
    [Anonymous Symbol]                       0x08003100   Section        0  ws2812b_fx.o(.text.mode_chase_blackout)
    [Anonymous Symbol]                       0x08003118   Section        0  ws2812b_fx.o(.text.mode_chase_blackout_rainbow)
    [Anonymous Symbol]                       0x08003154   Section        0  ws2812b_fx.o(.text.mode_chase_color)
    [Anonymous Symbol]                       0x08003170   Section        0  ws2812b_fx.o(.text.mode_chase_flash)
    __arm_cp.37_0                            0x08003244   Number         4  ws2812b_fx.o(.text.mode_chase_flash)
    [Anonymous Symbol]                       0x08003248   Section        0  ws2812b_fx.o(.text.mode_chase_flash_random)
    [Anonymous Symbol]                       0x08003340   Section        0  ws2812b_fx.o(.text.mode_chase_rainbow)
    [Anonymous Symbol]                       0x08003380   Section        0  ws2812b_fx.o(.text.mode_chase_rainbow_white)
    __arm_cp.39_0                            0x080033dc   Number         4  ws2812b_fx.o(.text.mode_chase_rainbow_white)
    __arm_cp.39_1                            0x080033e0   Number         4  ws2812b_fx.o(.text.mode_chase_rainbow_white)
    [Anonymous Symbol]                       0x080033e4   Section        0  ws2812b_fx.o(.text.mode_chase_random)
    __arm_cp.35_0                            0x08003434   Number         4  ws2812b_fx.o(.text.mode_chase_random)
    [Anonymous Symbol]                       0x08003438   Section        0  ws2812b_fx.o(.text.mode_chase_white)
    [Anonymous Symbol]                       0x08003454   Section        0  ws2812b_fx.o(.text.mode_circus_combustus)
    [Anonymous Symbol]                       0x08003464   Section        0  ws2812b_fx.o(.text.mode_color_sweep_random)
    [Anonymous Symbol]                       0x080034c0   Section        0  ws2812b_fx.o(.text.mode_color_wipe)
    __arm_cp.8_0                             0x080034d8   Number         4  ws2812b_fx.o(.text.mode_color_wipe)
    [Anonymous Symbol]                       0x080034dc   Section        0  ws2812b_fx.o(.text.mode_color_wipe_inv)
    __arm_cp.9_0                             0x080034f4   Number         4  ws2812b_fx.o(.text.mode_color_wipe_inv)
    [Anonymous Symbol]                       0x080034f8   Section        0  ws2812b_fx.o(.text.mode_color_wipe_random)
    [Anonymous Symbol]                       0x08003564   Section        0  ws2812b_fx.o(.text.mode_color_wipe_rev)
    __arm_cp.10_0                            0x0800357c   Number         4  ws2812b_fx.o(.text.mode_color_wipe_rev)
    [Anonymous Symbol]                       0x08003580   Section        0  ws2812b_fx.o(.text.mode_color_wipe_rev_inv)
    [Anonymous Symbol]                       0x08003598   Section        0  ws2812b_fx.o(.text.mode_comet)
    __arm_cp.46_0                            0x080035f0   Number         4  ws2812b_fx.o(.text.mode_comet)
    [Anonymous Symbol]                       0x080035f4   Section        0  ws2812b_fx.o(.text.mode_dual_scan)
    [Anonymous Symbol]                       0x080036a0   Section        0  ws2812b_fx.o(.text.mode_fade)
    __arm_cp.19_0                            0x08003710   Number         4  ws2812b_fx.o(.text.mode_fade)
    [Anonymous Symbol]                       0x08003714   Section        0  ws2812b_fx.o(.text.mode_fire_flicker)
    [Anonymous Symbol]                       0x0800371a   Section        0  ws2812b_fx.o(.text.mode_fire_flicker_intense)
    [Anonymous Symbol]                       0x08003720   Section        0  ws2812b_fx.o(.text.mode_fire_flicker_soft)
    [Anonymous Symbol]                       0x08003728   Section        0  ws2812b_fx.o(.text.mode_fireworks)
    __arm_cp.47_0                            0x0800373c   Number         4  ws2812b_fx.o(.text.mode_fireworks)
    [Anonymous Symbol]                       0x08003740   Section        0  ws2812b_fx.o(.text.mode_fireworks_random)
    [Anonymous Symbol]                       0x08003754   Section        0  ws2812b_fx.o(.text.mode_flash_sparkle)
    __arm_cp.30_0                            0x08003808   Number         4  ws2812b_fx.o(.text.mode_flash_sparkle)
    [Anonymous Symbol]                       0x0800380c   Section        0  ws2812b_fx.o(.text.mode_halloween)
    __arm_cp.54_0                            0x08003814   Number         4  ws2812b_fx.o(.text.mode_halloween)
    __arm_cp.54_1                            0x08003818   Number         4  ws2812b_fx.o(.text.mode_halloween)
    [Anonymous Symbol]                       0x0800381c   Section        0  ws2812b_fx.o(.text.mode_hyper_sparkle)
    __arm_cp.31_0                            0x080038e0   Number         4  ws2812b_fx.o(.text.mode_hyper_sparkle)
    [Anonymous Symbol]                       0x080038e4   Section        0  ws2812b_fx.o(.text.mode_icu)
    __arm_cp.57_0                            0x08003a88   Number         4  ws2812b_fx.o(.text.mode_icu)
    [Anonymous Symbol]                       0x08003a8c   Section        0  ws2812b_fx.o(.text.mode_larson_scanner)
    __arm_cp.45_0                            0x08003b1c   Number         4  ws2812b_fx.o(.text.mode_larson_scanner)
    [Anonymous Symbol]                       0x08003b20   Section        0  ws2812b_fx.o(.text.mode_merry_christmas)
    [Anonymous Symbol]                       0x08003b2c   Section        0  ws2812b_fx.o(.text.mode_multi_dynamic)
    __arm_cp.16_0                            0x08003b74   Number         4  ws2812b_fx.o(.text.mode_multi_dynamic)
    [Anonymous Symbol]                       0x08003b78   Section        0  ws2812b_fx.o(.text.mode_multi_strobe)
    [Anonymous Symbol]                       0x08003c40   Section        0  ws2812b_fx.o(.text.mode_rainbow)
    __arm_cp.17_0                            0x08003c9c   Number         4  ws2812b_fx.o(.text.mode_rainbow)
    [Anonymous Symbol]                       0x08003ca0   Section        0  ws2812b_fx.o(.text.mode_rainbow_cycle)
    [Anonymous Symbol]                       0x08003cf0   Section        0  ws2812b_fx.o(.text.mode_random_color)
    [Anonymous Symbol]                       0x08003d48   Section        0  ws2812b_fx.o(.text.mode_running_color)
    [Anonymous Symbol]                       0x08003d60   Section        0  ws2812b_fx.o(.text.mode_running_lights)
    __arm_cp.24_0                            0x08003e08   Number         4  ws2812b_fx.o(.text.mode_running_lights)
    [Anonymous Symbol]                       0x08003e0c   Section        0  ws2812b_fx.o(.text.mode_running_random)
    __arm_cp.44_0                            0x08003ebc   Number         4  ws2812b_fx.o(.text.mode_running_random)
    [Anonymous Symbol]                       0x08003ec0   Section        0  ws2812b_fx.o(.text.mode_running_red_blue)
    [Anonymous Symbol]                       0x08003ecc   Section        0  ws2812b_fx.o(.text.mode_scan)
    __arm_cp.20_0                            0x08003f68   Number         4  ws2812b_fx.o(.text.mode_scan)
    [Anonymous Symbol]                       0x08003f6c   Section        0  ws2812b_fx.o(.text.mode_single_dynamic)
    [Anonymous Symbol]                       0x08004008   Section        0  ws2812b_fx.o(.text.mode_sparkle)
    __arm_cp.29_0                            0x08004068   Number         4  ws2812b_fx.o(.text.mode_sparkle)
    [Anonymous Symbol]                       0x0800406c   Section        0  ws2812b_fx.o(.text.mode_static)
    [Anonymous Symbol]                       0x080040b8   Section        0  ws2812b_fx.o(.text.mode_strobe)
    __arm_cp.5_0                             0x080040d0   Number         4  ws2812b_fx.o(.text.mode_strobe)
    [Anonymous Symbol]                       0x080040d4   Section        0  ws2812b_fx.o(.text.mode_strobe_rainbow)
    [Anonymous Symbol]                       0x080040f8   Section        0  ws2812b_fx.o(.text.mode_theater_chase)
    __arm_cp.22_0                            0x08004110   Number         4  ws2812b_fx.o(.text.mode_theater_chase)
    [Anonymous Symbol]                       0x08004114   Section        0  ws2812b_fx.o(.text.mode_theater_chase_rainbow)
    [Anonymous Symbol]                       0x0800413c   Section        0  ws2812b_fx.o(.text.mode_tricolor_chase)
    [Anonymous Symbol]                       0x08004154   Section        0  ws2812b_fx.o(.text.mode_twinkle)
    [Anonymous Symbol]                       0x0800416c   Section        0  ws2812b_fx.o(.text.mode_twinkle_fade)
    [Anonymous Symbol]                       0x08004180   Section        0  ws2812b_fx.o(.text.mode_twinkle_fade_random)
    [Anonymous Symbol]                       0x08004194   Section        0  ws2812b_fx.o(.text.mode_twinkle_random)
    __arm_cp.26_0                            0x080041b8   Number         4  ws2812b_fx.o(.text.mode_twinkle_random)
    [Anonymous Symbol]                       0x080041bc   Section        0  ws2812b_fx.o(.text.mode_white_to_color)
    [Anonymous Symbol]                       0x080041c4   Section        0  ws2812b_fx.o(.text.running)
    __arm_cp.105_0                           0x08004240   Number         4  ws2812b_fx.o(.text.running)
    [Anonymous Symbol]                       0x08004244   Section        0  ws2812b.o(.text.sine8)
    __arm_cp.10_0                            0x0800424c   Number         4  ws2812b.o(.text.sine8)
    [Anonymous Symbol]                       0x08004250   Section        0  ws2812b_fx.o(.text.theater_chase)
    __arm_cp.101_0                           0x080042e0   Number         4  ws2812b_fx.o(.text.theater_chase)
    [Anonymous Symbol]                       0x080042e4   Section        0  ws2812b_fx.o(.text.to_color)
    __arm_cp.98_0                            0x080043f4   Number         4  ws2812b_fx.o(.text.to_color)
    [Anonymous Symbol]                       0x080043f8   Section        0  ws2812b_fx.o(.text.tricolor_chase)
    __arm_cp.108_0                           0x08004484   Number         4  ws2812b_fx.o(.text.tricolor_chase)
    [Anonymous Symbol]                       0x08004488   Section        0  ws2812b_fx.o(.text.twinkle)
    __arm_cp.102_0                           0x08004534   Number         4  ws2812b_fx.o(.text.twinkle)
    [Anonymous Symbol]                       0x08004538   Section        0  ws2812b_fx.o(.text.twinkle_fade)
    __arm_cp.103_0                           0x080045a4   Number         4  ws2812b_fx.o(.text.twinkle_fade)
    i.__0printf$1                            0x080045a8   Section        0  printf1.o(i.__0printf$1)
    i.__aeabi_errno_addr                     0x080045c8   Section        0  errno.o(i.__aeabi_errno_addr)
    i.__scatterload_copy                     0x080045d0   Section       14  handlers.o(i.__scatterload_copy)
    i.__scatterload_null                     0x080045de   Section        2  handlers.o(i.__scatterload_null)
    i.__scatterload_zeroinit                 0x080045e0   Section       14  handlers.o(i.__scatterload_zeroinit)
    _printf_core                             0x080045f1   Thumb Code   336  printf1.o(i._printf_core)
    i._printf_core                           0x080045f0   Section        0  printf1.o(i._printf_core)
    i.free                                   0x08004744   Section        0  malloc.o(i.free)
    i.malloc                                 0x08004794   Section        0  malloc.o(i.malloc)
    .constdata                               0x08004800   Section      129  ctype_o.o(.constdata)
    table                                    0x08004884   Data           4  ctype_o.o(.constdata)
    .constdata                               0x08004884   Section        4  ctype_o.o(.constdata)
    _sineTable                               0x080048a0   Data         256  ws2812b.o(.rodata._sineTable)
    [Anonymous Symbol]                       0x080048a0   Section        0  ws2812b.o(.rodata._sineTable)
    .L.str.3                                 0x080049a0   Data           4  main.o(.rodata.str1.1)
    [Anonymous Symbol]                       0x080049a0   Section        0  main.o(.rodata.str1.1)
    .L.str.1                                 0x080049a1   Data           3  main.o(.rodata.str1.1)
    .L.str                                   0x080049a4   Data           3  main.o(.rodata.str1.1)
    _rand_state                              0x20000000   Data           4  rand.o(.data)
    .data                                    0x20000000   Section        4  rand.o(.data)
    .data                                    0x20000004   Section        4  mvars.o(.data)
    .data                                    0x20000008   Section        4  mvars.o(.data)
    _errno                                   0x2000000c   Data           4  errno.o(.data)
    .data                                    0x2000000c   Section        4  errno.o(.data)
    [Anonymous Symbol]                       0x20000010   Section        0  main.o(.data..L_MergedGlobals)
    [Anonymous Symbol]                       0x20000030   Section        0  stm32f1xx_hal.o(.data..L_MergedGlobals)
    ResetSignal                              0x20000128   Data           1  ws2812b.o(.bss..L_MergedGlobals)
    [Anonymous Symbol]                       0x20000128   Section        0  ws2812b.o(.bss..L_MergedGlobals)
    CurrentLed                               0x2000012a   Data           2  ws2812b.o(.bss..L_MergedGlobals)
    buffer                                   0x20000130   Data          48  ws2812b.o(.bss..L_MergedGlobals)
    WS2812BFX_Callback.trig                  0x20000160   Data           1  ws2812b_fx.o(.bss..L_MergedGlobals)
    [Anonymous Symbol]                       0x20000160   Section        0  ws2812b_fx.o(.bss..L_MergedGlobals)
    [Anonymous Symbol]                       0x20000184   Section        0  gpio.o(.bss..L_MergedGlobals)
    [Anonymous Symbol]                       0x20000188   Section        0  usart.o(.bss..L_MergedGlobals)
    [Anonymous Symbol]                       0x2000018c   Section        0  main.o(.bss..L_MergedGlobals.6)
    HEAP                                     0x20000668   Section      512  startup_stm32f103xb.o(HEAP)
    STACK                                    0x20000868   Section     1024  startup_stm32f103xb.o(STACK)

    Global Symbols

    Symbol Name                              Value     Ov Type        Size  Object(Section)

    BuildAttributes$$THM_ISAv4$P$D$K$B$S$PE$A:L22UL41UL21$X:L11$S22US41US21$IEEE1$IW$~IW$USESV6$~STKCKD$USESV7$~SHL$OSPACE$ROPI$EBA8$MICROLIB$REQ8$PRES8$EABIv2 0x00000000   Number         0  anon$$obj.o ABSOLUTE
    _printf_a                                0x00000000   Number         0  printfstubs.o ABSOLUTE
    _printf_c                                0x00000000   Number         0  printfstubs.o ABSOLUTE
    _printf_charcount                        0x00000000   Number         0  printfstubs.o ABSOLUTE
    _printf_d                                0x00000000   Number         0  printfstubs.o ABSOLUTE
    _printf_e                                0x00000000   Number         0  printfstubs.o ABSOLUTE
    _printf_f                                0x00000000   Number         0  printfstubs.o ABSOLUTE
    _printf_flags                            0x00000000   Number         0  printfstubs.o ABSOLUTE
    _printf_fp_dec                           0x00000000   Number         0  printfstubs.o ABSOLUTE
    _printf_fp_hex                           0x00000000   Number         0  printfstubs.o ABSOLUTE
    _printf_g                                0x00000000   Number         0  printfstubs.o ABSOLUTE
    _printf_i                                0x00000000   Number         0  printfstubs.o ABSOLUTE
    _printf_int_dec                          0x00000000   Number         0  printfstubs.o ABSOLUTE
    _printf_l                                0x00000000   Number         0  printfstubs.o ABSOLUTE
    _printf_lc                               0x00000000   Number         0  printfstubs.o ABSOLUTE
    _printf_ll                               0x00000000   Number         0  printfstubs.o ABSOLUTE
    _printf_lld                              0x00000000   Number         0  printfstubs.o ABSOLUTE
    _printf_lli                              0x00000000   Number         0  printfstubs.o ABSOLUTE
    _printf_llo                              0x00000000   Number         0  printfstubs.o ABSOLUTE
    _printf_llu                              0x00000000   Number         0  printfstubs.o ABSOLUTE
    _printf_llx                              0x00000000   Number         0  printfstubs.o ABSOLUTE
    _printf_longlong_dec                     0x00000000   Number         0  printfstubs.o ABSOLUTE
    _printf_longlong_hex                     0x00000000   Number         0  printfstubs.o ABSOLUTE
    _printf_longlong_oct                     0x00000000   Number         0  printfstubs.o ABSOLUTE
    _printf_ls                               0x00000000   Number         0  printfstubs.o ABSOLUTE
    _printf_mbtowc                           0x00000000   Number         0  printfstubs.o ABSOLUTE
    _printf_n                                0x00000000   Number         0  printfstubs.o ABSOLUTE
    _printf_o                                0x00000000   Number         0  printfstubs.o ABSOLUTE
    _printf_p                                0x00000000   Number         0  printfstubs.o ABSOLUTE
    _printf_percent                          0x00000000   Number         0  printfstubs.o ABSOLUTE
    _printf_pre_padding                      0x00000000   Number         0  printfstubs.o ABSOLUTE
    _printf_return_value                     0x00000000   Number         0  printfstubs.o ABSOLUTE
    _printf_s                                0x00000000   Number         0  printfstubs.o ABSOLUTE
    _printf_sizespec                         0x00000000   Number         0  printfstubs.o ABSOLUTE
    _printf_str                              0x00000000   Number         0  printfstubs.o ABSOLUTE
    _printf_truncate_signed                  0x00000000   Number         0  printfstubs.o ABSOLUTE
    _printf_truncate_unsigned                0x00000000   Number         0  printfstubs.o ABSOLUTE
    _printf_u                                0x00000000   Number         0  printfstubs.o ABSOLUTE
    _printf_wc                               0x00000000   Number         0  printfstubs.o ABSOLUTE
    _printf_wctomb                           0x00000000   Number         0  printfstubs.o ABSOLUTE
    _printf_widthprec                        0x00000000   Number         0  printfstubs.o ABSOLUTE
    _printf_x                                0x00000000   Number         0  printfstubs.o ABSOLUTE
    __cpp_initialize__aeabi_                  - Undefined Weak Reference
    __cxa_finalize                            - Undefined Weak Reference
    __decompress                              - Undefined Weak Reference
    _clock_init                               - Undefined Weak Reference
    _microlib_exit                            - Undefined Weak Reference
    __Vectors_Size                           0x000000ec   Number         0  startup_stm32f103xb.o ABSOLUTE
    __Vectors                                0x08000000   Data           4  startup_stm32f103xb.o(RESET)
    __Vectors_End                            0x080000ec   Data           0  startup_stm32f103xb.o(RESET)
    __main                                   0x080000ed   Thumb Code     0  entry.o(.ARM.Collect$$$$00000000)
    _main_stk                                0x080000ed   Thumb Code     0  entry2.o(.ARM.Collect$$$$00000001)
    _main_scatterload                        0x080000f1   Thumb Code     0  entry5.o(.ARM.Collect$$$$00000004)
    __main_after_scatterload                 0x080000f5   Thumb Code     0  entry5.o(.ARM.Collect$$$$00000004)
    _main_clock                              0x080000f5   Thumb Code     0  entry7b.o(.ARM.Collect$$$$00000008)
    _main_cpp_init                           0x080000f5   Thumb Code     0  entry8b.o(.ARM.Collect$$$$0000000A)
    _main_init                               0x080000f5   Thumb Code     0  entry9a.o(.ARM.Collect$$$$0000000B)
    __rt_final_cpp                           0x080000fd   Thumb Code     0  entry10a.o(.ARM.Collect$$$$0000000D)
    __rt_final_exit                          0x080000fd   Thumb Code     0  entry11a.o(.ARM.Collect$$$$0000000F)
    Reset_Handler                            0x08000101   Thumb Code     8  startup_stm32f103xb.o(.text)
    ADC1_2_IRQHandler                        0x0800011b   Thumb Code     0  startup_stm32f103xb.o(.text)
    CAN1_RX1_IRQHandler                      0x0800011b   Thumb Code     0  startup_stm32f103xb.o(.text)
    CAN1_SCE_IRQHandler                      0x0800011b   Thumb Code     0  startup_stm32f103xb.o(.text)
    DMA1_Channel1_IRQHandler                 0x0800011b   Thumb Code     0  startup_stm32f103xb.o(.text)
    DMA1_Channel2_IRQHandler                 0x0800011b   Thumb Code     0  startup_stm32f103xb.o(.text)
    DMA1_Channel4_IRQHandler                 0x0800011b   Thumb Code     0  startup_stm32f103xb.o(.text)
    DMA1_Channel5_IRQHandler                 0x0800011b   Thumb Code     0  startup_stm32f103xb.o(.text)
    DMA1_Channel6_IRQHandler                 0x0800011b   Thumb Code     0  startup_stm32f103xb.o(.text)
    DMA1_Channel7_IRQHandler                 0x0800011b   Thumb Code     0  startup_stm32f103xb.o(.text)
    EXTI0_IRQHandler                         0x0800011b   Thumb Code     0  startup_stm32f103xb.o(.text)
    EXTI1_IRQHandler                         0x0800011b   Thumb Code     0  startup_stm32f103xb.o(.text)
    EXTI2_IRQHandler                         0x0800011b   Thumb Code     0  startup_stm32f103xb.o(.text)
    EXTI3_IRQHandler                         0x0800011b   Thumb Code     0  startup_stm32f103xb.o(.text)
    EXTI4_IRQHandler                         0x0800011b   Thumb Code     0  startup_stm32f103xb.o(.text)
    EXTI9_5_IRQHandler                       0x0800011b   Thumb Code     0  startup_stm32f103xb.o(.text)
    FLASH_IRQHandler                         0x0800011b   Thumb Code     0  startup_stm32f103xb.o(.text)
    I2C1_ER_IRQHandler                       0x0800011b   Thumb Code     0  startup_stm32f103xb.o(.text)
    I2C1_EV_IRQHandler                       0x0800011b   Thumb Code     0  startup_stm32f103xb.o(.text)
    I2C2_ER_IRQHandler                       0x0800011b   Thumb Code     0  startup_stm32f103xb.o(.text)
    I2C2_EV_IRQHandler                       0x0800011b   Thumb Code     0  startup_stm32f103xb.o(.text)
    PVD_IRQHandler                           0x0800011b   Thumb Code     0  startup_stm32f103xb.o(.text)
    RCC_IRQHandler                           0x0800011b   Thumb Code     0  startup_stm32f103xb.o(.text)
    RTC_Alarm_IRQHandler                     0x0800011b   Thumb Code     0  startup_stm32f103xb.o(.text)
    RTC_IRQHandler                           0x0800011b   Thumb Code     0  startup_stm32f103xb.o(.text)
    SPI1_IRQHandler                          0x0800011b   Thumb Code     0  startup_stm32f103xb.o(.text)
    SPI2_IRQHandler                          0x0800011b   Thumb Code     0  startup_stm32f103xb.o(.text)
    TAMPER_IRQHandler                        0x0800011b   Thumb Code     0  startup_stm32f103xb.o(.text)
    TIM1_BRK_IRQHandler                      0x0800011b   Thumb Code     0  startup_stm32f103xb.o(.text)
    TIM1_CC_IRQHandler                       0x0800011b   Thumb Code     0  startup_stm32f103xb.o(.text)
    TIM1_TRG_COM_IRQHandler                  0x0800011b   Thumb Code     0  startup_stm32f103xb.o(.text)
    TIM1_UP_IRQHandler                       0x0800011b   Thumb Code     0  startup_stm32f103xb.o(.text)
    TIM3_IRQHandler                          0x0800011b   Thumb Code     0  startup_stm32f103xb.o(.text)
    TIM4_IRQHandler                          0x0800011b   Thumb Code     0  startup_stm32f103xb.o(.text)
    USBWakeUp_IRQHandler                     0x0800011b   Thumb Code     0  startup_stm32f103xb.o(.text)
    USB_HP_CAN1_TX_IRQHandler                0x0800011b   Thumb Code     0  startup_stm32f103xb.o(.text)
    USB_LP_CAN1_RX0_IRQHandler               0x0800011b   Thumb Code     0  startup_stm32f103xb.o(.text)
    WWDG_IRQHandler                          0x0800011b   Thumb Code     0  startup_stm32f103xb.o(.text)
    rand                                     0x08000125   Thumb Code    20  rand.o(.text)
    srand                                    0x08000139   Thumb Code     6  rand.o(.text)
    __aeabi_memset                           0x08000149   Thumb Code    14  memseta.o(.text)
    __aeabi_memset4                          0x08000149   Thumb Code     0  memseta.o(.text)
    __aeabi_memset8                          0x08000149   Thumb Code     0  memseta.o(.text)
    __aeabi_memclr                           0x08000157   Thumb Code     4  memseta.o(.text)
    __aeabi_memclr4                          0x08000157   Thumb Code     0  memseta.o(.text)
    __aeabi_memclr8                          0x08000157   Thumb Code     0  memseta.o(.text)
    _memset$wrapper                          0x0800015b   Thumb Code    18  memseta.o(.text)
    calloc                                   0x0800016d   Thumb Code    28  calloc.o(.text)
    atoi                                     0x08000189   Thumb Code    26  atoi.o(.text)
    __aeabi_uidiv                            0x080001a3   Thumb Code     0  uidiv.o(.text)
    __aeabi_uidivmod                         0x080001a3   Thumb Code    44  uidiv.o(.text)
    strtol                                   0x080001cf   Thumb Code   112  strtol.o(.text)
    __scatterload                            0x08000241   Thumb Code    28  init.o(.text)
    __scatterload_rt2                        0x08000241   Thumb Code     0  init.o(.text)
    __rt_ctype_table                         0x08000265   Thumb Code     4  ctype_o.o(.text)
    _strtoul                                 0x0800026d   Thumb Code   158  _strtoul.o(.text)
    _chval                                   0x0800030b   Thumb Code    28  _chval.o(.text)
    BusFault_Handler                         0x08000327   Thumb Code     2  stm32f1xx_it.o(.text.BusFault_Handler)
    DMA1_Channel3_IRQHandler                 0x08000329   Thumb Code    12  stm32f1xx_it.o(.text.DMA1_Channel3_IRQHandler)
    DebugMon_Handler                         0x0800035b   Thumb Code     2  stm32f1xx_it.o(.text.DebugMon_Handler)
    ENCODER_READ                             0x0800035d   Thumb Code   272  gpio.o(.text.ENCODER_READ)
    EXTI15_10_IRQHandler                     0x0800046d   Thumb Code     8  stm32f1xx_it.o(.text.EXTI15_10_IRQHandler)
    Error_Handler                            0x08000475   Thumb Code     2  main.o(.text.Error_Handler)
    HAL_DMA_Abort                            0x08000477   Thumb Code    62  stm32f1xx_hal_dma.o(.text.HAL_DMA_Abort)
    HAL_DMA_Abort_IT                         0x080004b5   Thumb Code   128  stm32f1xx_hal_dma.o(.text.HAL_DMA_Abort_IT)
    HAL_DMA_GetState                         0x08000535   Thumb Code     6  stm32f1xx_hal_dma.o(.text.HAL_DMA_GetState)
    HAL_DMA_IRQHandler                       0x0800053d   Thumb Code   308  stm32f1xx_hal_dma.o(.text.HAL_DMA_IRQHandler)
    HAL_DMA_Init                             0x08000671   Thumb Code   100  stm32f1xx_hal_dma.o(.text.HAL_DMA_Init)
    HAL_DMA_Start_IT                         0x080006d5   Thumb Code   102  stm32f1xx_hal_dma.o(.text.HAL_DMA_Start_IT)
    HAL_Delay                                0x0800073d   Thumb Code    32  stm32f1xx_hal.o(.text.HAL_Delay)
    HAL_GPIO_EXTI_Callback                   0x0800075d   Thumb Code     2  stm32f1xx_hal_gpio.o(.text.HAL_GPIO_EXTI_Callback)
    HAL_GPIO_EXTI_IRQHandler                 0x08000761   Thumb Code    20  stm32f1xx_hal_gpio.o(.text.HAL_GPIO_EXTI_IRQHandler)
    HAL_GPIO_Init                            0x08000775   Thumb Code   412  stm32f1xx_hal_gpio.o(.text.HAL_GPIO_Init)
    HAL_GPIO_ReadPin                         0x08000911   Thumb Code    10  stm32f1xx_hal_gpio.o(.text.HAL_GPIO_ReadPin)
    HAL_GPIO_WritePin                        0x0800091b   Thumb Code    10  stm32f1xx_hal_gpio.o(.text.HAL_GPIO_WritePin)
    HAL_GetTick                              0x08000925   Thumb Code     8  stm32f1xx_hal.o(.text.HAL_GetTick)
    HAL_IncTick                              0x0800092d   Thumb Code    20  stm32f1xx_hal.o(.text.HAL_IncTick)
    HAL_Init                                 0x08000941   Thumb Code    32  stm32f1xx_hal.o(.text.HAL_Init)
    HAL_InitTick                             0x08000961   Thumb Code    60  stm32f1xx_hal.o(.text.HAL_InitTick)
    HAL_MspInit                              0x0800099d   Thumb Code    64  stm32f1xx_hal_msp.o(.text.HAL_MspInit)
    HAL_NVIC_EnableIRQ                       0x080009dd   Thumb Code    28  stm32f1xx_hal_cortex.o(.text.HAL_NVIC_EnableIRQ)
    HAL_NVIC_SetPriority                     0x080009f9   Thumb Code    56  stm32f1xx_hal_cortex.o(.text.HAL_NVIC_SetPriority)
    HAL_NVIC_SetPriorityGrouping             0x08000a31   Thumb Code    32  stm32f1xx_hal_cortex.o(.text.HAL_NVIC_SetPriorityGrouping)
    HAL_RCC_ClockConfig                      0x08000a51   Thumb Code   312  stm32f1xx_hal_rcc.o(.text.HAL_RCC_ClockConfig)
    HAL_RCC_GetPCLK1Freq                     0x08000b89   Thumb Code    20  stm32f1xx_hal_rcc.o(.text.HAL_RCC_GetPCLK1Freq)
    HAL_RCC_GetPCLK2Freq                     0x08000b9d   Thumb Code    28  stm32f1xx_hal_rcc.o(.text.HAL_RCC_GetPCLK2Freq)
    HAL_RCC_GetSysClockFreq                  0x08000bb9   Thumb Code    84  stm32f1xx_hal_rcc.o(.text.HAL_RCC_GetSysClockFreq)
    HAL_RCC_OscConfig                        0x08000c0d   Thumb Code   820  stm32f1xx_hal_rcc.o(.text.HAL_RCC_OscConfig)
    HAL_SPI_DMAStop                          0x08000f41   Thumb Code    68  stm32f1xx_hal_spi.o(.text.HAL_SPI_DMAStop)
    HAL_SPI_ErrorCallback                    0x08000f85   Thumb Code     2  stm32f1xx_hal_spi.o(.text.HAL_SPI_ErrorCallback)
    HAL_SPI_Init                             0x08000f87   Thumb Code   116  stm32f1xx_hal_spi.o(.text.HAL_SPI_Init)
    HAL_SPI_MspInit                          0x08000ffd   Thumb Code   152  spi.o(.text.HAL_SPI_MspInit)
    HAL_SPI_Transmit_DMA                     0x08001095   Thumb Code   180  stm32f1xx_hal_spi.o(.text.HAL_SPI_Transmit_DMA)
    HAL_SPI_TxCpltCallback                   0x08001149   Thumb Code   172  ws2812b.o(.text.HAL_SPI_TxCpltCallback)
    HAL_SPI_TxHalfCpltCallback               0x080011f5   Thumb Code   200  ws2812b.o(.text.HAL_SPI_TxHalfCpltCallback)
    HAL_SYSTICK_Callback                     0x080012bd   Thumb Code     4  main.o(.text.HAL_SYSTICK_Callback)
    HAL_SYSTICK_Config                       0x080012c1   Thumb Code    40  stm32f1xx_hal_cortex.o(.text.HAL_SYSTICK_Config)
    HAL_TIMEx_BreakCallback                  0x080012e9   Thumb Code     2  stm32f1xx_hal_tim_ex.o(.text.HAL_TIMEx_BreakCallback)
    HAL_TIMEx_CommutCallback                 0x080012eb   Thumb Code     2  stm32f1xx_hal_tim_ex.o(.text.HAL_TIMEx_CommutCallback)
    HAL_TIMEx_MasterConfigSynchronization    0x080012ed   Thumb Code    58  stm32f1xx_hal_tim_ex.o(.text.HAL_TIMEx_MasterConfigSynchronization)
    HAL_TIM_Base_Init                        0x08001327   Thumb Code    52  stm32f1xx_hal_tim.o(.text.HAL_TIM_Base_Init)
    HAL_TIM_Base_MspInit                     0x0800135d   Thumb Code    56  tim.o(.text.HAL_TIM_Base_MspInit)
    HAL_TIM_ConfigClockSource                0x08001395   Thumb Code   244  stm32f1xx_hal_tim.o(.text.HAL_TIM_ConfigClockSource)
    HAL_TIM_IC_CaptureCallback               0x08001489   Thumb Code     2  stm32f1xx_hal_tim.o(.text.HAL_TIM_IC_CaptureCallback)
    HAL_TIM_IRQHandler                       0x0800148b   Thumb Code   364  stm32f1xx_hal_tim.o(.text.HAL_TIM_IRQHandler)
    HAL_TIM_OC_DelayElapsedCallback          0x080015f7   Thumb Code     2  stm32f1xx_hal_tim.o(.text.HAL_TIM_OC_DelayElapsedCallback)
    HAL_TIM_PWM_PulseFinishedCallback        0x080015f9   Thumb Code     2  stm32f1xx_hal_tim.o(.text.HAL_TIM_PWM_PulseFinishedCallback)
    HAL_TIM_PeriodElapsedCallback            0x080015fb   Thumb Code     2  stm32f1xx_hal_tim.o(.text.HAL_TIM_PeriodElapsedCallback)
    HAL_TIM_TriggerCallback                  0x080015fd   Thumb Code     2  stm32f1xx_hal_tim.o(.text.HAL_TIM_TriggerCallback)
    HAL_UART_ErrorCallback                   0x080015ff   Thumb Code     2  stm32f1xx_hal_uart.o(.text.HAL_UART_ErrorCallback)
    HAL_UART_IRQHandler                      0x08001601   Thumb Code   332  stm32f1xx_hal_uart.o(.text.HAL_UART_IRQHandler)
    HAL_UART_Init                            0x0800174d   Thumb Code    92  stm32f1xx_hal_uart.o(.text.HAL_UART_Init)
    HAL_UART_MspInit                         0x080017a9   Thumb Code   332  usart.o(.text.HAL_UART_MspInit)
    HAL_UART_Receive_IT                      0x080018f5   Thumb Code    78  stm32f1xx_hal_uart.o(.text.HAL_UART_Receive_IT)
    HAL_UART_RxCpltCallback                  0x08001945   Thumb Code    80  usart.o(.text.HAL_UART_RxCpltCallback)
    HAL_UART_TxCpltCallback                  0x08001995   Thumb Code     2  stm32f1xx_hal_uart.o(.text.HAL_UART_TxCpltCallback)
    HardFault_Handler                        0x08001997   Thumb Code     2  stm32f1xx_it.o(.text.HardFault_Handler)
    MX_DMA_Init                              0x08001999   Thumb Code    48  dma.o(.text.MX_DMA_Init)
    MX_GPIO_Init                             0x080019c9   Thumb Code   168  gpio.o(.text.MX_GPIO_Init)
    MX_SPI1_Init                             0x08001a71   Thumb Code    68  spi.o(.text.MX_SPI1_Init)
    MX_TIM2_Init                             0x08001ab5   Thumb Code   100  tim.o(.text.MX_TIM2_Init)
    MX_USART1_UART_Init                      0x08001b19   Thumb Code    56  usart.o(.text.MX_USART1_UART_Init)
    MX_USART2_UART_Init                      0x08001b51   Thumb Code    56  usart.o(.text.MX_USART2_UART_Init)
    MX_USART3_UART_Init                      0x08001b89   Thumb Code    56  usart.o(.text.MX_USART3_UART_Init)
    MemManage_Handler                        0x08001bc1   Thumb Code     2  stm32f1xx_it.o(.text.MemManage_Handler)
    NMI_Handler                              0x08001bc3   Thumb Code     2  stm32f1xx_it.o(.text.NMI_Handler)
    PendSV_Handler                           0x08001bc5   Thumb Code     2  stm32f1xx_it.o(.text.PendSV_Handler)
    SVC_Handler                              0x08001cf9   Thumb Code     2  stm32f1xx_it.o(.text.SVC_Handler)
    SysTick_Handler                          0x08001cfb   Thumb Code    14  stm32f1xx_it.o(.text.SysTick_Handler)
    SystemClock_Config                       0x08001d09   Thumb Code    74  main.o(.text.SystemClock_Config)
    SystemInit                               0x08001d55   Thumb Code    76  system_stm32f1xx.o(.text.SystemInit)
    TIM2_IRQHandler                          0x08001da1   Thumb Code    12  stm32f1xx_it.o(.text.TIM2_IRQHandler)
    TIM_Base_SetConfig                       0x08001dad   Thumb Code   112  stm32f1xx_hal_tim.o(.text.TIM_Base_SetConfig)
    TODO                                     0x08001e61   Thumb Code   432  main.o(.text.TODO)
    USART1_IRQHandler                        0x0800212d   Thumb Code   104  stm32f1xx_it.o(.text.USART1_IRQHandler)
    USART2_IRQHandler                        0x08002195   Thumb Code    12  stm32f1xx_it.o(.text.USART2_IRQHandler)
    USART3_IRQHandler                        0x080021a1   Thumb Code   104  stm32f1xx_it.o(.text.USART3_IRQHandler)
    UsageFault_Handler                       0x08002209   Thumb Code     2  stm32f1xx_it.o(.text.UsageFault_Handler)
    WS2812BFX_Callback                       0x0800220d   Thumb Code    76  ws2812b_fx.o(.text.WS2812BFX_Callback)
    WS2812BFX_HSVtoRGB                       0x08002259   Thumb Code   172  ws2812b_fx.o(.text.WS2812BFX_HSVtoRGB)
    WS2812BFX_Init                           0x08002305   Thumb Code   428  ws2812b_fx.o(.text.WS2812BFX_Init)
    WS2812BFX_NextMode                       0x080024b1   Thumb Code    80  ws2812b_fx.o(.text.WS2812BFX_NextMode)
    WS2812BFX_PrevMode                       0x08002501   Thumb Code    84  ws2812b_fx.o(.text.WS2812BFX_PrevMode)
    WS2812BFX_RGBtoHSV                       0x08002555   Thumb Code   152  ws2812b_fx.o(.text.WS2812BFX_RGBtoHSV)
    WS2812BFX_SetAll                         0x080025ed   Thumb Code    84  ws2812b_fx.o(.text.WS2812BFX_SetAll)
    WS2812BFX_SetAllRGB                      0x08002641   Thumb Code    84  ws2812b_fx.o(.text.WS2812BFX_SetAllRGB)
    WS2812BFX_SetColorHSV                    0x08002695   Thumb Code    64  ws2812b_fx.o(.text.WS2812BFX_SetColorHSV)
    WS2812BFX_SetColorRGB                    0x080026d5   Thumb Code    32  ws2812b_fx.o(.text.WS2812BFX_SetColorRGB)
    WS2812BFX_SetMode                        0x080026f5   Thumb Code    96  ws2812b_fx.o(.text.WS2812BFX_SetMode)
    WS2812BFX_SetSpeed                       0x08002755   Thumb Code    36  ws2812b_fx.o(.text.WS2812BFX_SetSpeed)
    WS2812BFX_Start                          0x08002779   Thumb Code    48  ws2812b_fx.o(.text.WS2812BFX_Start)
    WS2812BFX_SysTickCallback                0x080027a9   Thumb Code    32  ws2812b_fx.o(.text.WS2812BFX_SysTickCallback)
    WS2812B_GetColor                         0x080027c9   Thumb Code    24  ws2812b.o(.text.WS2812B_GetColor)
    WS2812B_GetPixels                        0x080027e1   Thumb Code     4  ws2812b.o(.text.WS2812B_GetPixels)
    WS2812B_Init                             0x080027e5   Thumb Code     8  ws2812b.o(.text.WS2812B_Init)
    WS2812B_Refresh                          0x080027ed   Thumb Code    52  ws2812b.o(.text.WS2812B_Refresh)
    WS2812B_SetDiodeColor                    0x08002821   Thumb Code    28  ws2812b.o(.text.WS2812B_SetDiodeColor)
    WS2812B_SetDiodeColorStruct              0x0800283d   Thumb Code    24  ws2812b.o(.text.WS2812B_SetDiodeColorStruct)
    WS2812B_SetDiodeRGB                      0x08002855   Thumb Code    28  ws2812b.o(.text.WS2812B_SetDiodeRGB)
    blink                                    0x08002895   Thumb Code    84  ws2812b_fx.o(.text.blink)
    chase                                    0x080028e9   Thumb Code   252  ws2812b_fx.o(.text.chase)
    color_blend                              0x080029e5   Thumb Code   100  ws2812b_fx.o(.text.color_blend)
    color_wheel                              0x08002a49   Thumb Code    78  ws2812b_fx.o(.text.color_wheel)
    color_wipe                               0x08002a99   Thumb Code   112  ws2812b_fx.o(.text.color_wipe)
    fade_out                                 0x08002b09   Thumb Code   180  ws2812b_fx.o(.text.fade_out)
    fire_flicker                             0x08002bbd   Thumb Code   152  ws2812b_fx.o(.text.fire_flicker)
    fireworks                                0x08002c55   Thumb Code   280  ws2812b_fx.o(.text.fireworks)
    fputc                                    0x08002d6d   Thumb Code    20  usart.o(.text.fputc)
    get_random_wheel_index                   0x08002d81   Thumb Code    44  ws2812b_fx.o(.text.get_random_wheel_index)
    main                                     0x08002dad   Thumb Code   600  main.o(.text.main)
    mode_bicolor_chase                       0x08003005   Thumb Code    24  ws2812b_fx.o(.text.mode_bicolor_chase)
    mode_black_to_color                      0x0800301d   Thumb Code     6  ws2812b_fx.o(.text.mode_black_to_color)
    mode_blink                               0x08003025   Thumb Code    28  ws2812b_fx.o(.text.mode_blink)
    mode_blink_rainbow                       0x08003041   Thumb Code    36  ws2812b_fx.o(.text.mode_blink_rainbow)
    mode_breath                              0x08003065   Thumb Code   156  ws2812b_fx.o(.text.mode_breath)
    mode_chase_blackout                      0x08003101   Thumb Code    24  ws2812b_fx.o(.text.mode_chase_blackout)
    mode_chase_blackout_rainbow              0x08003119   Thumb Code    60  ws2812b_fx.o(.text.mode_chase_blackout_rainbow)
    mode_chase_color                         0x08003155   Thumb Code    28  ws2812b_fx.o(.text.mode_chase_color)
    mode_chase_flash                         0x08003171   Thumb Code   216  ws2812b_fx.o(.text.mode_chase_flash)
    mode_chase_flash_random                  0x08003249   Thumb Code   248  ws2812b_fx.o(.text.mode_chase_flash_random)
    mode_chase_rainbow                       0x08003341   Thumb Code    64  ws2812b_fx.o(.text.mode_chase_rainbow)
    mode_chase_rainbow_white                 0x08003381   Thumb Code   100  ws2812b_fx.o(.text.mode_chase_rainbow_white)
    mode_chase_random                        0x080033e5   Thumb Code    84  ws2812b_fx.o(.text.mode_chase_random)
    mode_chase_white                         0x08003439   Thumb Code    28  ws2812b_fx.o(.text.mode_chase_white)
    mode_circus_combustus                    0x08003455   Thumb Code    14  ws2812b_fx.o(.text.mode_circus_combustus)
    mode_color_sweep_random                  0x08003465   Thumb Code    92  ws2812b_fx.o(.text.mode_color_sweep_random)
    mode_color_wipe                          0x080034c1   Thumb Code    28  ws2812b_fx.o(.text.mode_color_wipe)
    mode_color_wipe_inv                      0x080034dd   Thumb Code    28  ws2812b_fx.o(.text.mode_color_wipe_inv)
    mode_color_wipe_random                   0x080034f9   Thumb Code   108  ws2812b_fx.o(.text.mode_color_wipe_random)
    mode_color_wipe_rev                      0x08003565   Thumb Code    28  ws2812b_fx.o(.text.mode_color_wipe_rev)
    mode_color_wipe_rev_inv                  0x08003581   Thumb Code    24  ws2812b_fx.o(.text.mode_color_wipe_rev_inv)
    mode_comet                               0x08003599   Thumb Code    92  ws2812b_fx.o(.text.mode_comet)
    mode_dual_scan                           0x080035f5   Thumb Code   172  ws2812b_fx.o(.text.mode_dual_scan)
    mode_fade                                0x080036a1   Thumb Code   116  ws2812b_fx.o(.text.mode_fade)
    mode_fire_flicker                        0x08003715   Thumb Code     6  ws2812b_fx.o(.text.mode_fire_flicker)
    mode_fire_flicker_intense                0x0800371b   Thumb Code     6  ws2812b_fx.o(.text.mode_fire_flicker_intense)
    mode_fire_flicker_soft                   0x08003721   Thumb Code     6  ws2812b_fx.o(.text.mode_fire_flicker_soft)
    mode_fireworks                           0x08003729   Thumb Code    24  ws2812b_fx.o(.text.mode_fireworks)
    mode_fireworks_random                    0x08003741   Thumb Code    20  ws2812b_fx.o(.text.mode_fireworks_random)
    mode_flash_sparkle                       0x08003755   Thumb Code   184  ws2812b_fx.o(.text.mode_flash_sparkle)
    mode_halloween                           0x0800380d   Thumb Code    16  ws2812b_fx.o(.text.mode_halloween)
    mode_hyper_sparkle                       0x0800381d   Thumb Code   200  ws2812b_fx.o(.text.mode_hyper_sparkle)
    mode_icu                                 0x080038e5   Thumb Code   424  ws2812b_fx.o(.text.mode_icu)
    mode_larson_scanner                      0x08003a8d   Thumb Code   148  ws2812b_fx.o(.text.mode_larson_scanner)
    mode_merry_christmas                     0x08003b21   Thumb Code    12  ws2812b_fx.o(.text.mode_merry_christmas)
    mode_multi_dynamic                       0x08003b2d   Thumb Code    76  ws2812b_fx.o(.text.mode_multi_dynamic)
    mode_multi_strobe                        0x08003b79   Thumb Code   200  ws2812b_fx.o(.text.mode_multi_strobe)
    mode_rainbow                             0x08003c41   Thumb Code    96  ws2812b_fx.o(.text.mode_rainbow)
    mode_rainbow_cycle                       0x08003ca1   Thumb Code    80  ws2812b_fx.o(.text.mode_rainbow_cycle)
    mode_random_color                        0x08003cf1   Thumb Code    88  ws2812b_fx.o(.text.mode_random_color)
    mode_running_color                       0x08003d49   Thumb Code    24  ws2812b_fx.o(.text.mode_running_color)
    mode_running_lights                      0x08003d61   Thumb Code   172  ws2812b_fx.o(.text.mode_running_lights)
    mode_running_random                      0x08003e0d   Thumb Code   180  ws2812b_fx.o(.text.mode_running_random)
    mode_running_red_blue                    0x08003ec1   Thumb Code    10  ws2812b_fx.o(.text.mode_running_red_blue)
    mode_scan                                0x08003ecd   Thumb Code   160  ws2812b_fx.o(.text.mode_scan)
    mode_single_dynamic                      0x08003f6d   Thumb Code   156  ws2812b_fx.o(.text.mode_single_dynamic)
    mode_sparkle                             0x08004009   Thumb Code   100  ws2812b_fx.o(.text.mode_sparkle)
    mode_static                              0x0800406d   Thumb Code    76  ws2812b_fx.o(.text.mode_static)
    mode_strobe                              0x080040b9   Thumb Code    28  ws2812b_fx.o(.text.mode_strobe)
    mode_strobe_rainbow                      0x080040d5   Thumb Code    36  ws2812b_fx.o(.text.mode_strobe_rainbow)
    mode_theater_chase                       0x080040f9   Thumb Code    28  ws2812b_fx.o(.text.mode_theater_chase)
    mode_theater_chase_rainbow               0x08004115   Thumb Code    40  ws2812b_fx.o(.text.mode_theater_chase_rainbow)
    mode_tricolor_chase                      0x0800413d   Thumb Code    24  ws2812b_fx.o(.text.mode_tricolor_chase)
    mode_twinkle                             0x08004155   Thumb Code    24  ws2812b_fx.o(.text.mode_twinkle)
    mode_twinkle_fade                        0x0800416d   Thumb Code    20  ws2812b_fx.o(.text.mode_twinkle_fade)
    mode_twinkle_fade_random                 0x08004181   Thumb Code    20  ws2812b_fx.o(.text.mode_twinkle_fade_random)
    mode_twinkle_random                      0x08004195   Thumb Code    40  ws2812b_fx.o(.text.mode_twinkle_random)
    mode_white_to_color                      0x080041bd   Thumb Code     6  ws2812b_fx.o(.text.mode_white_to_color)
    running                                  0x080041c5   Thumb Code   128  ws2812b_fx.o(.text.running)
    sine8                                    0x08004245   Thumb Code    12  ws2812b.o(.text.sine8)
    theater_chase                            0x08004251   Thumb Code   148  ws2812b_fx.o(.text.theater_chase)
    to_color                                 0x080042e5   Thumb Code   276  ws2812b_fx.o(.text.to_color)
    tricolor_chase                           0x080043f9   Thumb Code   144  ws2812b_fx.o(.text.tricolor_chase)
    twinkle                                  0x08004489   Thumb Code   176  ws2812b_fx.o(.text.twinkle)
    twinkle_fade                             0x08004539   Thumb Code   112  ws2812b_fx.o(.text.twinkle_fade)
    __0printf$1                              0x080045a9   Thumb Code    22  printf1.o(i.__0printf$1)
    __1printf$1                              0x080045a9   Thumb Code     0  printf1.o(i.__0printf$1)
    __2printf                                0x080045a9   Thumb Code     0  printf1.o(i.__0printf$1)
    __aeabi_errno_addr                       0x080045c9   Thumb Code     4  errno.o(i.__aeabi_errno_addr)
    __rt_errno_addr                          0x080045c9   Thumb Code     0  errno.o(i.__aeabi_errno_addr)
    __scatterload_copy                       0x080045d1   Thumb Code    14  handlers.o(i.__scatterload_copy)
    __scatterload_null                       0x080045df   Thumb Code     2  handlers.o(i.__scatterload_null)
    __scatterload_zeroinit                   0x080045e1   Thumb Code    14  handlers.o(i.__scatterload_zeroinit)
    free                                     0x08004745   Thumb Code    76  malloc.o(i.free)
    malloc                                   0x08004795   Thumb Code    92  malloc.o(i.malloc)
    __ctype_table                            0x08004800   Data         129  ctype_o.o(.constdata)
    AHBPrescTable                            0x08004888   Data          16  system_stm32f1xx.o(.rodata.AHBPrescTable)
    APBPrescTable                            0x08004898   Data           8  system_stm32f1xx.o(.rodata.APBPrescTable)
    Region$$Table$$Base                      0x080049a8   Number         0  anon$$obj.o(Region$$Table)
    Region$$Table$$Limit                     0x080049c8   Number         0  anon$$obj.o(Region$$Table)
    __microlib_freelist                      0x20000004   Data           4  mvars.o(.data)
    __microlib_freelist_initialised          0x20000008   Data           4  mvars.o(.data)
    R                                        0x20000010   Data           4  main.o(.data..L_MergedGlobals)
    G                                        0x20000014   Data           4  main.o(.data..L_MergedGlobals)
    B                                        0x20000018   Data           4  main.o(.data..L_MergedGlobals)
    MODE                                     0x2000001c   Data           4  main.o(.data..L_MergedGlobals)
    POWER                                    0x20000020   Data           4  main.o(.data..L_MergedGlobals)
    data_FLAG                                0x20000024   Data           4  main.o(.data..L_MergedGlobals)
    LED_FLAG                                 0x20000028   Data           4  main.o(.data..L_MergedGlobals)
    POWER_FLAG                               0x2000002c   Data           4  main.o(.data..L_MergedGlobals)
    uwTickFreq                               0x20000030   Data           1  stm32f1xx_hal.o(.data..L_MergedGlobals)
    uwTickPrio                               0x20000034   Data           4  stm32f1xx_hal.o(.data..L_MergedGlobals)
    SystemCoreClock                          0x20000038   Data           4  system_stm32f1xx.o(.data.SystemCoreClock)
    mMode                                    0x2000003c   Data         232  ws2812b_fx.o(.data.mMode)
    hspi_ws2812b                             0x2000012c   Data           4  ws2812b.o(.bss..L_MergedGlobals)
    mRunning                                 0x20000161   Data           1  ws2812b_fx.o(.bss..L_MergedGlobals)
    mTriggered                               0x20000162   Data           1  ws2812b_fx.o(.bss..L_MergedGlobals)
    mActualSegment                           0x20000163   Data           1  ws2812b_fx.o(.bss..L_MergedGlobals)
    mSegments                                0x20000164   Data           2  ws2812b_fx.o(.bss..L_MergedGlobals)
    Ws28b12b_Segments                        0x20000168   Data           4  ws2812b_fx.o(.bss..L_MergedGlobals)
    mColor_w                                 0x2000016c   Data           9  ws2812b_fx.o(.bss..L_MergedGlobals)
    mColor                                   0x20000178   Data          12  ws2812b_fx.o(.bss..L_MergedGlobals)
    KUP                                      0x20000184   Data           1  gpio.o(.bss..L_MergedGlobals)
    cou                                      0x20000186   Data           2  gpio.o(.bss..L_MergedGlobals)
    aRxBuffer                                0x20000188   Data           1  usart.o(.bss..L_MergedGlobals)
    USART_RX_STA                             0x2000018a   Data           2  usart.o(.bss..L_MergedGlobals)
    data                                     0x2000018c   Data           4  main.o(.bss..L_MergedGlobals.6)
    LED                                      0x20000190   Data           4  main.o(.bss..L_MergedGlobals.6)
    MODE_FLAG                                0x20000194   Data           4  main.o(.bss..L_MergedGlobals.6)
    H                                        0x20000198   Data           4  main.o(.bss..L_MergedGlobals.6)
    S                                        0x2000019c   Data           4  main.o(.bss..L_MergedGlobals.6)
    V                                        0x200001a0   Data           4  main.o(.bss..L_MergedGlobals.6)
    uart3_RxBuffer                           0x200001a4   Data          30  main.o(.bss..L_MergedGlobals.6)
    UART1_Handler                            0x200001c4   Data          64  usart.o(.bss.UART1_Handler)
    UART3_Handler                            0x20000204   Data          64  usart.o(.bss.UART3_Handler)
    USART3_RX_BUF                            0x20000244   Data         200  usart.o(.bss.USART3_RX_BUF)
    USART3_RX_STA                            0x2000030c   Data           2  usart.o(.bss.USART3_RX_STA)
    USART_RX_BUF                             0x2000030e   Data         200  usart.o(.bss.USART_RX_BUF)
    __stdout                                 0x200003d8   Data          84  usart.o(.bss.__stdout)
    hdma_spi1_tx                             0x2000042c   Data          68  spi.o(.bss.hdma_spi1_tx)
    hspi1                                    0x20000470   Data          88  spi.o(.bss.hspi1)
    htim2                                    0x200004c8   Data          64  tim.o(.bss.htim2)
    huart1                                   0x20000508   Data          64  usart.o(.bss.huart1)
    huart2                                   0x20000548   Data          64  usart.o(.bss.huart2)
    huart3                                   0x20000588   Data          64  usart.o(.bss.huart3)
    uwTick                                   0x200005c8   Data           4  stm32f1xx_hal.o(.bss.uwTick)
    ws2812b_array                            0x200005cc   Data         150  ws2812b.o(.bss.ws2812b_array)
    __heap_base                              0x20000668   Data           0  startup_stm32f103xb.o(HEAP)
    __heap_limit                             0x20000868   Data           0  startup_stm32f103xb.o(HEAP)
    __initial_sp                             0x20000c68   Data           0  startup_stm32f103xb.o(STACK)



==============================================================================

Memory Map of the image

  Image Entry point : 0x080000ed

  Load Region LR_IROM1 (Base: 0x08000000, Size: 0x00004af0, Max: 0x00010000, ABSOLUTE)

    Execution Region ER_IROM1 (Exec base: 0x08000000, Load base: 0x08000000, Size: 0x000049c8, Max: 0x00010000, ABSOLUTE)

    Exec Addr    Load Addr    Size         Type   Attr      Idx    E Section Name        Object

    0x08000000   0x08000000   0x000000ec   Data   RO            3    RESET               startup_stm32f103xb.o
    0x080000ec   0x080000ec   0x00000000   Code   RO         1380  * .ARM.Collect$$$$00000000  mc_w.l(entry.o)
    0x080000ec   0x080000ec   0x00000004   Code   RO         1683    .ARM.Collect$$$$00000001  mc_w.l(entry2.o)
    0x080000f0   0x080000f0   0x00000004   Code   RO         1686    .ARM.Collect$$$$00000004  mc_w.l(entry5.o)
    0x080000f4   0x080000f4   0x00000000   Code   RO         1688    .ARM.Collect$$$$00000008  mc_w.l(entry7b.o)
    0x080000f4   0x080000f4   0x00000000   Code   RO         1690    .ARM.Collect$$$$0000000A  mc_w.l(entry8b.o)
    0x080000f4   0x080000f4   0x00000008   Code   RO         1691    .ARM.Collect$$$$0000000B  mc_w.l(entry9a.o)
    0x080000fc   0x080000fc   0x00000000   Code   RO         1693    .ARM.Collect$$$$0000000D  mc_w.l(entry10a.o)
    0x080000fc   0x080000fc   0x00000000   Code   RO         1695    .ARM.Collect$$$$0000000F  mc_w.l(entry11a.o)
    0x080000fc   0x080000fc   0x00000004   Code   RO         1684    .ARM.Collect$$$$00002712  mc_w.l(entry2.o)
    0x08000100   0x08000100   0x00000024   Code   RO            4    .text               startup_stm32f103xb.o
    0x08000124   0x08000124   0x00000024   Code   RO         1385    .text               mc_w.l(rand.o)
    0x08000148   0x08000148   0x00000024   Code   RO         1388    .text               mc_w.l(memseta.o)
    0x0800016c   0x0800016c   0x0000001c   Code   RO         1679    .text               mc_w.l(calloc.o)
    0x08000188   0x08000188   0x0000001a   Code   RO         1681    .text               mc_w.l(atoi.o)
    0x080001a2   0x080001a2   0x0000002c   Code   RO         1697    .text               mc_w.l(uidiv.o)
    0x080001ce   0x080001ce   0x00000070   Code   RO         1714    .text               mc_w.l(strtol.o)
    0x0800023e   0x0800023e   0x00000002   PAD
    0x08000240   0x08000240   0x00000024   Code   RO         1727    .text               mc_w.l(init.o)
    0x08000264   0x08000264   0x00000008   Code   RO         1733    .text               mc_w.l(ctype_o.o)
    0x0800026c   0x0800026c   0x0000009e   Code   RO         1761    .text               mc_w.l(_strtoul.o)
    0x0800030a   0x0800030a   0x0000001c   Code   RO         1765    .text               mc_w.l(_chval.o)
    0x08000326   0x08000326   0x00000002   Code   RO          394    .text.BusFault_Handler  stm32f1xx_it.o
    0x08000328   0x08000328   0x0000000c   Code   RO          406    .text.DMA1_Channel3_IRQHandler  stm32f1xx_it.o
    0x08000334   0x08000334   0x00000026   Code   RO          706    .text.DMA_SetConfig  stm32f1xx_hal_dma.o
    0x0800035a   0x0800035a   0x00000002   Code   RO          400    .text.DebugMon_Handler  stm32f1xx_it.o
    0x0800035c   0x0800035c   0x00000110   Code   RO          300    .text.ENCODER_READ  gpio.o
    0x0800046c   0x0800046c   0x00000008   Code   RO          416    .text.EXTI15_10_IRQHandler  stm32f1xx_it.o
    0x08000474   0x08000474   0x00000002   Code   RO          282    .text.Error_Handler  main.o
    0x08000476   0x08000476   0x0000003e   Code   RO          710    .text.HAL_DMA_Abort  stm32f1xx_hal_dma.o
    0x080004b4   0x080004b4   0x00000080   Code   RO          712    .text.HAL_DMA_Abort_IT  stm32f1xx_hal_dma.o
    0x08000534   0x08000534   0x00000006   Code   RO          722    .text.HAL_DMA_GetState  stm32f1xx_hal_dma.o
    0x0800053a   0x0800053a   0x00000002   PAD
    0x0800053c   0x0800053c   0x00000134   Code   RO          716    .text.HAL_DMA_IRQHandler  stm32f1xx_hal_dma.o
    0x08000670   0x08000670   0x00000064   Code   RO          700    .text.HAL_DMA_Init  stm32f1xx_hal_dma.o
    0x080006d4   0x080006d4   0x00000066   Code   RO          708    .text.HAL_DMA_Start_IT  stm32f1xx_hal_dma.o
    0x0800073a   0x0800073a   0x00000002   PAD
    0x0800073c   0x0800073c   0x00000020   Code   RO          586    .text.HAL_Delay     stm32f1xx_hal.o
    0x0800075c   0x0800075c   0x00000002   Code   RO          690    .text.HAL_GPIO_EXTI_Callback  stm32f1xx_hal_gpio.o
    0x0800075e   0x0800075e   0x00000002   PAD
    0x08000760   0x08000760   0x00000014   Code   RO          688    .text.HAL_GPIO_EXTI_IRQHandler  stm32f1xx_hal_gpio.o
    0x08000774   0x08000774   0x0000019c   Code   RO          676    .text.HAL_GPIO_Init  stm32f1xx_hal_gpio.o
    0x08000910   0x08000910   0x0000000a   Code   RO          680    .text.HAL_GPIO_ReadPin  stm32f1xx_hal_gpio.o
    0x0800091a   0x0800091a   0x0000000a   Code   RO          682    .text.HAL_GPIO_WritePin  stm32f1xx_hal_gpio.o
    0x08000924   0x08000924   0x00000008   Code   RO          578    .text.HAL_GetTick   stm32f1xx_hal.o
    0x0800092c   0x0800092c   0x00000014   Code   RO          576    .text.HAL_IncTick   stm32f1xx_hal.o
    0x08000940   0x08000940   0x00000020   Code   RO          566    .text.HAL_Init      stm32f1xx_hal.o
    0x08000960   0x08000960   0x0000003c   Code   RO          568    .text.HAL_InitTick  stm32f1xx_hal.o
    0x0800099c   0x0800099c   0x00000040   Code   RO          425    .text.HAL_MspInit   stm32f1xx_hal_msp.o
    0x080009dc   0x080009dc   0x0000001c   Code   RO          740    .text.HAL_NVIC_EnableIRQ  stm32f1xx_hal_cortex.o
    0x080009f8   0x080009f8   0x00000038   Code   RO          736    .text.HAL_NVIC_SetPriority  stm32f1xx_hal_cortex.o
    0x08000a30   0x08000a30   0x00000020   Code   RO          734    .text.HAL_NVIC_SetPriorityGrouping  stm32f1xx_hal_cortex.o
    0x08000a50   0x08000a50   0x00000138   Code   RO          630    .text.HAL_RCC_ClockConfig  stm32f1xx_hal_rcc.o
    0x08000b88   0x08000b88   0x00000014   Code   RO          642    .text.HAL_RCC_GetPCLK1Freq  stm32f1xx_hal_rcc.o
    0x08000b9c   0x08000b9c   0x0000001c   Code   RO          644    .text.HAL_RCC_GetPCLK2Freq  stm32f1xx_hal_rcc.o
    0x08000bb8   0x08000bb8   0x00000054   Code   RO          632    .text.HAL_RCC_GetSysClockFreq  stm32f1xx_hal_rcc.o
    0x08000c0c   0x08000c0c   0x00000334   Code   RO          628    .text.HAL_RCC_OscConfig  stm32f1xx_hal_rcc.o
    0x08000f40   0x08000f40   0x00000044   Code   RO          526    .text.HAL_SPI_DMAStop  stm32f1xx_hal_spi.o
    0x08000f84   0x08000f84   0x00000002   Code   RO          532    .text.HAL_SPI_ErrorCallback  stm32f1xx_hal_spi.o
    0x08000f86   0x08000f86   0x00000074   Code   RO          448    .text.HAL_SPI_Init  stm32f1xx_hal_spi.o
    0x08000ffa   0x08000ffa   0x00000002   PAD
    0x08000ffc   0x08000ffc   0x00000098   Code   RO          324    .text.HAL_SPI_MspInit  spi.o
    0x08001094   0x08001094   0x000000b4   Code   RO          488    .text.HAL_SPI_Transmit_DMA  stm32f1xx_hal_spi.o
    0x08001148   0x08001148   0x000000ac   Code   RO           29    .text.HAL_SPI_TxCpltCallback  ws2812b.o
    0x080011f4   0x080011f4   0x000000c8   Code   RO           27    .text.HAL_SPI_TxHalfCpltCallback  ws2812b.o
    0x080012bc   0x080012bc   0x00000004   Code   RO          284    .text.HAL_SYSTICK_Callback  main.o
    0x080012c0   0x080012c0   0x00000028   Code   RO          748    .text.HAL_SYSTICK_Config  stm32f1xx_hal_cortex.o
    0x080012e8   0x080012e8   0x00000002   Code   RO         1211    .text.HAL_TIMEx_BreakCallback  stm32f1xx_hal_tim_ex.o
    0x080012ea   0x080012ea   0x00000002   Code   RO         1207    .text.HAL_TIMEx_CommutCallback  stm32f1xx_hal_tim_ex.o
    0x080012ec   0x080012ec   0x0000003a   Code   RO         1201    .text.HAL_TIMEx_MasterConfigSynchronization  stm32f1xx_hal_tim_ex.o
    0x08001326   0x08001326   0x00000034   Code   RO          907    .text.HAL_TIM_Base_Init  stm32f1xx_hal_tim.o
    0x0800135a   0x0800135a   0x00000002   PAD
    0x0800135c   0x0800135c   0x00000038   Code   RO          340    .text.HAL_TIM_Base_MspInit  tim.o
    0x08001394   0x08001394   0x000000f4   Code   RO         1091    .text.HAL_TIM_ConfigClockSource  stm32f1xx_hal_tim.o
    0x08001488   0x08001488   0x00000002   Code   RO         1043    .text.HAL_TIM_IC_CaptureCallback  stm32f1xx_hal_tim.o
    0x0800148a   0x0800148a   0x0000016c   Code   RO         1041    .text.HAL_TIM_IRQHandler  stm32f1xx_hal_tim.o
    0x080015f6   0x080015f6   0x00000002   Code   RO         1045    .text.HAL_TIM_OC_DelayElapsedCallback  stm32f1xx_hal_tim.o
    0x080015f8   0x080015f8   0x00000002   Code   RO         1047    .text.HAL_TIM_PWM_PulseFinishedCallback  stm32f1xx_hal_tim.o
    0x080015fa   0x080015fa   0x00000002   Code   RO         1049    .text.HAL_TIM_PeriodElapsedCallback  stm32f1xx_hal_tim.o
    0x080015fc   0x080015fc   0x00000002   Code   RO         1051    .text.HAL_TIM_TriggerCallback  stm32f1xx_hal_tim.o
    0x080015fe   0x080015fe   0x00000002   Code   RO         1303    .text.HAL_UART_ErrorCallback  stm32f1xx_hal_uart.o
    0x08001600   0x08001600   0x0000014c   Code   RO         1297    .text.HAL_UART_IRQHandler  stm32f1xx_hal_uart.o
    0x0800174c   0x0800174c   0x0000005c   Code   RO         1223    .text.HAL_UART_Init  stm32f1xx_hal_uart.o
    0x080017a8   0x080017a8   0x0000014c   Code   RO          363    .text.HAL_UART_MspInit  usart.o
    0x080018f4   0x080018f4   0x0000004e   Code   RO         1247    .text.HAL_UART_Receive_IT  stm32f1xx_hal_uart.o
    0x08001942   0x08001942   0x00000002   PAD
    0x08001944   0x08001944   0x00000050   Code   RO          367    .text.HAL_UART_RxCpltCallback  usart.o
    0x08001994   0x08001994   0x00000002   Code   RO         1305    .text.HAL_UART_TxCpltCallback  stm32f1xx_hal_uart.o
    0x08001996   0x08001996   0x00000002   Code   RO          390    .text.HardFault_Handler  stm32f1xx_it.o
    0x08001998   0x08001998   0x00000030   Code   RO          313    .text.MX_DMA_Init   dma.o
    0x080019c8   0x080019c8   0x000000a8   Code   RO          298    .text.MX_GPIO_Init  gpio.o
    0x08001a70   0x08001a70   0x00000044   Code   RO          322    .text.MX_SPI1_Init  spi.o
    0x08001ab4   0x08001ab4   0x00000064   Code   RO          338    .text.MX_TIM2_Init  tim.o
    0x08001b18   0x08001b18   0x00000038   Code   RO          357    .text.MX_USART1_UART_Init  usart.o
    0x08001b50   0x08001b50   0x00000038   Code   RO          359    .text.MX_USART2_UART_Init  usart.o
    0x08001b88   0x08001b88   0x00000038   Code   RO          361    .text.MX_USART3_UART_Init  usart.o
    0x08001bc0   0x08001bc0   0x00000002   Code   RO          392    .text.MemManage_Handler  stm32f1xx_it.o
    0x08001bc2   0x08001bc2   0x00000002   Code   RO          388    .text.NMI_Handler   stm32f1xx_it.o
    0x08001bc4   0x08001bc4   0x00000002   Code   RO          402    .text.PendSV_Handler  stm32f1xx_it.o
    0x08001bc6   0x08001bc6   0x0000001e   Code   RO          494    .text.SPI_DMAError  stm32f1xx_hal_spi.o
    0x08001be4   0x08001be4   0x00000006   Code   RO          490    .text.SPI_DMAHalfTransmitCplt  stm32f1xx_hal_spi.o
    0x08001bea   0x08001bea   0x0000006e   Code   RO          492    .text.SPI_DMATransmitCplt  stm32f1xx_hal_spi.o
    0x08001c58   0x08001c58   0x00000020   Code   RO          458    .text.SPI_EndRxTxTransaction  stm32f1xx_hal_spi.o
    0x08001c78   0x08001c78   0x00000080   Code   RO          556    .text.SPI_WaitFlagStateUntilTimeout  stm32f1xx_hal_spi.o
    0x08001cf8   0x08001cf8   0x00000002   Code   RO          398    .text.SVC_Handler   stm32f1xx_it.o
    0x08001cfa   0x08001cfa   0x0000000e   Code   RO          404    .text.SysTick_Handler  stm32f1xx_it.o
    0x08001d08   0x08001d08   0x0000004a   Code   RO          278    .text.SystemClock_Config  main.o
    0x08001d52   0x08001d52   0x00000002   PAD
    0x08001d54   0x08001d54   0x0000004c   Code   RO         1335    .text.SystemInit    system_stm32f1xx.o
    0x08001da0   0x08001da0   0x0000000c   Code   RO          408    .text.TIM2_IRQHandler  stm32f1xx_it.o
    0x08001dac   0x08001dac   0x00000070   Code   RO          911    .text.TIM_Base_SetConfig  stm32f1xx_hal_tim.o
    0x08001e1c   0x08001e1c   0x00000022   Code   RO         1093    .text.TIM_TI1_ConfigInputStage  stm32f1xx_hal_tim.o
    0x08001e3e   0x08001e3e   0x00000022   Code   RO         1095    .text.TIM_TI2_ConfigInputStage  stm32f1xx_hal_tim.o
    0x08001e60   0x08001e60   0x000001b0   Code   RO          280    .text.TODO          main.o
    0x08002010   0x08002010   0x0000000c   Code   RO         1301    .text.UART_DMAAbortOnError  stm32f1xx_hal_uart.o
    0x0800201c   0x0800201c   0x0000001a   Code   RO         1269    .text.UART_EndRxTransfer  stm32f1xx_hal_uart.o
    0x08002036   0x08002036   0x00000076   Code   RO         1299    .text.UART_Receive_IT  stm32f1xx_hal_uart.o
    0x080020ac   0x080020ac   0x00000080   Code   RO         1227    .text.UART_SetConfig  stm32f1xx_hal_uart.o
    0x0800212c   0x0800212c   0x00000068   Code   RO          410    .text.USART1_IRQHandler  stm32f1xx_it.o
    0x08002194   0x08002194   0x0000000c   Code   RO          412    .text.USART2_IRQHandler  stm32f1xx_it.o
    0x080021a0   0x080021a0   0x00000068   Code   RO          414    .text.USART3_IRQHandler  stm32f1xx_it.o
    0x08002208   0x08002208   0x00000002   Code   RO          396    .text.UsageFault_Handler  stm32f1xx_it.o
    0x0800220a   0x0800220a   0x00000002   PAD
    0x0800220c   0x0800220c   0x0000004c   Code   RO          173    .text.WS2812BFX_Callback  ws2812b_fx.o
    0x08002258   0x08002258   0x000000ac   Code   RO          217    .text.WS2812BFX_HSVtoRGB  ws2812b_fx.o
    0x08002304   0x08002304   0x000001ac   Code   RO          163    .text.WS2812BFX_Init  ws2812b_fx.o
    0x080024b0   0x080024b0   0x00000050   Code   RO          179    .text.WS2812BFX_NextMode  ws2812b_fx.o
    0x08002500   0x08002500   0x00000054   Code   RO          181    .text.WS2812BFX_PrevMode  ws2812b_fx.o
    0x08002554   0x08002554   0x00000098   Code   RO          215    .text.WS2812BFX_RGBtoHSV  ws2812b_fx.o
    0x080025ec   0x080025ec   0x00000054   Code   RO          185    .text.WS2812BFX_SetAll  ws2812b_fx.o
    0x08002640   0x08002640   0x00000054   Code   RO          223    .text.WS2812BFX_SetAllRGB  ws2812b_fx.o
    0x08002694   0x08002694   0x00000040   Code   RO          219    .text.WS2812BFX_SetColorHSV  ws2812b_fx.o
    0x080026d4   0x080026d4   0x00000020   Code   RO          211    .text.WS2812BFX_SetColorRGB  ws2812b_fx.o
    0x080026f4   0x080026f4   0x00000060   Code   RO          175    .text.WS2812BFX_SetMode  ws2812b_fx.o
    0x08002754   0x08002754   0x00000024   Code   RO          225    .text.WS2812BFX_SetSpeed  ws2812b_fx.o
    0x08002778   0x08002778   0x00000030   Code   RO          201    .text.WS2812BFX_Start  ws2812b_fx.o
    0x080027a8   0x080027a8   0x00000020   Code   RO          171    .text.WS2812BFX_SysTickCallback  ws2812b_fx.o
    0x080027c8   0x080027c8   0x00000018   Code   RO           19    .text.WS2812B_GetColor  ws2812b.o
    0x080027e0   0x080027e0   0x00000004   Code   RO           21    .text.WS2812B_GetPixels  ws2812b.o
    0x080027e4   0x080027e4   0x00000008   Code   RO           11    .text.WS2812B_Init  ws2812b.o
    0x080027ec   0x080027ec   0x00000034   Code   RO           25    .text.WS2812B_Refresh  ws2812b.o
    0x08002820   0x08002820   0x0000001c   Code   RO           13    .text.WS2812B_SetDiodeColor  ws2812b.o
    0x0800283c   0x0800283c   0x00000018   Code   RO           15    .text.WS2812B_SetDiodeColorStruct  ws2812b.o
    0x08002854   0x08002854   0x0000001c   Code   RO           17    .text.WS2812B_SetDiodeRGB  ws2812b.o
    0x08002870   0x08002870   0x00000024   Code   RO          738    .text.__NVIC_SetPriority  stm32f1xx_hal_cortex.o
    0x08002894   0x08002894   0x00000054   Code   RO          245    .text.blink         ws2812b_fx.o
    0x080028e8   0x080028e8   0x000000fc   Code   RO          255    .text.chase         ws2812b_fx.o
    0x080029e4   0x080029e4   0x00000064   Code   RO          241    .text.color_blend   ws2812b_fx.o
    0x08002a48   0x08002a48   0x0000004e   Code   RO          235    .text.color_wheel   ws2812b_fx.o
    0x08002a96   0x08002a96   0x00000002   PAD
    0x08002a98   0x08002a98   0x00000070   Code   RO          247    .text.color_wipe    ws2812b_fx.o
    0x08002b08   0x08002b08   0x000000b4   Code   RO          239    .text.fade_out      ws2812b_fx.o
    0x08002bbc   0x08002bbc   0x00000098   Code   RO          261    .text.fire_flicker  ws2812b_fx.o
    0x08002c54   0x08002c54   0x00000118   Code   RO          259    .text.fireworks     ws2812b_fx.o
    0x08002d6c   0x08002d6c   0x00000014   Code   RO          355    .text.fputc         usart.o
    0x08002d80   0x08002d80   0x0000002c   Code   RO          237    .text.get_random_wheel_index  ws2812b_fx.o
    0x08002dac   0x08002dac   0x00000258   Code   RO          276    .text.main          main.o
    0x08003004   0x08003004   0x00000018   Code   RO          157    .text.mode_bicolor_chase  ws2812b_fx.o
    0x0800301c   0x0800301c   0x00000006   Code   RO           51    .text.mode_black_to_color  ws2812b_fx.o
    0x08003022   0x08003022   0x00000002   PAD
    0x08003024   0x08003024   0x0000001c   Code   RO           53    .text.mode_blink    ws2812b_fx.o
    0x08003040   0x08003040   0x00000024   Code   RO           55    .text.mode_blink_rainbow  ws2812b_fx.o
    0x08003064   0x08003064   0x0000009c   Code   RO           61    .text.mode_breath   ws2812b_fx.o
    0x08003100   0x08003100   0x00000018   Code   RO          127    .text.mode_chase_blackout  ws2812b_fx.o
    0x08003118   0x08003118   0x0000003c   Code   RO          129    .text.mode_chase_blackout_rainbow  ws2812b_fx.o
    0x08003154   0x08003154   0x0000001c   Code   RO          115    .text.mode_chase_color  ws2812b_fx.o
    0x08003170   0x08003170   0x000000d8   Code   RO          121    .text.mode_chase_flash  ws2812b_fx.o
    0x08003248   0x08003248   0x000000f8   Code   RO          123    .text.mode_chase_flash_random  ws2812b_fx.o
    0x08003340   0x08003340   0x00000040   Code   RO          119    .text.mode_chase_rainbow  ws2812b_fx.o
    0x08003380   0x08003380   0x00000064   Code   RO          125    .text.mode_chase_rainbow_white  ws2812b_fx.o
    0x080033e4   0x080033e4   0x00000054   Code   RO          117    .text.mode_chase_random  ws2812b_fx.o
    0x08003438   0x08003438   0x0000001c   Code   RO          113    .text.mode_chase_white  ws2812b_fx.o
    0x08003454   0x08003454   0x0000000e   Code   RO          153    .text.mode_circus_combustus  ws2812b_fx.o
    0x08003462   0x08003462   0x00000002   PAD
    0x08003464   0x08003464   0x0000005c   Code   RO           73    .text.mode_color_sweep_random  ws2812b_fx.o
    0x080034c0   0x080034c0   0x0000001c   Code   RO           63    .text.mode_color_wipe  ws2812b_fx.o
    0x080034dc   0x080034dc   0x0000001c   Code   RO           65    .text.mode_color_wipe_inv  ws2812b_fx.o
    0x080034f8   0x080034f8   0x0000006c   Code   RO           71    .text.mode_color_wipe_random  ws2812b_fx.o
    0x08003564   0x08003564   0x0000001c   Code   RO           67    .text.mode_color_wipe_rev  ws2812b_fx.o
    0x08003580   0x08003580   0x00000018   Code   RO           69    .text.mode_color_wipe_rev_inv  ws2812b_fx.o
    0x08003598   0x08003598   0x0000005c   Code   RO          139    .text.mode_comet    ws2812b_fx.o
    0x080035f4   0x080035f4   0x000000ac   Code   RO           89    .text.mode_dual_scan  ws2812b_fx.o
    0x080036a0   0x080036a0   0x00000074   Code   RO           85    .text.mode_fade     ws2812b_fx.o
    0x08003714   0x08003714   0x00000006   Code   RO          147    .text.mode_fire_flicker  ws2812b_fx.o
    0x0800371a   0x0800371a   0x00000006   Code   RO          151    .text.mode_fire_flicker_intense  ws2812b_fx.o
    0x08003720   0x08003720   0x00000006   Code   RO          149    .text.mode_fire_flicker_soft  ws2812b_fx.o
    0x08003726   0x08003726   0x00000002   PAD
    0x08003728   0x08003728   0x00000018   Code   RO          141    .text.mode_fireworks  ws2812b_fx.o
    0x08003740   0x08003740   0x00000014   Code   RO          143    .text.mode_fireworks_random  ws2812b_fx.o
    0x08003754   0x08003754   0x000000b8   Code   RO          107    .text.mode_flash_sparkle  ws2812b_fx.o
    0x0800380c   0x0800380c   0x00000010   Code   RO          155    .text.mode_halloween  ws2812b_fx.o
    0x0800381c   0x0800381c   0x000000c8   Code   RO          109    .text.mode_hyper_sparkle  ws2812b_fx.o
    0x080038e4   0x080038e4   0x000001a8   Code   RO          161    .text.mode_icu      ws2812b_fx.o
    0x08003a8c   0x08003a8c   0x00000094   Code   RO          137    .text.mode_larson_scanner  ws2812b_fx.o
    0x08003b20   0x08003b20   0x0000000c   Code   RO          145    .text.mode_merry_christmas  ws2812b_fx.o
    0x08003b2c   0x08003b2c   0x0000004c   Code   RO           79    .text.mode_multi_dynamic  ws2812b_fx.o
    0x08003b78   0x08003b78   0x000000c8   Code   RO          111    .text.mode_multi_strobe  ws2812b_fx.o
    0x08003c40   0x08003c40   0x00000060   Code   RO           81    .text.mode_rainbow  ws2812b_fx.o
    0x08003ca0   0x08003ca0   0x00000050   Code   RO           83    .text.mode_rainbow_cycle  ws2812b_fx.o
    0x08003cf0   0x08003cf0   0x00000058   Code   RO           75    .text.mode_random_color  ws2812b_fx.o
    0x08003d48   0x08003d48   0x00000018   Code   RO          131    .text.mode_running_color  ws2812b_fx.o
    0x08003d60   0x08003d60   0x000000ac   Code   RO           95    .text.mode_running_lights  ws2812b_fx.o
    0x08003e0c   0x08003e0c   0x000000b4   Code   RO          135    .text.mode_running_random  ws2812b_fx.o
    0x08003ec0   0x08003ec0   0x0000000a   Code   RO          133    .text.mode_running_red_blue  ws2812b_fx.o
    0x08003eca   0x08003eca   0x00000002   PAD
    0x08003ecc   0x08003ecc   0x000000a0   Code   RO           87    .text.mode_scan     ws2812b_fx.o
    0x08003f6c   0x08003f6c   0x0000009c   Code   RO           77    .text.mode_single_dynamic  ws2812b_fx.o
    0x08004008   0x08004008   0x00000064   Code   RO          105    .text.mode_sparkle  ws2812b_fx.o
    0x0800406c   0x0800406c   0x0000004c   Code   RO           47    .text.mode_static   ws2812b_fx.o
    0x080040b8   0x080040b8   0x0000001c   Code   RO           57    .text.mode_strobe   ws2812b_fx.o
    0x080040d4   0x080040d4   0x00000024   Code   RO           59    .text.mode_strobe_rainbow  ws2812b_fx.o
    0x080040f8   0x080040f8   0x0000001c   Code   RO           91    .text.mode_theater_chase  ws2812b_fx.o
    0x08004114   0x08004114   0x00000028   Code   RO           93    .text.mode_theater_chase_rainbow  ws2812b_fx.o
    0x0800413c   0x0800413c   0x00000018   Code   RO          159    .text.mode_tricolor_chase  ws2812b_fx.o
    0x08004154   0x08004154   0x00000018   Code   RO           97    .text.mode_twinkle  ws2812b_fx.o
    0x0800416c   0x0800416c   0x00000014   Code   RO          101    .text.mode_twinkle_fade  ws2812b_fx.o
    0x08004180   0x08004180   0x00000014   Code   RO          103    .text.mode_twinkle_fade_random  ws2812b_fx.o
    0x08004194   0x08004194   0x00000028   Code   RO           99    .text.mode_twinkle_random  ws2812b_fx.o
    0x080041bc   0x080041bc   0x00000006   Code   RO           49    .text.mode_white_to_color  ws2812b_fx.o
    0x080041c2   0x080041c2   0x00000002   PAD
    0x080041c4   0x080041c4   0x00000080   Code   RO          257    .text.running       ws2812b_fx.o
    0x08004244   0x08004244   0x0000000c   Code   RO           31    .text.sine8         ws2812b.o
    0x08004250   0x08004250   0x00000094   Code   RO          249    .text.theater_chase  ws2812b_fx.o
    0x080042e4   0x080042e4   0x00000114   Code   RO          243    .text.to_color      ws2812b_fx.o
    0x080043f8   0x080043f8   0x00000090   Code   RO          263    .text.tricolor_chase  ws2812b_fx.o
    0x08004488   0x08004488   0x000000b0   Code   RO          251    .text.twinkle       ws2812b_fx.o
    0x08004538   0x08004538   0x00000070   Code   RO          253    .text.twinkle_fade  ws2812b_fx.o
    0x080045a8   0x080045a8   0x00000020   Code   RO         1435    i.__0printf$1       mc_w.l(printf1.o)
    0x080045c8   0x080045c8   0x00000008   Code   RO         1707    i.__aeabi_errno_addr  mc_w.l(errno.o)
    0x080045d0   0x080045d0   0x0000000e   Code   RO         1769    i.__scatterload_copy  mc_w.l(handlers.o)
    0x080045de   0x080045de   0x00000002   Code   RO         1770    i.__scatterload_null  mc_w.l(handlers.o)
    0x080045e0   0x080045e0   0x0000000e   Code   RO         1771    i.__scatterload_zeroinit  mc_w.l(handlers.o)
    0x080045ee   0x080045ee   0x00000002   PAD
    0x080045f0   0x080045f0   0x00000154   Code   RO         1442    i._printf_core      mc_w.l(printf1.o)
    0x08004744   0x08004744   0x00000050   Code   RO         1651    i.free              mc_w.l(malloc.o)
    0x08004794   0x08004794   0x0000006c   Code   RO         1652    i.malloc            mc_w.l(malloc.o)
    0x08004800   0x08004800   0x00000081   Data   RO         1734    .constdata          mc_w.l(ctype_o.o)
    0x08004881   0x08004881   0x00000003   PAD
    0x08004884   0x08004884   0x00000004   Data   RO         1735    .constdata          mc_w.l(ctype_o.o)
    0x08004888   0x08004888   0x00000010   Data   RO         1340    .rodata.AHBPrescTable  system_stm32f1xx.o
    0x08004898   0x08004898   0x00000008   Data   RO         1341    .rodata.APBPrescTable  system_stm32f1xx.o
    0x080048a0   0x080048a0   0x00000100   Data   RO           36    .rodata._sineTable  ws2812b.o
    0x080049a0   0x080049a0   0x00000007   Data   RO          286    .rodata.str1.1      main.o
    0x080049a7   0x080049a7   0x00000001   PAD
    0x080049a8   0x080049a8   0x00000020   Data   RO         1768    Region$$Table       anon$$obj.o


    Execution Region RW_IRAM1 (Exec base: 0x20000000, Load base: 0x080049c8, Size: 0x00000c68, Max: 0x00005000, ABSOLUTE)

    Exec Addr    Load Addr    Size         Type   Attr      Idx    E Section Name        Object

    0x20000000   0x080049c8   0x00000004   Data   RW         1386    .data               mc_w.l(rand.o)
    0x20000004   0x080049cc   0x00000004   Data   RW         1705    .data               mc_w.l(mvars.o)
    0x20000008   0x080049d0   0x00000004   Data   RW         1706    .data               mc_w.l(mvars.o)
    0x2000000c   0x080049d4   0x00000004   Data   RW         1710    .data               mc_w.l(errno.o)
    0x20000010   0x080049d8   0x00000020   Data   RW          288    .data..L_MergedGlobals  main.o
    0x20000030   0x080049f8   0x00000008   Data   RW          617    .data..L_MergedGlobals  stm32f1xx_hal.o
    0x20000038   0x08004a00   0x00000004   Data   RW         1339    .data.SystemCoreClock  system_stm32f1xx.o
    0x2000003c   0x08004a04   0x000000e8   Data   RW          265    .data.mMode         ws2812b_fx.o
    0x20000124   0x08004aec   0x00000004   PAD
    0x20000128        -       0x00000038   Zero   RW           38    .bss..L_MergedGlobals  ws2812b.o
    0x20000160        -       0x00000024   Zero   RW          267    .bss..L_MergedGlobals  ws2812b_fx.o
    0x20000184        -       0x00000004   Zero   RW          304    .bss..L_MergedGlobals  gpio.o
    0x20000188        -       0x00000004   Zero   RW          379    .bss..L_MergedGlobals  usart.o
    0x2000018c        -       0x00000036   Zero   RW          289    .bss..L_MergedGlobals.6  main.o
    0x200001c2   0x08004aec   0x00000002   PAD
    0x200001c4        -       0x00000040   Zero   RW          374    .bss.UART1_Handler  usart.o
    0x20000204        -       0x00000040   Zero   RW          377    .bss.UART3_Handler  usart.o
    0x20000244        -       0x000000c8   Zero   RW          375    .bss.USART3_RX_BUF  usart.o
    0x2000030c        -       0x00000002   Zero   RW          369    .bss.USART3_RX_STA  usart.o
    0x2000030e        -       0x000000c8   Zero   RW          373    .bss.USART_RX_BUF   usart.o
    0x200003d6   0x08004aec   0x00000002   PAD
    0x200003d8        -       0x00000054   Zero   RW          378    .bss.__stdout       usart.o
    0x2000042c        -       0x00000044   Zero   RW          329    .bss.hdma_spi1_tx   spi.o
    0x20000470        -       0x00000058   Zero   RW          328    .bss.hspi1          spi.o
    0x200004c8        -       0x00000040   Zero   RW          344    .bss.htim2          tim.o
    0x20000508        -       0x00000040   Zero   RW          370    .bss.huart1         usart.o
    0x20000548        -       0x00000040   Zero   RW          371    .bss.huart2         usart.o
    0x20000588        -       0x00000040   Zero   RW          372    .bss.huart3         usart.o
    0x200005c8        -       0x00000004   Zero   RW          616    .bss.uwTick         stm32f1xx_hal.o
    0x200005cc        -       0x00000096   Zero   RW           35    .bss.ws2812b_array  ws2812b.o
    0x20000662   0x08004aec   0x00000006   PAD
    0x20000668        -       0x00000200   Zero   RW            2    HEAP                startup_stm32f103xb.o
    0x20000868        -       0x00000400   Zero   RW            1    STACK               startup_stm32f103xb.o


==============================================================================

Image component sizes


      Code (inc. data)   RO Data    RW Data    ZI Data      Debug   Object Name

        48          4          0          0          0       1991   dma.o
       440         24          0          0          4       3434   gpio.o
      1112        118          7         32         54       5797   main.o
       220         24          0          0        156       4180   spi.o
        36          8        236          0       1536        772   startup_stm32f103xb.o
       152          8          0          8          4       5798   stm32f1xx_hal.o
       192         28          0          0          0       8308   stm32f1xx_hal_cortex.o
       744         32          0          0          0       7105   stm32f1xx_hal_dma.o
       454         56          0          0          0       4499   stm32f1xx_hal_gpio.o
        64          8          0          0          0       1197   stm32f1xx_hal_msp.o
      1264         68          0          0          0       7193   stm32f1xx_hal_rcc.o
       672         12          0          0          0      19972   stm32f1xx_hal_spi.o
       850         12          0          0          0      37590   stm32f1xx_hal_tim.o
        62          0          0          0          0      14202   stm32f1xx_hal_tim_ex.o
       790          8          0          0          0      16693   stm32f1xx_hal_uart.o
       282         52          0          0          0       2695   stm32f1xx_it.o
        76         16         24          4          0       2120   system_stm32f1xx.o
       156          4          0          0         64       5180   tim.o
       600         44          0          0        810       6869   usart.o
       552         20        256          0        206       7122   ws2812b.o
      8268        170          0        232         36      32782   ws2812b_fx.o

    ----------------------------------------------------------------------
     17062        716        556        276       2884     195499   Object Totals
         0          0         32          0          0          0   (incl. Generated)
        28          0          1          0         14          0   (incl. Padding)

    ----------------------------------------------------------------------

      Code (inc. data)   RO Data    RW Data    ZI Data      Debug   Library Member Name

        28          0          0          0          0         68   _chval.o
       158          0          0          0          0         92   _strtoul.o
        26          0          0          0          0         80   atoi.o
        28          0          0          0          0         76   calloc.o
         8          4        133          0          0         68   ctype_o.o
         0          0          0          0          0          0   entry.o
         0          0          0          0          0          0   entry10a.o
         0          0          0          0          0          0   entry11a.o
         8          4          0          0          0          0   entry2.o
         4          0          0          0          0          0   entry5.o
         0          0          0          0          0          0   entry7b.o
         0          0          0          0          0          0   entry8b.o
         8          4          0          0          0          0   entry9a.o
         8          4          0          4          0         68   errno.o
        30          0          0          0          0          0   handlers.o
        36          8          0          0          0         68   init.o
       188         20          0          0          0        160   malloc.o
        36          0          0          0          0        108   memseta.o
         0          0          0          8          0          0   mvars.o
       372         14          0          0          0        184   printf1.o
        36         10          0          4          0        136   rand.o
       112          0          0          0          0         88   strtol.o
        44          0          0          0          0         80   uidiv.o

    ----------------------------------------------------------------------
      1134         68        136         16          0       1276   Library Totals
         4          0          3          0          0          0   (incl. Padding)

    ----------------------------------------------------------------------

      Code (inc. data)   RO Data    RW Data    ZI Data      Debug   Library Name

      1130         68        133         16          0       1276   mc_w.l

    ----------------------------------------------------------------------
      1134         68        136         16          0       1276   Library Totals

    ----------------------------------------------------------------------

==============================================================================


      Code (inc. data)   RO Data    RW Data    ZI Data      Debug   

     18196        784        692        292       2884     196103   Grand Totals
     18196        784        692        292       2884     196103   ELF Image Totals
     18196        784        692        292          0          0   ROM Totals

==============================================================================

    Total RO  Size (Code + RO Data)                18888 (  18.45kB)
    Total RW  Size (RW Data + ZI Data)              3176 (   3.10kB)
    Total ROM Size (Code + RO Data + RW Data)      19180 (  18.73kB)

==============================================================================

