:020000040800F2
:10000000C80D002035020008DB1F0008DD1F0008B6
:10001000E11F0008E51F0008E91F000800000000BC
:10002000000000000000000000000000ED1F0008BC
:10003000EF1F000800000000F11F0008F31F000878
:100040004F0200084F0200084F0200084F0200084C
:100050004F0200084F0200084F0200084F0200083C
:100060004F0200084F0200084F0200084F0200082C
:100070004F0200084F0200084F0200084F0200081C
:100080004F0200084F0200084F0200084F0200080C
:100090004F0200084F0200084F0200084F020008FC
:1000A0004F0200084F0200084F0200084F020008EC
:1000B0004F0200084F0200084F0200084F020008DC
:1000C0004F0200084F0200084F0200084F020008CC
:1000D0004F020008CF2100084F0200084723000804
:1000E0004F0200084F0200084F02000800F002F81B
:1000F00000F090F80AA090E8000C82448344AAF132
:100100000107DA4501D100F085F8AFF2090EBAE82F
:100110000F0013F0010F18BFFB1A43F0010318473B
:1001200094430000B4430000103A24BF78C878C15B
:10013000FAD8520724BF30C830C144BF04680C60ED
:10014000704700000023002400250026103A28BF35
:1001500078C1FBD8520728BF30C148BF0B60704739
:100160006E2902F0FB85702902F06D87662904F084
:100170001D81652904F01A81672904F0178161291E
:1001800004F0168103681B0A28BF41F08001692929
:1001900002F0A885642902F0A585752902F0A285E0
:1001A0006F2902F0FA86782902F03987E92902F0EE
:1001B0009586E42902F09286F52902F08F86EF29D0
:1001C00002F0F786F82902F038870368DB0928BFB8
:1001D00041F08001632902F00486732902F0098648
:1001E000E32903F07183F32903F07683002070473D
:1001F0001FB503F0C7FB04000020002104F0C0F885
:10020000401C60600020002104F0A4F8E0601FBDE5
:1002100010B510BD03F088FB1146FFF7E9FF01F0B0
:10022000D5FE03F065FC03B4FFF7F2FF03BC01F059
:100230004BFF00000948804709480047FEE7FEE7FA
:10024000FEE7FEE7FEE7FEE7FEE7FEE7FEE7FEE786
:1002500004480549054A064B70470000530300084F
:10026000ED000008C8070020C80D0020C8090020C4
:10027000C80900200CB50020019000906C4800686F
:1002800040F480306A49086000BF6948006800F4A3
:10029000003000900198401C0190009818B9019816
:1002A000B0F5A06FF1D16248006800F4003010B1E1
:1002B0000120009001E0002000900098012843D127
:1002C0005C48006840F010005A4908600846006821
:1002D00020F0030008600846006840F00200086053
:1002E000534840685249486008464068486008469C
:1002F000406840F4806048600846406820F47C1004
:1003000048600846406840F4E810486008460068C5
:1003100040F08070086000BF4548006800F0007041
:100320000028F9D04248406820F003004049486066
:100330000846406840F00200486000BF3C48406802
:1003400000F00C000828F9D10CBD10B5FFF792FFA2
:1003500010BD10B53648006840F00100344908600F
:1003600008464068344908403149486008460068FA
:10037000324908402E4908600846006820F4802071
:1003800008600846406820F4FE0048604FF41F00F3
:100390008860FFF7DAFF4FF000602949086010BD60
:1003A00010B5002100200022214B5B6803F00C01F6
:1003B00021B1042906D0082928D107E0214B224C7D
:1003C000236027E01F4B204C236023E0184B5B6821
:1003D00003F47010164B5B6803F48032022303EBC6
:1003E000904022B9194B4343174C23600DE0104B4A
:1003F0005B6803F4003323B1144B4343124C236076
:1004000003E0104B4343104C236003E00D4B0E4CB4
:10041000236000BF00BF064B5B68C3F303130C4CA3
:10042000E15C094B1B68CB40074C236010BD00000A
:1004300000100240002002400000FFF8FFFFF6FE1F
:1004400008ED00E000127A000000002000093D00E5
:100450000400002031490143314A1160704770B5F2
:10046000002100230F22C47804B32D4C246804F427
:10047000E064C4F5E064210AC1F10403CA40447891
:1004800004FA03F18478144021430901254C0678CD
:10049000A155047804F01F050124AC4005786D11C6
:1004A000AD0005F1E025C5F8004109E0047804F04D
:1004B0001F050124AC401C4D0678761145F82640F6
:1004C00070BD1A4A0A400243154B1B1F1A60704741
:1004D00039B1134A121D12680243114B1B1D1A60D9
:1004E00006E00F4A121D126882430D4B1B1D1A6055
:1004F0007047042808D14FF0E021096941F0040158
:100500004FF0E022116107E04FF0E021096921F08E
:1005100004014FF0E0221161704700000000FA056D
:100520000CED00E000E400E080E100E080FFFF1F50
:1005300010B50446CC48844208D10121042000F0C3
:100540002DFB0021042000F029FB46E0C74884422F
:1005500008D10121082000F021FB0021082000F033
:100560001DFB3AE0C248844208D10121102000F06E
:1005700015FB0021102000F011FB2EE0BD48844245
:1005800008D10121202000F009FB0021202000F0EB
:1005900005FB22E0B848844208D10121402000F048
:1005A000FDFA0021402000F0F9FA16E0B348844239
:1005B00008D10121802000F0F1FA0021802000F014
:1005C000EDFA0AE0AE48844207D10121801500F01F
:1005D000E5FA0021A01500F0E1FA10BD10B50121E7
:1005E000084600F0DBFA0021012000F0D7FA10BD28
:1005F0002DE9F041024600250026002000230024BA
:10060000002791F803C00CF00F0591F803C00CF01F
:10061000100CBCF1000F03D091F802C04CEA0505A4
:1006200091F800C0BCF1000F31D0146800202BE01D
:100630004FF0010C0CFA00F3B1F800C00CEA03060D
:100640009E4220D183004FF00F0C0CFA03F7BC43FD
:1006500005FA03FC4CEA040491F803C0BCF1280F2E
:1006600006D14FF0010C0CFA00FCC2F814C00AE0ED
:1006700091F803C0BCF1480F05D14FF0010C0CFA02
:1006800000FCC2F810C0401C0828D1D31460B1F897
:1006900000C0BCF1FF0F34DD546800202EE000F1F3
:1006A000080C4FF0010808FA0CF3B1F800C00CEA8E
:1006B00003069E4221D183004FF00F0C0CFA03F782
:1006C000BC4305FA03FC4CEA040491F803C0BCF1F6
:1006D000280F05D100F1080C08FA0CF8C2F81480B4
:1006E00091F803C0BCF1480F07D100F1080C4FF09E
:1006F000010808FA0CF8C2F81080401C0828CED374
:100700005460BDE8F0814FF6FF71018002218170D5
:100710000421C17070470246002093680B400BB162
:10072000012000E0002070470146886880B27047D1
:1007300002460020D3680B400BB1012000E00020EE
:1007400070470146C86880B27047016170474161D7
:1007500070470AB1016100E041617047C1607047B4
:100760004FF480320A4382618161826182698269C9
:10077000704702460020434B18684FF680731840BC
:1007800040EA021008433F4B186070473E49C86179
:100790007047F0B50A46002300240021002500F030
:1007A0000046B6F1004F02D1364EF16901E0354EF8
:1007B0007168C0F3034583B200F44016B6F5401FDC
:1007C00008D121F070612F4E766826F070662D4FAB
:1007D0007E6012E000F48016B6F5801F06D1032675
:1007E00006FA05F4A14341F0706106E0460D3601BA
:1007F00003FA06F6B14341F0706122B1460D3601AD
:1008000003FA06F6314300F00046B6F1004F02D17C
:100810001C4EF16101E01B4E7160F0BD30B500224D
:100820008B071C0F0F2303FA04F2164B08338C10AE
:1008300053F824309343134C08348D1044F825307A
:1008400023468C1053F824308C07240F00FA04F44C
:1008500023430C4C08348D1044F8253030BD0A4930
:10086000DC3108607047000000080140000C0140C6
:10087000001001400014014000180140001C01401C
:10088000002001400000014000002042DF480068D5
:1008900040F00100DD49086008464068DC49084036
:1008A000DA49486008460068DA490840D7490860D4
:1008B0000846006820F4802008600846406820F45C
:1008C000FE0048604FF41F0088607047CF490968F8
:1008D00021F48031CD4A11601146096821F480214C
:1008E0001160B0F5803F03D0B0F5802F0ED106E047
:1008F000C649096841F48031C44A116007E0C34920
:10090000096841F4A021C14A116000E000BF00BFA6
:10091000704710B501460022002300204A11012A29
:1009200002D1BA4C236806E0022A02D1B74C236AEE
:1009300001E0B64C636A01F01F02012494401C40A0
:100940000CB1012000E0002010BD38B5002000905F
:100950000024002500BF3120FFF7DBFF054600988B
:10096000401C00900098B0F5A06F01D0002DF2D08F
:100970003120FFF7CEFF08B1012400E0002420461B
:1009800038BD01460020A14A106820F0F80040EA76
:10099000C10010607047A0490860704702460020FF
:1009A0009A4B586820F47C1042EA01031843974B95
:1009B0005860704798490866704701460020934A7E
:1009C000506820F003000843506070478F4840682B
:1009D00000F00C007047014600208C4A506820F05F
:1009E000F00008435060704701460020874A506875
:1009F00020F4E06008435060704701460020834ABD
:100A0000506820F4605040EAC1005060704729B13E
:100A10007E4A527A02437D4B5A7204E07B4A527AF4
:100A200082437A4B5A7270477B49D83108607047CD
:100A300001460020754A506820F440400843506049
:100A400070470021714A20321170704A82F82010DC
:100A5000012802D004280AD104E001216B4A203287
:100A6000117005E00521694A2032117000E000BFD5
:100A700000BF70476949086070476449096A0143CB
:100A8000624A11627047654944390860704730B561
:100A900000210022002400235C4D6D6805F00C014C
:100AA00021B1042905D0082923D105E05C4D05605A
:100AB00022E05B4D05601FE0544D6D6805F4701237
:100AC000524D6D6805F48034022505EB92421CB945
:100AD000544D554305600BE04C4D6D6805F40035F1
:100AE0001DB1504D5543056002E04D4D5543056025
:100AF00002E04B4D056000BF00BF444D6D6805F03E
:100B0000F0010909484D6B5C0568DD4045603F4DCB
:100B10006D6805F4E061090A434D6B5C4568DD4092
:100B200085603A4D6D6805F46051C90A3E4D6B5CB5
:100B30004568DD40C560354D6D6805F44041890B61
:100B40003A4D6B5CC568B5FBF3F5056130BD29B165
:100B50002E4A526902432D4B5A6104E02B4A5269D6
:100B600082432A4B5A61704729B1284A926902434D
:100B7000264B9A6104E0254A92698243234B9A618D
:100B8000704729B1214AD2690243204BDA6104E05F
:100B90001E4AD26982431D4BDA61704729B11B4A54
:100BA000D2680243194BDA6004E0184AD2688243E3
:100BB000164BDA60704729B1144A12690243134B8D
:100BC0001A6104E0114A12698243104B1A6170479E
:100BD00012494039086070470F49C86470470B4993
:100BE000C87170470948406A40F080700749486200
:100BF000704701460020054A92680A400AB1012068
:100C000000E00020704701498872704700100240E0
:100C10000000FFF8FFFFF6FE00004242800442425F
:100C200000127A0000093D0014000020240000207A
:100C300010B50446FB48844209D101218803FFF71F
:100C4000ADFF00214FF48040FFF7A8FF32E0F648E7
:100C5000844209D101214804FFF7ADFF00214FF480
:100C60000030FFF7A8FF25E0F048844209D10121B8
:100C70008804FFF7A0FF00214FF48020FFF79BFFBF
:100C800018E0EB48844209D10121C804FFF793FF23
:100C900000214FF40020FFF78EFF0BE0E54884426F
:100CA00008D101210805FFF786FF00214FF48010CD
:100CB000FFF781FF10BD2DE9F04786B005460E46CF
:100CC0000024A24600BFA1460027B08900B100BFA2
:100CD0002F462C8A4CF6FF700440F08804432C8287
:100CE000AC894EF6F3100440B0883189084371890D
:100CF00008430443AC81AC8A4FF6FF400440B089FE
:100D00000443AC8201A8FFF7C2FEC648874202D165
:100D1000DDF810A001E0DDF80CA0A88900F4004087
:100D200040B10AEBCA0000EB0A1031684900B0FB81
:100D3000F1F807E00AEBCA0000EB0A1031688900FD
:100D4000B0FBF1F86420B8FBF0F004012009642145
:100D500001FB1089A88900F4004040B1322000EB6B
:100D6000C900B0FBF1F000F00700044308E03220B6
:100D700000EB09106421B0FBF1F000F00F00044318
:100D80002C8106B0BDE8F0874FF4165101600021B8
:100D90008180C18001810C214181002181817047C6
:100DA00010B502460020108A4FF2FF0318400B884E
:100DB0004C8823438C882343CC88234318431082D8
:100DC00010BD0021018041808180C180704721B128
:100DD000828942F40052828104E082894DF6FF73D9
:100DE0001A4082817047F0B5034600240026002592
:100DF000002040F66A17B94200D100BF1846C1F37F
:100E0000421401F01F06012707FA06F5012C01D153
:100E10000C3004E0022C01D1103000E014301AB183
:100E200007682F43076002E00768AF430760F0BD23
:100E30001AB1838A0B43838202E0838A8B438382C5
:100E40007047028A4FF6F0731A400282028A0A4300
:100E50000282704782894FF2FF731A408281828931
:100E60000A438281704721B1828942F00202828165
:100E700004E082894FF6FD731A4082817047028A2E
:100E80004FF6DF731A400282028A0A4302827047D9
:100E900021B1028A42F48042028204E0028A4BF6C7
:100EA000FF731A4002827047C1F3080282807047C4
:100EB00001468888C0F308007047818941F001012C
:100EC00081817047028BD2B20283028B42EA0122F7
:100ED00002837047028B02F47F420283028B0A4333
:100EE0000283704721B1828A42F02002828204E0AC
:100EF000828A4FF6DF731A408282704721B1828A5C
:100F000042F01002828204E0828A4FF6EF731A40A8
:100F10008282704721B1828A42F00802828204E014
:100F2000828A4FF6F7731A408282704721B1828914
:100F300042F40042828103E08289C2F30E02828180
:100F4000704721B1828A42F40062828204E0828A80
:100F50004FF2FF731A4082827047828A4FF6FB730A
:100F60001A408282828A0A438282704721B1828A31
:100F700042F00202828204E0828A4FF6FD731A4038
:100F80008282704702460020B1F5007F00D100BF89
:100F900013880B400BB1012000E00020704701F4E2
:100FA0000072B2F5007F00D100BFCA4302807047D3
:100FB00070B50246002400230025002040F66A1682
:100FC000B14200D100BFC1F3421501F01F03012659
:100FD00006FA03F3012D02D19689334006E0022D73
:100FE00002D1168A334001E0968A33400C12012662
:100FF00006FA04F41688344013B10CB1012000E065
:10100000002070BD10B50022002340F66A14A142F2
:1010100000D100BF0A1201249440A3B2DC43048033
:1010200010BD00000038014000440040004800406E
:10103000004C00400050004001460020FE4A10686D
:1010400000F03800084310607047FB49096821F040
:101050000801F94A1160114609680143116070479F
:10106000F549096821F01001F34A11601146096839
:10107000014311607047F148EF494860F04848600B
:101080007047EE48EC494860ED4848607047EA48D0
:10109000006940F08000E84908617047E64800694F
:1010A00040F08000E449086170470420E249C968C3
:1010B00001F0010109B101200EE0DF49C96801F02A
:1010C000040109B1022007E0DB49C96801F0100101
:1010D00009B1032000E00420704700B50246042354
:1010E000FFF7E3FF034603E0FFF7DFFF0346521E6F
:1010F000012B01D1002AF7D102B90523184600BD02
:1011000030B5044604254FF43020FFF7E6FF0546CE
:10111000042D17D1C848006940F00200C649086193
:1011200008464461006940F0400008614FF43020F7
:10113000FFF7D3FF0546C048006941F6FD7108403E
:10114000BD490861284630BD10B504244FF4302055
:10115000FFF7C3FF0446042C16D1B748006940F0DE
:101160000400B54908610846006940F04000086184
:101170004FF43020FFF7B1FF0446AF48006941F655
:10118000FB710840AC490861204610BD00B502461D
:101190000423FFF78AFF034603E0FFF786FF0346B9
:1011A000521E012B01D1002AF7D102B9052318469E
:1011B00000BD10B504244FF43020FFF7E7FF0446CC
:1011C000042C16D19C48006940F004009A4908613B
:1011D0000846006940F0400008614FF43020FFF7F6
:1011E000D5FF04469448006941F6FB7108409249D6
:1011F0000861204610BD00208F49C96901F0020135
:1012000009B1012000E00020704730B5A525042475
:10121000FFF7F1FF00B100254FF43020FFF75DFF2D
:101220000446042C3AD18548834988608448886004
:101230000846006940F0200008610846006940F057
:10124000400008614FF43020FFF747FF0446042CAC
:101250001BD17948006941F6DF7108407649086181
:101260000846006940F01000086176480580E002F9
:10127000FFF733FF0446052C10D06F48006941F694
:10128000EF7108406C49086108E0052C06D06A48F7
:10129000006941F6EF71084067490861204630BD9A
:1012A00078B506460C46042500200090E802FFF7BA
:1012B00014FF0546042D24D15F48006940F0010069
:1012C0005D4908613480E802FFF707FF0546042DF9
:1012D00010D1B01C0090200C00990880E802FFF7A4
:1012E000FCFE05465448006941F6FE71084052492B
:1012F000086106E05048006941F6FE7108404E4919
:101300000861284678BD70B504460D460426F002F3
:10131000FFF7E3FE0646042E11D14748006940F06E
:101320000100454908612580F002FFF7D6FE064618
:101330004148006941F6FE7108403F490861304666
:1013400070BD70B505460E460424E002FFF7C5FEE9
:101350000446042C17D139483749886038488860DA
:101360000846006940F0100008612E80E002FFF797
:10137000B4FE0446052C06D02F48006941F6EF71F3
:1013800008402D490861204670BD2DE9F043044610
:101390004FF6FF763746B046B1460425E443E6B241
:1013A000C4F30727C4F307484FEA1469E802FFF7BC
:1013B00094FE0546042D49D120481F4988602048E5
:1013C00088600846006940F010000861FF2E06D0D2
:1013D0001C4808300680E802FFF77FFE0546042D12
:1013E00008D1FF2F06D017480A300780E802FFF720
:1013F00074FE0546042D0AD1B8F1FF0F07D011483D
:101400000C30A0F80080E802FFF767FE0546042DC7
:101410000AD1B9F1FF0F07D00A480E30A0F80090AA
:10142000E802FFF75AFE0546052D0FD00248006975
:1014300041F6EF71084007E00020024023016745B4
:10144000AB89EFCD00F8FF1F664908612846BDE86B
:10145000F08330B5054604244FF43020FFF73DFEFD
:101460000446042C41D160485E4988605F4888602A
:101470000846006940F0200008610846006940F015
:10148000400008614FF43020FFF727FE0446042C8B
:1014900022D15448006941F6DF7108405149086182
:1014A0000846006940F0100008611DB10020504955
:1014B000088002E0A5204E4908804FF43020FFF755
:1014C0000CFE0446052C10D04648006941F6EF7129
:1014D00008404449086108E0052C06D041480069ED
:1014E00041F6DF7108403F490861204630BDF0B544
:1014F00005460E46174604243B483A4988603B4857
:101500008860E002FFF7E9FD0446042C19D1354854
:10151000006940F010003349086147F0F80030439B
:1015200028433349891C0880E002FFF7D6FD0446B2
:10153000052C06D02B48006941F6EF710840294977
:1015400008612046F0BD2748C069800870472548DB
:10155000006A704700202349096801F0200109B1A1
:10156000012000E00020704729B11E4A12690243A1
:101570001C4B1A6104E01B4A12698243194B1A6121
:10158000704701460020012908D1164AD26902F0AD
:1015900001020AB1012008E0002006E0114AD268E9
:1015A0000A400AB1012000E0002070470D49C860E0
:1015B000704704200B49C96801F0010109B10120FD
:1015C0000EE00849C96801F0040109B1022007E0F2
:1015D0000449C96801F0100109B1032000E00420AA
:1015E000704700000020024023016745AB89EFCD22
:1015F00000F8FF1F10B50446FA48844208D10121C3
:101600004015FFF7CBFA00216015FFF7C7FA17E086
:10161000F548844208D101210015FFF7BFFA0021E7
:101620002015FFF7BBFA0BE0F048844208D10121F6
:10163000C803FFF7B3FA00214FF40040FFF7AEFAFA
:1016400010BD30B50246002000235068E84C204011
:101650000D790C6844EA0524204350609068E54CFD
:101660002040D1E902542C434D7944EA45042043FB
:101670009060D06A20F470000C7C641EE4B22343B6
:1016800040EA0350D06230BD002101600171417118
:101690008160C16001210174704721B1826842F00C
:1016A0000102826003E0826822F0010282607047DA
:1016B00021B1826842F48072826003E0826822F481
:1016C00080728260704710B50023CBB21AB14468B3
:1016D0001C43446002E044689C43446010BD816840
:1016E00041F0080181607047014600208A6802F0DD
:1016F00008020AB1012000E000207047816841F033
:10170000040181607047014600208A6802F00402EB
:101710000AB1012000E00020704721B1826842F444
:10172000A002826003E0826822F4A0028260704717
:10173000014600208A6802F480020AB1012000E01C
:101740000020704710B50A4600210023416821F4AB
:101750006041531E41EA4331416010BD21B14268EE
:1017600042F40062426003E0426822F40062426098
:101770007047F0B504460D4600200021092D11DD0B
:10178000E068A5F10A0606EB4607072606FA07F108
:101790008843A5F10A0606EB460603FA06F108435C
:1017A000E0600CE0206905EB4507072606FA07F123
:1017B000884305EB450603FA06F108432061072A32
:1017C0000FDA606B561E06EB86071F2606FA07F136
:1017D0008843561E06EB860605FA06F10843606349
:1017E00022E00D2A0FDA206BD61F06EB86071F2694
:1017F00006FA07F18843D61F06EB860605FA06F1BE
:101800000843206310E0E06AA2F10D0606EB8607AC
:101810001F2606FA07F18843A2F10D0606EB86069D
:1018200005FA06F10843E062F0BD21B1826842F496
:101830008012826003E0826822F480128260704726
:101840000146C86C80B2704766484C3000687047EB
:1018500021B1426842F48062426003E0426822F4AF
:1018600080624260704721B1426842F48052426017
:1018700003E0426822F48052426070470A46002129
:10188000816821F4E04111438160704721B1826891
:1018900042F40042826003E0826822F400428260E7
:1018A000704721B1826842F40212826003E08268CC
:1018B00022F4021282607047014600208A6802F416
:1018C00000120AB1012000E000207047F0B5044684
:1018D0001546002000220026092911DDE068A1F14B
:1018E0000A0707EB470C072707FA0CF29043A1F110
:1018F0000A0707EB470703FA07F21043E0600CE022
:10190000206901EB410C072707FA0CF2904301EB29
:10191000410703FA07F210432061A06BC0F30156A0
:10192000EF1C06F1010CA7EB0C0707EB870C1F2738
:1019300007FA0CF29043EF1C06F1010CA7EB0C0721
:1019400007EB870701FA07F21043A063F0BD10B55B
:101950000A4600210023816B21F44011531E41EA05
:101960000351816310BD08B5002300930090009BD4
:101970000B440093009B1A6008BD08B50246002086
:101980000090009201F12800009B184400900098FC
:10199000006880B208BD0A4600214168164B194014
:1019A0001143416070474162826270470A460021DC
:1019B000416821F01F0111434160704740B109495E
:1019C0000831096841F40001064A0832116007E055
:1019D00004490831096821F40001024A0832116003
:1019E000704700000024014000280140003C0140F5
:1019F000FFFEF0FFFDF7F1FFFFFD3FFF0246002075
:101A000013680B400BB1012000E000207047CA436F
:101A10000260704770B502460020002300240B12BC
:101A20005568CEB205EA060415681D4015B10CB123
:101A3000012000E0002070BD00220A12D3430360A1
:101A40007047000001684FF6FE72114001600021EE
:101A5000016041608160C1608D49884208D18C4934
:101A60000839496841F00F01894A083A51608AE013
:101A700087491431884208D185490839496841F0BD
:101A8000F001834A083A51607DE08149283188425B
:101A900008D17F490839496841F470617C4A083AA5
:101AA000516070E07A493C31884208D17849083960
:101AB000496841F47041764A083A516063E07449DC
:101AC0005031884208D172490839496841F470217F
:101AD0006F4A083A516056E06D496431884208D136
:101AE0006B490839496841F47001694A083A516004
:101AF00049E067497831884208D165490839496821
:101B000041F07061624A083A51603CE061498842A4
:101B100006D1011F096841F00F01021F116032E078
:101B20005C491431884208D15A49091F096841F0BB
:101B3000F001584A121F116025E0564928318842A9
:101B400008D15449091F096841F47061514A121FB4
:101B5000116018E04F493C31884208D14D49091FB6
:101B6000096841F470414B4A121F11600BE049496A
:101B70005031884207D14749091F096841F4702153
:101B8000444A121F1160704710B50022026847F6E0
:101B9000F0739A430C6A8B6823430C6923434C69A6
:101BA00023438C692343CC6923434C6A23438C6AC7
:101BB00023431A430260CB6843600B6883604B6821
:101BC000C36010BD0021016041608160C16001619E
:101BD00041618161C161016241628162704721B1ED
:101BE000026842F00102026004E002684FF6FE73F0
:101BF0001A40026070471AB103680B43036002E0A9
:101C000003688B4303607047416070470146486832
:101C100080B2704701460020002201F080531BB1C2
:101C20001C4B083B1A6802E0194B083B1A6802EA91
:101C300001030BB1012000E00020704700F080514B
:101C400019B11449091F086002E0114908394860B8
:101C5000704701460020002201F080531BB10D4B5C
:101C6000083B1A6802E00A4B083B1A6802EA0103C3
:101C70000BB1012000E00020704700F0805119B145
:101C80000449091F086002E00149083948607047AB
:101C9000080002400804024010B50446BE488442D1
:101CA00008D101218014FEF779FF0021A014FEF76E
:101CB00075FF16E0B948844208D101210014FEF7EF
:101CC0007AFF00212014FEF776FF0AE0B448844230
:101CD00007D10121C013FEF76EFF0021E013FEF7CC
:101CE0006AFF10BD10B50022028802F441520B8831
:101CF0004C8823438C882343CC8823430C8923437B
:101D00004C8923438C892343CC8923431A43028083
:101D1000838B4FF2FF74234083830B8A038210BDB1
:101D20002DE9F04F85B005460C464FF0000902271B
:101D30004FF000084FF0010B0026B246A88B4FF27F
:101D400040010840A88302202884B5F81C90A068B0
:101D5000022801D100BF38E0A08810B94FF0010B74
:101D600001E04FF0020B8D48854200D100E000BF3A
:101D70006846FEF78CFEDDF800A0E088B0F5007F35
:101D80000AD14FEA1A2000EB80004000A168B0FBA6
:101D9000F1F0401D86B20BE04FEA4B10BAFBF0F0B9
:101DA00000EB80004000A168B0FBF1F0401D86B25E
:101DB0000A20B6FBF0F606F00108A6EB0800C0F317
:101DC0004F074FF6FF7000EA0828022F01DBFF2FB4
:101DD00002DD02274FF00008E08840EA080038439F
:101DE0002884A088A1890843618808432188084382
:101DF00040F4006040EA0909A5F81C9005B0BDE870
:101E0000F08F0021018041808180C180018141816A
:101E10008181C181072101827047002101804180B9
:101E20008180C1800221816000218181704721B1C0
:101E3000028842F04002028004E002884FF6BF733D
:101E40001A400280704721B1828B42F48062828303
:101E500004E0828B4FF6FF331A408283704730B51F
:101E6000002400230C110125A540ABB21AB18588CE
:101E70001D43858002E085889D43858030BD1AB171
:101E800083880B43838002E083888B438380704781
:101E9000818170470146888970474FF6FF62914201
:101EA00004D0028842F48072028004E002884FF677
:101EB000FF631A400280704721B1828842F0040219
:101EC000828004E082884FF6FB731A40828070475C
:101ED00002884FF2FF731A40028002880A43028090
:101EE0007047018841F480510180704721B1028818
:101EF00042F40052028004E002884DF6FF731A405B
:101F00000280704702460020012901D0108B00E0BA
:101F1000908A70470146088A7047B1F5804F04D116
:101F2000028842F48042028004E002884BF6FF738C
:101F30001A40028070470246002013890B400BB103
:101F4000012000E000207047CA4302817047F0B5CD
:101F50000246002000240023002501F00F0701267F
:101F6000BE40B4B20B1101269E40B3B2968806EA79
:101F700003051689264016B10DB1012000E00020AE
:101F8000F0BD10B5002201F00F040123A3409AB266
:101F9000D343038110BD00000030014000380040F1
:101FA000003C004010B54FF4FA7000F03AF800F031
:101FB00058F800F0AFFC4FF4E13000F0BCF800F04E
:101FC0000EFA00F063FA00F09DFA10BDFFF7EAFF89
:101FD00002E0142000F0A4FBFBE7704700BFFEE71F
:101FE00000BFFEE700BFFEE700BFFEE77047704797
:101FF0007047704700EBC001C9004FF0E02251610B
:10200000002191610521116100BF4FF0E0210969B4
:1020100001F480310029F8D004214FF0E022116151
:10202000704700B5034603E04FF47A70FFF7E2FF14
:10203000181EA3F101018BB2F6D100BD10B5044604
:1020400003E04FF47A70FFF7ECFF201EA4F10101CA
:102050008CB2F6D110BD10B54FF4A060FEF7FAF9BE
:1020600010BD10B5FEF712FC4FF48030FEF72EFCC9
:10207000FEF76BFC0446012C24D14FF4E011000460
:10208000FEF78CFC0020FEF7A6FCA002FEF7ACFCDD
:102090000020FEF7B2FC0220FEF7CEFF1020FEF774
:1020A000DFFF0120FEF786FC00BF3920FEF731FC80
:1020B0000028FAD00220FEF780FC00BFFEF786FC65
:1020C0000828FBD110BD000000BF704700BF9E4A2A
:1020D000128802F04002002AF9D0C2B29A4B1B1DAE
:1020E0001A8070470FB410B5B4B0002437A8009020
:1020F000C92101A8009B369A00F084FC0EE020461E
:10210000621CD4B201AA115C8F48FEF7CDFE00BF5D
:1021100040218D48FEF736FF0028F9D0C82C04DA9C
:1021200001A800F083FDA042E9D80020009034B05F
:1021300010BC5DF814FB10B586B00446012144F2D2
:102140000400FEF711FD4FF40070ADF814000320F9
:102150008DF8160018208DF8170005A97B48FEF7AA
:1021600047FA4FF48060ADF8140004208DF8170092
:1021700005A97648FEF73CFA25208DF800000320DB
:102180008DF801008DF8020001208DF803006846EB
:10219000FEF765F901940020ADF80800ADF80A00DB
:1021A000ADF80C00ADF810000C20ADF80E0001A940
:1021B0006548FEF780FD012240F225516248FEF796
:1021C00012FE01216048FEF702FE06B010BD10B5F8
:1021D00040F225515C48FEF7EBFE002838D05A4803
:1021E000FEF766FEC4B2214659A000F025FC59480E
:1021F000008800F4004058BB5648008800F4804036
:1022000060B10A2C03D000205249088020E05148D8
:10221000008840F400404F49088019E00D2C06D199
:102220004C48008840F480404A49088010E0494802
:102230000088C0F30D0048490C5446480088401CF3
:102240004449088008460088C72801DD002008802E
:1022500010BD0FB410B5B4B0002437A80090C92148
:1022600001A8009B369A00F0CDFB0EE02046621CD0
:10227000D4B201AA115C3948FEF716FE00BF402116
:102280003648FEF77FFE0028F9D0C82C04DA01A8F2
:1022900000F0CCFCA042E9D80020009034B010BC83
:1022A0005DF814FB10B586B0044601210820FEF746
:1022B0005BFC01218804FEF764FC4FF40060ADF87C
:1022C000140004208DF8170005A92548FEF790F9A1
:1022D0004FF48060ADF8140003208DF8160018202C
:1022E0008DF8170005A91E48FEF782F90194002019
:1022F000ADF80800ADF80A00ADF80C00ADF810001C
:102300000C20ADF80E0001A91448FEF7D4FC002201
:1023100040F225511148FEF766FD01210F48FEF7F6
:1023200056FD4FF4E060FEF795F827208DF8000089
:1023300000208DF8020001208DF803006846FEF7AA
:102340008EF806B010BD704700380140000801400B
:10235000256300002C0000203800002000480040C9
:10236000000C014000B58BB04448FFF76BFB4448BC
:102370000090444801900020029002200390002029
:102380000490802005904000069080000790202057
:1023900008900002099000200A9069463748FFF72C
:1023A000F3FB01213548FFF71AFC0BB000BD08B55F
:1023B00001211C20FEF7D8FB01210846FEF7C7FBD0
:1023C00001214802FEF7D0FB3020ADF800000020CC
:1023D0008DF8030069462C48FEF70AF908BD00B5E0
:1023E00085B0FFF7E4FFFFF7BDFF0020009001205C
:1023F0008DF804008DF805004FF460200290002055
:10240000039002208DF8100069461D484C38FFF7F4
:1024100018F903230122042119484C38FFF7A9F9C0
:1024200003230222052116484C38FFF7A2F90121A7
:1024300013484C38FFF73CF9012111484C38FFF79D
:102440002CF90F484C38FFF74AF900BF0C484C38BC
:10245000FFF74AF90028F9D109484C38FFF74EF93F
:1024600000BF07484C38FFF74EF90028F9D1012189
:1024700003484C38FFF751F905B000BD0800024091
:102480004C240140300000200008014008B5012123
:102490000420FEF769FB0320ADF8000048208DF80A
:1024A000030069460148FEF7A3F808BD0008014093
:1024B00010B50021F748FFF792FB4FF40070FFF7CB
:1024C000BDFB4FF4B461F348FFF79EFB0121F148D7
:1024D000FFF785FB10BD70B500240EE0002508E075
:1024E000E02004EB4401EC4A02EBC1014855681CB2
:1024F000C5B2182DF4DB601C84B23C2CEEDBFFF778
:10250000D7FF70BD00B591B001210420FEF72CFB70
:1025100001210803FEF728FB01210846FEF717FBFF
:102520008020ADF8400018208DF8430003208DF87E
:10253000420010A9D948FEF75BF84FF44040ADF8CF
:102540002C004FF48270ADF82E000020ADF8300062
:10255000ADF832000120ADF834004002ADF836008D
:102560001020ADF838000020ADF83A000720ADF893
:102570003C000BA9CA48FFF7B5FB0121C848FFF78B
:1025800056FC01220221C648FFF779FCC148FFF73B
:1025900059FAC3480C300090BF48019010200290B7
:1025A0004FF4B46003900020049080200590002038
:1025B0000690079008904FF48050099000200A90F0
:1025C0006946B448FFF7E0FAFFF785FF6420FFF79C
:1025D00028FD11B000BD0346080440EA0320104363
:1025E000704730B502463C2A13DA00200FE001FAAA
:1025F00000F303F400030BB1F82300E0E02302EB47
:102600004204A54D05EBC4042354431CD8B218283A
:10261000EDDB30BD2DE9F04105460E4617469846E4
:102620003C2D17DA002413E0424639463046FFF7C6
:10263000D2FFA04000F4000008B1F82000E0E02044
:1026400005EB4501944A02EBC1010855601CC4B278
:10265000182CE9DBBDE8F08110B50446C4F1FF0495
:10266000552C0BDA04EB4401CAB204EB4401C1F16E
:10267000FF01C8B20021FFF7AEFF10BDAA2C0EDA91
:10268000A4F15500C4B204EB4400C0F1FF00C2B293
:1026900004EB4400C1B20020FFF79DFFEDE7A4F179
:1026A000AA00C4B204EB4402C2F1FF02D1B204EBAF
:1026B0004402D0B20022FFF78EFFDEE770B5054678
:1026C0000E4600240AE029462046FFF78AFFFFF75E
:1026D000EFFE3046FFF7A5FC601C84B23C2CF2DB19
:1026E00070BD2DE9F0410646002515E000240AE002
:1026F0006119C8B2FFF7B0FF074639462046FFF719
:1027000070FF601C84B23C2CF2DBFFF7D1FE304638
:10271000FFF787FC681C85B2FF2DE7DDBDE8F0817F
:102720002DE9F041064600251BE0002410E02002C0
:102730003C2190FBF1F0284400F0FF084046FFF7F1
:102740008BFF074639462046FFF74BFF601C84B2DB
:102750003C2CECDBFFF7ACFE3046FFF762FC681C5C
:1027600085B2B5F5A06FE0DBBDE8F0812DE9F04161
:1027700006460F464FF0000821E000241BE000252C
:1027800006E0291988B23146FFF72BFFE81C85B215
:102790003C2DF6DBFFF78CFE3846FFF742FC0025A8
:1027A00006E0291988B20021FFF71BFFE81C85B25B
:1027B0003C2DF6DB641C032CE1DB08F10108B8F1C9
:1027C0000A0FDADBBDE8F0812DE9F0470746002665
:1027D0002CE0002427E0002512E0A819FF2190FB3F
:1027E000F1F201FB120000F0FF094846FFF734FF49
:1027F0008046291988B24146FFF7F3FEE81C85B2EE
:102800003C2DEADBFFF754FE3846FFF70AFC0025B3
:1028100006E0291988B20021FFF7E3FEE81C85B223
:102820003C2DF6DB641C032CD5DB761CFF2ED0DDA3
:10283000BDE8F0872DE9F74F03468C46C3EB032B29
:102840000BEB4B0B4FF4004E0EEB4B004FEAE07BD3
:1028500000EB1B4B4FEA1B43B3F5FF7F0ADA002462
:10286000FF2B02DAFF21DAB231E0C3F5FF70C1B20B
:10287000FF222CE0B3F57F7F14DA0021B3F53F7F10
:1028800003DCFF22981CC4B221E0C3F57F70C2B202
:10289000FF241CE030000240C80100200008014075
:1028A0000030014040F2FA5083420DDA002240F23B
:1028B000FB40834203DA181DC1B2FF2407E0FF2169
:1028C000C3F1FA00C4B202E0FF21002214460298CC
:1028D000451C0CF10106CCF1FF0701FB06F007EBEC
:1028E000202068430020000200F0FF0802FB06F0F1
:1028F00007EB202068430020814604FB06F007EB2D
:1029000020206843C0F3072A48EA090040EA0A0089
:10291000BDE8FE8F08B501211C20FEF725F9C02077
:10292000ADF8000048208DF8030069463048FDF7F7
:102930005FFE0420ADF8000048208DF803006946D2
:102940002C48FDF755FE08BD70B5002540212848EC
:10295000FDF7E1FE10B1002027490870402124480E
:10296000FDF7D9FE002830D12348007868BB6420E9
:10297000FFF740FB04211F48FDF7CDFE044603206E
:10298000FFF74FFB40211A48FDF7C5FEE8B90CB927
:10299000012500E002250020184908800AE01748B8
:1029A0000088401C15490880012013490870142034
:1029B000FFF720FB40210E48FDF7ADFE28B90F4878
:1029C00000884EF660218842E9DB80210848FDF747
:1029D000A2FE58B90848007840B91420FFF721FB3F
:1029E00080210348FDF797FE00B90325284670BDF6
:1029F00000080140000C0140340000203600002097
:102A0000704700007CB51D4616460C00009001D0B2
:102A10002044401E074B7B442A46694601903046BD
:102A200000F0B5F905461CB10020694600F0C2F976
:102A300028467CBDA50300000FB4044910B503AAC5
:102A4000029800F0DBF910BC5DF814FB28000020B0
:102A500070B50C460546012A05D02878800600D5B9
:102A6000EA69002302E0012305E05B1C934202D2E5
:102A7000E05C0028F9D1A869E618C01AA861286AA4
:102A800018442862284600F0F4F804E0D5E9012152
:102A900014F8010B9047B442F8D3284600F0FFF831
:102AA00070BD00002DE9F05F894604464FF0000A32
:102AB000DFF874B1FB44C0F820A02046E1688847E5
:102AC000002874D0252806D0D4E901219047206A37
:102AD000401C2062F1E700265F462046E1688847F7
:102AE0002028054607DB312D05D2781910F8200C77
:102AF00008B10643F1E7B00701D526F00406C4F893
:102B00001CA00027C4F818A02A2D09D0284601F0DF
:102B100019FC38B304EB8708303DC8F8185019E0A9
:102B200059F8041B204604EB87029161E16888474D
:102B3000012F054618D1E069002820DA26F020068A
:102B40001DE0D8F8180000EB800005EB400030389D
:102B5000C8F818002046E1688847054601F0F2FBF6
:102B60000028EED1012F0AD02E2D08D12046E16891
:102B700088477F1C0546022F46F02006C4DBA0696B
:102B8000002803DA404246F00106A061F00701D0B8
:102B900026F010066C2D0BD0682D09D04C2D39D0A5
:102BA0006A2D35D0742D35D07A2D33D016E038E02B
:102BB000E1682F4620468847B842054609D16C2F68
:102BC00026D04FF48060E1680643204688470546DA
:102BD00004E06C2F1AD04FF4807006430DB3A5F1BA
:102BE0004100192802D8203546F400664A46294695
:102BF000204626604E46FDF7B3FA80B101280BD07F
:102C0000F61D26F0070000F1080956E74020E4E72A
:102C10008020D8E70020D6E706F104094DE72846D2
:102C200052E7206ABDE8F09FFC18000010B5431C75
:102C300002E010F8011B71B18107FAD14FF00132A7
:102C400002C88C1A8C4314EAC211F9D0C01A0A06C1
:102C500003D0C01E10BDC01A10BD0A0401D0801ED2
:102C600010BD0902FCD0401E10BD70477047704770
:102C7000704770B5044685690068C10601D53026E5
:102C800000E02026C00707D070BDD4E901213046FE
:102C90009047206A401C20626D1EF6D570BD70B54D
:102CA000044685690078C00707D170BDD4E90121C9
:102CB00020209047206A401C20626D1EF6D570BD12
:102CC00009684A0501D540B27047C905FCD500B274
:102CD000704709684A0501D5C0B27047C905FCD5DF
:102CE00080B270472DE9F04106460024106875292E
:102CF000314616A510D0FFF7E3FF002802DA404264
:102D000013A507E031688A0701D512A502E049073B
:102D100004D511A5012401E0FFF7DBFF00210A2201
:102D200006F1240709E0B0FBF2FCB0FBF2F302FB72
:102D30001C00303078541846491C0028F3D1234633
:102D40002A463046BDE8F04100F0CDB90000000051
:102D50002D0000002B000000200000001168026818
:102D6000006A530501D508700AE0D30501D5088033
:102D700006E0130603D5C217C1E9000200E00860AF
:102D80000120704701694A1C02610878704700B54C
:102D90008FB0CDE901310021059105497944CDE994
:102DA000031011466846FFF77DFE0FB000BD00001E
:102DB000E5FFFFFF0A6802F8010B0A607047D1E9DE
:102DC00000239A4202D2531C0B601070704710B55A
:102DD000436913B1AFF3008001E0FFF739FE012032
:102DE00010BD127800F124010A7000224A700122FD
:102DF000EDE711684FF0FF32E9E70000074B70B5CF
:102E00000D467B44FFF7C3FF0446284600F068FDEB
:102E100010B14FF0FF3070BD204670BDC7F2FFFF0C
:102E20002DE9FF5F15468A460446DFF8AC80F8447A
:102E30000027D8E900103E46CDE9001010E03AF82E
:102E400016106A4602A800F04FFD411C07D02178F9
:102E5000890603D5E269391891420DD80744761CDA
:102E60002078800602D5E069B84205DDAE42E6DB97
:102E70003AF816000028E2D1A069C01BA0612046E4
:102E8000FFF7F7FED8E90010CDE90010002017E0A9
:102E90003AF818106A4602A800F026FDB0F1FF3F8C
:102EA00081460BD000250DF1080B05E0D4E9012186
:102EB0001BF8050090476D1C4D45F7D308F1010044
:102EC000B0428046E4DB206A384420622046FFF7A7
:102ED000E6FEBDE8FF9F0000961500002DE9F041D9
:102EE0008046D21D22F007020025D2E90002F52912
:102EF00015A614D0011E72F1000106DA0023D0EBF2
:102F0000030063EB020211A608E0D8F800108B075B
:102F100001D50FA602E0490701D50EA601251146ED
:102F2000002408F1240704E000F098F830323A5504
:102F3000641C50EA0102F7D12B4632462146404636
:102F4000BDE8F04100F0CFB8000000002D00000007
:102F50002B0000002000000030B4002100F1240408
:102F600008E002F00705D208303542EA4372DB0878
:102F70006554491C52EA0305F3D10468002310A2EA
:102F8000250707D5A40600D421B1C46901230DA2E9
:102F9000641EC46130BC00F0A6B810B504462146DA
:102FA0001068FFF796FE02462046BDE81040002359
:102FB000D2E7D21D22F00701D1E90023CCE70000BF
:102FC0000000000030000000F0B40D460188090543
:102FD00002D5214C7C4402E01F4C7C440E3400217D
:102FE00000F1240608E002F00F071209E75D42EA4B
:102FF00003721B097754491C52EA0307F3D1027884
:103000000023120704D5702D06D009B10223113414
:103010002246F0BC00F067B801231034F8E770B521
:1030200004460D4621461068FFF753FE0246294626
:103030002046BDE870400023C6E7D21D22F00703FA
:10304000D3E90023C0E70368126843F0200303605C
:103050000823C3610023B7E7F813000030B5B0F1CF
:103060000A024FEA900E71F100034EEA817EB0EB46
:103070000E0061EB91014FEA101E4EEA017E10EB4B
:103080000E0041EB11114FEA102E4EEA016E10EBCB
:103090000E0041EB11214FEA104E4EEA014E10EBAB
:1030A0000E0041EB1141401841F100014FEAD00000
:1030B00040EA41704FEAD10110EB80054FEA8104EC
:1030C00044EA907444EB01046D1944EB0404521B70
:1030D000A3414FF0000348BF0A3200D530BD401C69
:1030E00041F1000130BD2DE9F0470D469946924669
:1030F000044600F124080168880604D5E06921F03F
:103100001001216000E00120A84201DD471B00E022
:103110000027A1697A1902EB0900081AA06120783A
:10312000C00602D42046FFF7A4FD002608E0D4E93B
:1031300001211AF806009047206A401C761C206284
:103140004E45F4DB2078C0060AD52046FFF791FDF6
:1031500006E0D4E9012130209047206A401C20621B
:10316000381EA7F10107F4DC07E0D4E9012118F8C3
:1031700005009047206A401C2062281EA5F1010529
:10318000F3DC2046FFF78BFD2078000602D50220F5
:10319000BDE8F0870120FBE770472DE9FF4F0C46A3
:1031A0001E464FF0FF378BB0D2E90001DDF860809A
:1031B0000A908A46C1F30A5505B93D4600210846E2
:1031C0004FF00000BAF1000F00F4400005DA00EB08
:1031D00080004FF4400101EA50004FEA9059B9F1E4
:1031E000010F00DDB9460A9850EA4A000ED044F6B5
:1031F0001050A5F2FF3545432F14B8F1000F1ED033
:103200007542291E1EDDC9F100021CE0B8F1010F54
:103210004FF0000001D0302103E0F24305E02154DB
:10322000401CB042FBDB30460022002121540B99A8
:10323000C1F80880C1E900200FB0BDE8F08FBD1BC8
:103240006D1CDEE74A4600DA694206A800F0DEFBA4
:1032500006AB93E8070003AB83E8070050460A99E2
:1032600000F094FC8DE80700A0F500501F38009096
:103270000398002D0ADD42F21F014A46084400234C
:1032800003A90390684600F0FDFE09E0A0F5005098
:103290004A461F38002303A90390684600F007FF41
:1032A0008DE807000004000C03D04FF0FF30410808
:1032B00000E01046B8F1000F03D00022009215463E
:1032C0001EE0751E05D4FFF7C9FE303262556D1E33
:1032D000F9D5B3460122084302D000227F1C04E046
:1032E0002078302801D100227F1E002A099784D03F
:1032F0001DE0112D07DAFFF7B1FE303262556D1C6B
:1033000050EA0102F5D1084302D00098C8B10EE09E
:103310000021681E05E0235C625C63542254401E59
:10332000491C8142F7DBAB46A81B401E09900020D8
:1033300004F80B000B98099AC0F80880C0E9002B2C
:103340007AE711264FF0000857E72DE9F04F88463D
:103350000446D21D22F0070191B0D1E90001CDE968
:103360000A0100F0DBFF02460B98C00F01D02D20B0
:1033700007E02068810701D52B2002E0202101EA27
:10338000C000032A099001D0072A05DB0346414605
:10339000204600F0FBFA0BE12078800601D5E069B9
:1033A00000E00620B8F1650F814606D0B8F1660F3F
:1033B00018D0B8F1670F70D131E00020B9F1110FCA
:1033C000009001DB112301E009F101030AAA01A920
:1033D0000CA8FFF7E2FEDDE90C70002609F10105FB
:1033E000834647E001204B4600904FF000470AAA71
:1033F00001A90CA8FFF7D1FEDDE90DB00C995D46DF
:10340000002610B909F101000D18B9EB050003D42D
:10341000C0F1FF3609F10105A5EB09002BE0B9F178
:10342000010F01DA4FF001090020B9F1110F0090EE
:10343000484601DD112300E003460AAA01A90CA8B1
:10344000FFF7ABFEDDE90C704D4600268346207881
:1034500000070AD4AB4500DA5D4601A8012D04DD62
:10346000411911F8011C302907D04F4502DA17F134
:10347000040F04DA012082460FE06D1EEEE7002FF4
:1034800002DCED1B3E4403E0781CA84200DD7D1CFD
:10349000B81B00F1010A4FF000472078000703D461
:1034A000AA4501DB4FF0FF3A0021B7F1004F0DF1C3
:1034B00043088DF8431024D002202B23002F01DA7B
:1034C0007F422D230A21021EA0F1010000DC5FB122
:1034D00097FBF1FC97FBF1F201FB1C7C17460CF10A
:1034E000300C08F801CDEEE7A8F101000370218847
:1034F000090501D5452100E06521A0F1010800F88A
:10350000011C09980FA9A1EB0807FF1D00B10120BC
:10351000411901EBEA70A1693844081A401EA06104
:103520002078C00602D42046FFF7A3FB099828B1F3
:10353000D4E901219047206A401C20622078C0060F
:1035400022D52046FFF795FB1EE0002E04DBB34595
:1035500002DD01A8805D00E03020D4E90121904720
:10356000206A401C2062761CAAF101005FEA000A72
:103570000AD100F007FAC0680168405CD4E9012173
:103580009047206A401C2062281EA5F10105DCDC62
:1035900007E0D4E9012118F8010B9047206A401C8C
:1035A0002062381EA7F10107F3DC2046FFF777FB06
:1035B000032011B041E600002DE9F04F04460D460E
:1035C000D21D22F0070089B0D0E90097484639465D
:1035D00000F0A4FE0246F80F01D02D2307E020687A
:1035E000810701D52B2302E0202101EAC0038DF8D9
:1035F00020300BB1012000E00020032A824601D0D8
:10360000072A04DB2946204600F0C0F93FE1207874
:10361000800601D40D2500E0E569C7F30A560D2D9B
:1036200049DA00214FEA175B08464FF00000002FEF
:1036300000F4400007DA00EB80004FF4400100EB9B
:10364000D07001EA60008115012901DD4FF0FF31E2
:1036500000224FEA850CBCF1180F06D31346ACF1DB
:1036600018004FF08052C24003E04FF4801323FA59
:103670000CF30CF10C0CBCF1200F04D3ACF1200CBA
:1036800009FA0CF001E007FA0CF000294FF00048AD
:1036900001DD18B90FE00ED140450CD319EB02093A
:1036A0005F4121B9404502D19F4329EA0209BBEBA2
:1036B000175F00D0761C2088000502D57B4878442F
:1036C00002E07A487844193808AA302302F80A3010
:1036D000037C0AF10101002E0AF1020A53546A46E2
:1036E00002DC4FF0300101E04FF031014FF00108F2
:1036F0008DF8001002D0A6F2FF3603E059EA470128
:1037000000D06B4E002D02DC2178090704D54FF064
:1037100002082E218DF80110C44600210BE0C7F3EA
:1037200003433F01C35C491C6D1E02F808300529A4
:1037300008F1010801DA002DF1DC00210CE000EBBA
:103740001973491C1B786D1E082902F808304FEACE
:10375000091908F1010801DA002DF0DC21688B0657
:1037600002D516E0A8F10108E04505DD02EB0803EB
:1037700013F8013C302BF5D0B8F1000F09DD02EB56
:10378000080313F8013C2E2B03D1090701D4A8F13B
:103790000108002D05DD3E2102F808106D1E08F11C
:1037A0000108407C002E02F8080008F1010804DA44
:1037B0002D20764202F8080002E02B2002F80800D3
:1037C0000A214FF47A70864208F101080BDB96FB60
:1037D000F0F3303302F8083096FBF0F308F10108FB
:1037E00000FB136601E0642E0CDB642096FBF0F313
:1037F000303302F8083096FBF0F308F1010800FBC3
:10380000136601E00A2E06DB96FBF1F0303002F879
:10381000080008F1010896FBF1F001FB1060303060
:1038200002F80800A16908F1010808EB050202EBA3
:103830000A00081AA0612078C00602D42046FFF7CB
:1038400018FA216A08AE01EB0A00206204E0D4E90C
:10385000012116F8010B9047BAF1010AF7D220783E
:10386000C00602D52046FFF704FA6E4609E016F8B6
:10387000010B3E280FD0D4E901219047206A401C5B
:103880002062B8F10108F2D22046FFF708FA09B029
:103890000320BDE8F08F206A2844206203E0D4E9C9
:1038A0000121302090476D1EEBD3F8E7490D000051
:1038B00002FCFFFF10B5436913B1AFF3008001E0D4
:1038C000FFF7AEFA012010BD128800F124018284B6
:1038D0000022C2840122EDE711684FF0FF32E9E7D0
:1038E000007B00F08000704770B516460C46054618
:1038F00000F040F8036893F80101012806D0FF2C7E
:103900000FD8185D68B101202C7070BDD3F8070185
:103910003246214603F2071303442846BDE87040AF
:1039200018474FF0FF3070BD754600F0EBF8AE461B
:1039300005006946534620F00700854618B020B5BB
:10394000FCF786FCBDE820404FF000064FF0000772
:103950004FF000084FF0000B21F00701AC46ACE837
:10396000C009ACE8C009ACE8C009ACE8C0098D46A4
:103970007047000010B500F005F8001D10BD00BF35
:10398000010A000000487047880700202DE9F04137
:103990001F46044603260168072A01F4006004DB81
:1039A00008B116A505E016A503E008B115A500E0CD
:1039B00015A521F010002060A069C01EA0610FB104
:1039C000401EA0612046FFF754F94FB1D4E9012110
:1039D00038469047206A401C2062C01C206206E0E6
:1039E000206AFAE7D4E9012115F8010B9047761E09
:1039F000F8D22046FFF753F9BDE8F0814E414E0062
:103A00006E616E00494E4600696E66002DE9F04712
:103A1000814616468AB0354878440DC88DE80D00B9
:103A200032487844801C03AC0DC884E80D0041F690
:103A30009B300844372190FBF1F290FBF1F5A5F1A2
:103A4000800501FB12041B3C02D56442012000E00A
:103A50000020DFF898A080460027FA44AAF1BE0AA9
:103A60000EE0E0070AD03246684607EB4701012323
:103A70000AEB810100F01BFB8DE8070064107F1C3E
:103A8000002CEED1194F7F44AE3F19E0E80715D066
:103A900007EB04100DF1180A90E80E008AE80E00FA
:103AA000C068F04201D1981908903246012306A956
:103AB00003A800F0FCFA03AB83E807006D10641C58
:103AC000002DE3D14FF0010332466946B8F1000FF3
:103AD00003A802D000F0D6FA01E000F0E8FAC9E944
:103AE0000001C9F808200AB0BDE8F087800A00008C
:103AF00010B50446AFF300802046BDE81040FCF747
:103B000092BB000000487047680700204FF0013C5E
:103B100050F8042B51F8043B9A4221D1A2EB0C033C
:103B2000934313EACC1317D150F8042B51F8043BFC
:103B30009A4215D1A2EB0C03934313EACC130BD199
:103B400050F8042B51F8043B9A4209D1A2EB0C0324
:103B5000934313EACC13DBD04FF00000704700BF53
:103B6000D01A01BAB1FA81F101F0180122FA01F07C
:103B7000CB40C1F12001DBB2C0B2C01A2CFA01F374
:103B8000D11A914311EAC311E6D170475FEA400CA4
:103B900008BF91F0000F4FEA8C234FEAC12243EA9D
:103BA00051514FEA1C5018BF00F5F0404FEA300069
:103BB00018BF41F000415FEA6C5C00F02980BCF165
:103BC000FF3F08BF40F080407047130C06BF12044F
:103BD0004FF0100C4FF0000C130E04BF12020CF14A
:103BE000080C130F04BF12010CF1040C930F04BF57
:103BF00092000CF1020CD30F04BF52000CF1010C27
:103C000011464FF00002A0F11F00A0EB0C0070471E
:103C100011F0004F08BF704731F000413FF4D5AFBD
:103C20000B0C06BF09044FF0100C4FF0000C0B0EEC
:103C300004BF09020CF1080C0B0F04BF09010CF1C1
:103C4000040C8B0F04BF89000CF1020CCB0F04BFD6
:103C500049000CF1010CCCF12003A0EB0C0022FA7E
:103C600003F302FA0CF241EA030100F1010070478C
:103C700020F07F4C80EA030023F07F47ACEB070382
:103C800003F57C5300F0004003F1FF032DE9804968
:103C90004FEA154B09B44FEA144325EA0B4E24EAC8
:103CA00003480FF2042606EB132749083E785FEA23
:103CB000320203FB0667C7F5000707FB06F64FEA6B
:103CC00054374FEAD64606F1020607FB066CCCF1E4
:103CD000005C4FEA1C472CEA074C07FB06F40CFB80
:103CE00006F504EB15464FEA961634BF00204FF058
:103CF00000404FEAD13706FB07FC4FEA1C4C0CFB97
:103D00000BF7D21B03FB0CF761EB07010CFB0EF763
:103D1000B0EB074072EB17420CFB08F734BFA2EB85
:103D20000742B2EB074261EB17414FEA0C444FEAFE
:103D3000910706FB07FC4FEA1C4C0CFB0BF7B0EBA2
:103D4000C74072EB573203FB0CF734BFA2EBC742FC
:103D5000B2EBC74261EB57310CFB0EF7B0EBC7007B
:103D600072EB57720CFB08F734BFA2EBC702B2EB41
:103D7000C70261EB5771039F4FEA816141EA9211DB
:103D800004EBCC044FEAD1374FEA826206FB07FC12
:103D900042EA90124FEA80604FEA1C4C0CFB0BF792
:103DA000D21B03FB0CF761EB07010CFB0EF7B0EB2A
:103DB000074072EB17420CFB08F734BFA2EB074237
:103DC000B2EB074261EB17414FEA8C554FEA91077E
:103DD00004EB9C2406FB07FC4FEA1C4C0CFB0BF786
:103DE000B0EBC74072EB573203FB0CF734BFA2EBCA
:103DF000C742B2EBC74261EB57310CFB0EF7B0EB99
:103E0000C70072EB57720CFB08F734BFA2EBC70276
:103E1000B2EBC70261EB577115EB4C254FEA81619C
:103E200041EA92114FEA82624FEAD13742EA901298
:103E300006FB07FC44F100044FEA80604FEA1C4C8B
:103E40000CFB0BF7D21B03FB0CF761EB07010CFB20
:103E50000EF7B0EB074072EB17420CFB08F734BFCC
:103E6000A2EB0742B2EB074261EB174115EB1C15C1
:103E70004FEA813141EA92414FEA823242EA90426E
:103E80004FEA80304FEA0C7644F1000448EA0343DD
:103E90004EEA0B484FF0000EB2EB080C71EB030733
:103EA00024BF624639464EEB0E0E4FF0000B001851
:103EB000524149414BEB0B0BB2EB080C71EB030782
:103EC0007BF1000B24BF624639464EEB0E0E4FF0DD
:103ED000000B0018524149414BEB0B0BB2EB080CA5
:103EE00071EB03077BF1000B24BF624639464EEBB2
:103EF0000E0E51EA020718BF46F0010616EB0E76C9
:103F000055F1000254F1000103D5BDE88901BDE877
:103F10000088BDE88901BDE80048B619524141EB6F
:103F20000101A3F10103704780807F7E7D7C7B7A55
:103F30007978777676757473727171706F6E6E6D55
:103F40006C6C6B6A6A6968686766666564646363FB
:103F500062616160605F5F5E5E5D5D5C5C5B5B5A81
:103F60005A595958585757565655555554545353EE
:103F700052525251515050504F4F4F4E4E4D4D4D49
:103F80004C4C4C4B4B4B4A4A4A4949494848484794
:103F900047474746464645454544444444434343D2
:103FA0004342424242414141002B9C4630D477007B
:103FB0002BD01CB54FEA370703B44FF010004FF079
:103FC0001001BAF1000F06D0BCF1000FDCBF40F0C9
:103FD000080040F008014FF000000FBCBDE81040A1
:103FE0000BF1010BBBF1010F08BF5FEA170722BFFE
:103FF00012F1010211F101014FF0004143F1000300
:1040000000F0004043EA00007047F9D35708D0E7BA
:1040100046EA064613F1400F4FEA16461FDD13F13C
:10402000200FDFBF16430A46002120335B42BED07B
:10403000C3F1200746EA064602FA07F74FEA16469A
:1040400046EA0706C3F1200722FA03F201FA07F74E
:1040500021FA03F14FF0000342EA0702A7E746EA1C
:10406000020646EA06464FEA164646EA0106BCBF85
:1040700046EA0646360C4FF000034FF000024FF0C0
:10408000000194E72DE9804C9A46934670B491E87C
:10409000380007C831EA400C48BF34EA430C03D566
:1040A000FFF7E6FDFFF780FFF0BCBDE8008C2DE9CF
:1040B000804C9A46934670B491E8380007C810F0D7
:1040C000804F08BF13F0804F03D100F005F8FFF7D1
:1040D0006BFFF0BCBDE8008C20F07F4780EA030056
:1040E00023F07F4C07EB0C03A3F57C5300F000405A
:1040F000A3F1FE0392F0000F00F0B38095F0000FE3
:1041000000F077802DE901494FEA11404FEA14464B
:1041100021EA004800FB06FC24EA064708FB06F6F5
:1041200007FB08F800FB07F718EB06484CEB164CAA
:104130004FEA124B18EB07484FEA15464CEB174075
:1041400022EA0B4E0BFB06FC25EA06470EFB06F6A1
:1041500007FB0EFE0BFB07F71EEB064E4CEB164C57
:104160004FF000061EEB074E4CEB174B18EB0B08FD
:1041700040F1000018EB0E0B58EB000840F1000076
:104180008F1A4FF000013CBFC943661B14BFB5EB4B
:10419000040C00213CBFC943F61B4FEA17444EEA0A
:1041A0008E0E27EA04454FEA1C4704FB07622CEAFF
:1041B000074C05FB07F70CFB05F604FB0CFC16EBA4
:1041C000074642EB174216EB0C4642EB1C421BEB38
:1041D000060658EB0202414146EA9E0601D5BDE8BB
:1041E0000189B619524141EB0101A3F10103BDE878
:1041F00001894FEA14454FEA114724EA054621EAAE
:10420000074C05FB07F406FB07F70CFB06F105FB63
:104210000CFC11EB074144EB17444FEA124711EB3A
:104220000C4144EB1C4422EA074C05FB07F206FB59
:1042300007F70CFB06F605FB0CFC16EB074642EBFA
:10424000174216EB0C4642EB1C456A1854F100016C
:1042500048BF7047B619524141EB0101A3F1010378
:10426000704795F0000F37D04FEA11424FEA1447DC
:1042700021EA024624EA074C02FB07F106FB07F796
:104280000CFB06F402FB0CFC14EB074441EB17415A
:104290004FEA154714EB0C4441EB1C4125EA074C4F
:1042A00002FB07F506FB07F70CFB06F602FB0CFC0E
:1042B00016EB074645EB174516EB0C4645EB1C4243
:1042C000121951F1000148BF7047B619524141EB34
:1042D0000101A3F1010370474FEA14454FEA11476A
:1042E00024EA054621EA074C05FB07F106FB07F720
:1042F0000CFB06F24FF0000605FB0CFC12EB07422C
:1043000041EB174112EB0C4251EB1C4148BF704787
:10431000921841EB0101A3F101037047490050EAF3
:10432000C12018BF04204A0D18BF40F0010040F220
:10433000FF72B2EB515F08BF40F00200012808BFD6
:104340000520704730380A2801D20120704700202C
:104350007047000010B500290AD00878002807D05F
:1043600005487844FFF7D2FB002801D0002010BD9B
:104370000248784410BD0000720100006A0100008C
:1043800010B500290AD00878002807D005487844DD
:10439000FFF7BCFB002801D0002010BD0248784484
:1043A00010BD0000620100005A010000FEF7CDBF01
:1043B000FFF702B90400000800000000000000023E
:1043C00000010000100000000000000000000000DC
:1043D000303132333435363738394142434445463B
:1043E0004030580030313233343536373839616235
:1043F00063646566403078003031323334353637A7
:104400003839616263646566787000303132333404
:10441000353637383941424344454658500000004C
:1044200002400000000000A0000000000540000065
:10443000000000C8000000000C4000000000409C8C
:1044400000000000194000000020BCBE0000000079
:1044500034400000BFC91B8E00000004B5400000BE
:10446000504BCFD06607E2CF010000006C41000046
:104470003E8251AADFEEA73401000000D9420000BD
:10448000DCB5A0E23A301F97FFFFFFFFB445000004
:10449000FD25A0C8E9A3C14FFFFFFFFFFF3F0000BC
:1044A0000000008000000000FF3F000000000080CE
:1044B0000000000000460008000000203800000056
:1044C000280100083846000838000020900D000040
:1044D000440100081C00000043000000F8FFFFFF3B
:1044E0000C0000000E0000000F0000002E00000075
:1044F0001001000043000000F8FFFFFF00404040B3
:1045000040404040404041414141414040404040A6
:104510004040404040404040404040404005020252
:104520000202020202020202020202020220202011
:10453000202020202020200202020202020290906D
:10454000909090901010101010101010101010106B
:1045500010101010101010100202020202028888BF
:1045600088888888080808080808080808080808CB
:1045700008080808080808080202020240000000B3
:10458000000000000000000000000000000000002B
:10459000000000000000000000000000000000001B
:1045A000000000000000000000000000000000000B
:1045B00000000000000000000000000000000000FB
:1045C00000000000000000000000000000000000EB
:1045D00000000000000000000000000000000000DB
:1045E00000000000000000000000000000000000CB
:1045F00000000000000000000000000000000000BB
:1046000000A24A04000000000000000001020304B0
:104610000607080900000000010203040102030468
:104620000607080902040608000000000000000058
:08463000000000000000000082
:04000005080000ED02
:00000001FF
